:100000000C944B000C9473000C9473000C947300CC
:100010000C9473000C9473000C9473000C94730094
:100020000C9473000C9473000C9473000C942205D0
:100030000C9473000C9473000C9473000C94730074
:100040000C947A020C9473000C9473000C9473005B
:100050000C947300426F6E6A6F75720A00343A3600
:100060003A00343A353A00343A343A00343A333AC2
:1000700000343A323A00343A313A00323A343A00F3
:10008000323A333A00323A323A00323A313A0000E8
:10009000C1008503BA0011241FBECFE5D8E0DEBF42
:1000A000CDBF11E0A0E6B0E0E0EAFCE102C00590BF
:1000B0000D92A037B107D9F711E0A0E7B1E001C078
:1000C0001D92AB3AB107E1F710E0C4E9D0E004C0FB
:1000D0002297FE010E943F0EC039D107C9F70E9446
:1000E000D7000C94430E0C940000F8940C9400007C
:1000F0000895DF93CF9300D000D00F92CDB7DEB735
:100100009E012F5F3F4FD901E6E9F1E085E00190C4
:100110000D928150E1F7A6E9B1E0EBE9F1E085E06D
:1001200001900D928150E1F7ABE9B1E0F90185E072
:1001300001900D928150E1F70F900F900F900F906A
:100140000F90CF91DF9108958130910531F0892B87
:1001500019F46F5F7F4F49F008956F5F7F4FE1F7AC
:1001600080E791E00E948F03089580E791E00E946C
:10017000740408956FEF7FEF80E090E00E94A40088
:1001800008956FEF7FEF81E090E00E94A400089552
:100190000E94F2020E9452030E9479050E94BA0254
:1001A0000E94C3010E94F1040E94910508950E94DB
:1001B000C800C49804C082E390E00E9466060E94D2
:1001C0004C068132C1F784E590E00E94A90504C085
:1001D00082E390E00E9466060E94BC010E944C06E9
:1001E0008A32B1F7F8940C940000F2CFA89880916D
:1001F00060000E94FA0280916000803831F090E047
:10020000880F991F80936000089581E080936000BB
:10021000089586E790E00E94A90580E00E94D2013F
:1002200090E0A0E0B0E0BC01CD010E94B5058AE0FD
:100230000E94990581E790E00E94A90581E00E9453
:10024000D20190E0A0E0B0E0BC01CD010E94B50574
:100250008AE00E9499058CE690E00E94A90582E060
:100260000E94D20190E0A0E0B0E0BC01CD010E946C
:10027000B5058AE00E94990587E690E00E94A905ED
:1002800083E00E94D20190E0A0E0B0E0BC01CD018B
:100290000E94B5058AE00E94990582E690E00E94DE
:1002A000A90584E00E94D20190E0A0E0B0E0BC018A
:1002B000CD010E94B5058AE00E9499058DE590E088
:1002C0000E94A90585E00E94D20190E0A0E0B0E084
:1002D000BC01CD010E94B5058AE00E9499050895F0
:1002E0008AE890E00E94A9050E94DC02882389F137
:1002F00082E30E9499058AE00E94990585E890E0D2
:100300000E94A9050E94E002882359F182E30E941D
:1003100099058AE00E94990580E890E00E94A9056D
:100320000E94E5028823C9F082E30E9499058AE0D1
:100330000E9499058BE790E00E94A9050E94EB02BC
:10034000882399F481E30E9499058AE00E94990527
:10035000089581E30E949905CECF81E30E9499051B
:10036000E6CF81E30E949905D4CF82E30E949905EC
:100370008AE00E94990508950E94F6000E9470018B
:100380000E94090108958AB3807C8ABB8BB3807C6C
:100390008BBB80E687B98DEC86B981E080937101D3
:1003A00078940895E82FFF27E7FDF095EE58FE4F6B
:1003B000808108952F923F924F925F926F927F9229
:1003C0008F929F92AF92BF92CF92DF92EF92FF9265
:1003D0000F931F93DF93CF9300D000D000D0CDB701
:1003E000DEB77C012B019B01220F331F220F331F2D
:1003F00022583E4F3E832D83F901608171818281B5
:10040000938122E539E44DE959E30E941F085B011D
:100410006C012DEC3CEC4CE45DE30E941F089B0159
:10042000AC01C601B5010E94460969837A838B83BA
:100430009C8388E7282E81E0382E240C351CF1019E
:100440006081108170E0882777FD8095982F0E9449
:10045000200A3B014C01E11AF1080027F7FC009546
:10046000102FC801B7010E94200A29813A814B81CF
:100470005C810E944C089B01AC01C401B3010E9445
:100480001F080E94760622E731E0420E531EF20159
:10049000608329813A814B815C8160E070E080E873
:1004A0009FE30E94EE07A60195010E944C08ED8192
:1004B000FE816083718382839383F2018081F101E5
:1004C000808326960FB6F894DEBF0FBECDBFCF91C6
:1004D000DF911F910F91FF90EF90DF90CF90BF9031
:1004E000AF909F908F907F906F905F904F903F90D4
:1004F0002F9008951F920F920FB60F9211242F93F1
:100500003F934F935F936F937F938F939F93AF939B
:10051000BF93EF93FF936091710185B170E090E01C
:100520000E94DA0180917101853009F18091710199
:100530008F5987B9809171018F5F8093710180918C
:100540007101863010F010927101369AFF91EF918F
:10055000BF91AF919F918F917F916F915F914F91DB
:100560003F912F910F900FBE0F901F90189580E62E
:1005700087B9E0CFB898B998BA98BB98C098C19895
:10058000C298C3980895B09915C092E0B19904C07B
:1005900083E0989F902D1124B29904C085E0989F24
:1005A000902D1124B39904C087E0989F902D1124B9
:1005B000892F089591E0EACF86B3809581700895E0
:1005C00086B3869580958170089586B386958695C5
:1005D00080958170089586B38695869586958095D9
:1005E0008170089584B38FEF84BB95B385BBBC9AAB
:1005F000C49A0895809585BB0895FC01718360833A
:100600005383428324830895FC0171836083538361
:10061000428324830895FC010190F081E02D118232
:1006200010820895DC01862F992787FD909597FD0C
:1006300024C0ED91FC911197982F83330CF092E335
:100640008AE09802C001112491838083161694F4E5
:100650001296ED91FC911397208181E090E0149621
:100660000C9002C0880F991F0A94E2F780958223AC
:1006700080830895662329F40895909581959F4F6E
:10068000D8CF1296ED91FC911397208181E090E0F4
:1006900014960C9002C0880F991F0A94E2F7282B39
:1006A000208308958C9A8D9A8F9A8E9A83EA8FBDB3
:1006B0008FB580648FBD8FB580618FBD1BBC1ABCA8
:1006C00019BC18BC1EBC8EB582608EBD22E330E022
:1006D0009798969887E080939A0130939901209398
:1006E00098018AE490E0909397018093960186E0C8
:1006F00080939F0130939E0120939D0188E490E0B8
:1007000090939C0180939B01089508951092A301FA
:100710001092A2011092A1011092A00108951092CE
:10072000A3011092A2011092A1011092A0010895BC
:100730002091A0013091A1012115310511F0C901CD
:1007400008950895EF92FF920F931F93DF93CF9335
:10075000CDB7DEB72A970FB6F894DEBF0FBECDBF78
:10076000E091A001F091A101309741F17E01089440
:10077000E11CF11C9701AF0185E0DA010D90AD019C
:10078000D9010D929D018150C1F705811681CF01DC
:100790000E94710D1093A1010093A001DE01169635
:1007A000F70185E001900D928150E1F72E813F81A4
:1007B000488559856A8570E090E000C02A960FB69A
:1007C000F894DEBF0FBECDBFCF91DF911F910F9187
:1007D000FF90EF900895DF93CF93CDB7DEB72A97C0
:1007E0000FB6F894DEBF0FBECDBF9C01E091A00113
:1007F000F091A101309799F183819481861B970B29
:100800009483838318161906C4F4DE01119685E0DB
:1008100001900D928150E1F729813A814B815C81F1
:100820006D8170E080E090E02A960FB6F894DEBF0C
:100830000FBECDBFCF91DF910895C9010E94A203E1
:100840002E833F83488759876A87DE011196FE0110
:10085000369685E001900D928150E1F7DDCFE4CF2F
:10086000CF92DF92EF92FF920F931F93DF93CF937C
:10087000CDB7DEB72A970FB6F894DEBF0FBECDBF57
:100880008C018091A0019091A101892BF1F06E0162
:100890000894C11CD11C86E0E82EF12CEC0EFD1E44
:1008A000C8010E94A2032E833F83488759876A8725
:1008B000D601F70185E001900D928150E1F780911A
:1008C000A0019091A101892B59F72A960FB6F894AF
:1008D000DEBF0FBECDBFCF91DF911F910F91FF9073
:1008E000EF90DF90CF9008950E94300408950E9409
:1008F00030040895DF93CF9300D000D00F92CDB78E
:10090000DEB729833A834B835C836D8387E090E075
:100910000E94C70CDC018091A0019091A101892B5C
:1009200019F1E091A201F091A301B683A5839D0185
:10093000AE014F5F5F4F85E0FA010190AF01F90111
:1009400001929F018150C1F716961C921E92159735
:10095000B093A301A093A2010F900F900F900F905E
:100960000F90CF91DF910895B093A101A093A001C2
:10097000DECF0F93DF93CF9300D000D00F92CDB78F
:10098000DEB7742F402F69837A83522F2C833D83E7
:100990000B839B016D810E947A040F900F900F9042
:1009A0000F900F90CF91DF910F910895DF93CF9328
:1009B00000D000D00F92CDB7DEB769834A83522FA3
:1009C0002C833D831B82262F342F40E06D810E94B3
:1009D0007A040F900F900F900F900F90CF91DF91AE
:1009E000089581E089BF80EF82BF84E083BF78945F
:1009F000D69AD79ADE98DF9881E08093A5018093FC
:100A0000A601089582E08093A501089582E0809375
:100A1000A601089583E08093A501089583E0809363
:100A2000A601089581E08093A501089581E0809357
:100A3000A601089584E08093A501089584E0809341
:100A4000A60108951F920F920FB60F9211248F9353
:100A500080EF82BF8091A4018232D9F18091A401FC
:100A6000843269F18091A4018532F9F08091A4016A
:100A7000863289F08091A4018F5F8093A4018091D8
:100A8000A401883211F41092A4018F910F900FBE2F
:100A90000F901F9018958091A5018111DE9880918B
:100AA000A601882339F3DF98E5CF8091A501843032
:100AB000F1F08091A6018430C9F6DF98D7CF8091FC
:100AC000A501823091F08091A601823059F6DF981D
:100AD000C9CF8091A501823008F0DE9A8091A601ED
:100AE000823008F4BBCFDF9AB9CFDE98ECCFDE9826
:100AF000E0CF9298929A9398939A089580B38695AE
:100B0000869580958170089580B3869586958695A3
:100B10008095817008958299FECF08958399FECFC4
:100B2000089588E18AB986E880BD10BC8FE289B952
:100B300008955D9BFECF8CB90895FC0180818823C8
:100B400039F05D9BFECF8CB9319680818823C9F73F
:100B50000895FC018491882339F05D9BFECF8CB908
:100B6000319684918823C9F708955F926F927F929E
:100B70008F929F92AF92BF92CF92DF92EF92FF92AD
:100B80000F931F933B014C0197FD63C05524A12C8B
:100B90009AECB92E9AE9C92E9BE3D92E8FEFE82E55
:100BA00089ECF82E8AE9082F8BE3182F1FC089E003
:100BB000581609F153948AE05816E9F1C601B501B7
:100BC0002AE030E040E050E00E94C90DC901DA019E
:100BD0005C016D01C801B7012AE030E040E050E05F
:100BE0000E94C90DC901DA017C018D01E614F704E8
:100BF00008051905E4F6C401B301A60195010E9498
:100C0000C90DCA01B9012AE030E040E050E00E947D
:100C1000C90D6530E9F1663018F56230D9F16330FD
:100C200028F56130D9F080E35D9BFECF8CB95394F9
:100C30008AE0581619F61F910F91FF90EF90DF9000
:100C4000CF90BF90AF909F908F907F906F905F906C
:100C500008955D9BFECF8DE28CB998CF81E3E4CF00
:100C60006730A1F0673040F486E3DECF633061F097
:100C70006430C9F684E3D8CF683021F0693099F642
:100C800089E3D2CF88E3D0CF83E3CECF87E3CCCF45
:100C900085E3CACF82E3C8CF5F9902C080E00895A0
:100CA0008CB108951816190684F460E070E040E0F5
:100CB00058E420E0FA013197F1F72F5F2436D1F79D
:100CC0006F5F7F4F68177907A4F308951816190608
:100CD00064F420E030E043E357E0FA013197F1F7A4
:100CE0002F5F3F4F28173907C4F30895EF92FF9203
:100CF0000F931F937B018C0120E030E040E05FE424
:100D00000E94F00988238CF020E030E040E05FE4AE
:100D1000C801B7010E94EE070E947E0A9B01AC0148
:100D2000205030404040504806C0C801B7010E94E2
:100D30007E0A9B01AC01B901CA011F910F91FF907E
:100D4000EF900895A0E0B0E0E8EAF6E00C94060E1B
:100D5000DC012B01FA019C91923008F439C1EB01BE
:100D60008881823008F433C1943069F4843009F00A
:100D70002FC111969C9111978981981709F428C168
:100D8000A1E6B0E025C1843009F421C18230A9F484
:100D9000923009F01DC19A01AD0188E0EA01099085
:100DA000AE01E90109929E018150C1F7E2018981FA
:100DB00011969C918923818308C1923009F407C15F
:100DC00012962D903C901397EB018A819B8114968B
:100DD000AD90BD90CD90DC901797EC80FD800E819A
:100DE0001F819101281B390BB90137FF04C0662709
:100DF0007727621B730B603271050CF061C012160D
:100E000013066CF537014801062E04C096948794AA
:100E1000779467940A94D2F721E030E040E050E004
:100E200004C0220F331F441F551F6A95D2F721506B
:100E30003040404050402E213F2140235123211576
:100E400031054105510521F021E030E040E050E05E
:100E500079018A01E628F728082919293CC0232BA3
:100E6000D1F1260E371E35014601062E04C0969498
:100E70008794779467940A94D2F721E030E040E0B9
:100E800050E004C0220F331F441F551F6A95D2F74C
:100E900021503040404050402A213B214C215D21CF
:100EA000211531054105510521F021E030E040E0F8
:100EB00050E059016A01A628B728C828D9280BC0D4
:100EC000821593052CF01C01AA24BB24650103C0E4
:100ED000EE24FF24870111969C91D20111968C91EA
:100EE000981709F445C0992339F0A80197012A19E8
:100EF0003B094C095D0906C0A60195012E193F0961
:100F0000400B510B57FD08C011823382228224838B
:100F10003583468357831DC081E0818333822282DB
:100F200088279927DC01821B930BA40BB50B8483C4
:100F30009583A683B7830DC0220F331F441F551F0F
:100F400024833583468357838281938101979383DA
:100F500082832481358146815781DA01C901019755
:100F6000A109B1098F5F9F4FAF4FBF4328F30BC05B
:100F7000918333822282EA0CFB1C0C1D1D1DE4822E
:100F8000F5820683178383E080832481358146813F
:100F9000578157FF1AC0C901AA2797FDA095BA2FFC
:100FA00081709070A070B0705695479537952795D1
:100FB000822B932BA42BB52B84839583A683B78395
:100FC00082819381019693838283DF0101C0D201E4
:100FD000CD01CDB7DEB7E2E10C94220EA0E2B0E085
:100FE000E4EFF7E00C94120E69837A838B839C8381
:100FF0002D833E834F835887E9E0EE2EF12CEC0ED3
:10100000FD1EB701CE0101960E94F60B8E010F5E08
:101010001F4FB801CE0105960E94F60B8A8991E018
:1010200089278A8BAE01475E5F4FB801C7010E94D6
:10103000A2060E94210BA096E6E00C942E0EA0E2E0
:10104000B0E0E5E2F8E00C94120E69837A838B83BA
:101050009C832D833E834F835887F9E0EF2EF12C3C
:10106000EC0EFD1EB701CE0101960E94F60B8E011B
:101070000F5E1F4FB801CE0105960E94F60BAE0120
:10108000475E5F4FB801C7010E94A2060E94210B74
:10109000A096E6E00C942E0EA0E2B0E0E2E5F8E0C7
:1010A0000C94060E69837A838B839C832D833E8305
:1010B0004F835887BE01675F7F4FCE0101960E9424
:1010C000F60BBE016F5E7F4FCE0105960E94F60BB8
:1010D0009985923088F089898230C8F0943019F46B
:1010E000823051F404C0843029F4923081F481E6D6
:1010F00090E0C6C0923049F420E09A858A8998131E
:1011000021E02A87CE010996BBC0823049F420E055
:101110009A858A89981321E02A8BCE014196B0C026
:101120002D843E844F8458886D887E888F88988C63
:10113000EE24FF248701AA24BB24650140E050E08F
:1011400060E070E0E0E0F0E0C10181709070892B18
:10115000E9F0E60CF71C081D191D9A01AB012A0DD8
:101160003B1D4C1D5D1D80E090E0A0E0B0E0E6146A
:10117000F7040805190520F481E090E0A0E0B0E054
:10118000BA01A901480F591F6A1F7B1FAA0CBB1C7B
:10119000CC1CDD1C97FE08C081E090E0A0E0B0E030
:1011A000A82AB92ACA2ADB2A3196E032F10549F089
:1011B000660C771C881C991C569447943794279486
:1011C000C3CFFA85EA892B893C898B859C85280FBA
:1011D000391F2E5F3F4F17C0CA0181709070892B55
:1011E00061F016950795F794E79480E090E0A0E011
:1011F000B0E8E82AF92A0A2B1B2B769567955795B4
:1012000047952F5F3F4F77FDE7CF0CC0440F551F29
:10121000661F771F17FD4160EE0CFF1C001F111F9A
:1012200021503040403090E0590790E0690790E449
:10123000790760F32B8F3C8FDB01CA018F779070A9
:10124000A070B07080349105A105B10561F447FD2F
:101250000AC0E114F1040105110529F0405C5F4F5B
:101260006F4F7F4F40781A8EFE1711F081E08A8F02
:101270004D8F5E8F6F8F78A383E0898FCE01499663
:101280000E94210BA096E2E10C94220EA8E1B0E0AE
:10129000ECE4F9E00C940E0E69837A838B839C83D3
:1012A0002D833E834F835887B9E0EB2EF12CEC0E53
:1012B000FD1EB701CE0101960E94F60B8E010F5E56
:1012C0001F4FB801CE0105960E94F60B29852230EA
:1012D00008F47CC03989323010F4B8017AC08A85AC
:1012E0009A8989278A87243011F0223031F4231714
:1012F00009F06CC061E670E06CC0343039F41D86D2
:101300001E861F86188A1C861B8604C0323021F474
:1013100084E08987B7015DC02B853C858B899C89DA
:10132000281B390B3C872B87ED84FE840F85188999
:10133000AD88BE88CF88D88CEA14FB040C051D0547
:1013400040F4EE0CFF1C001F111F215030403C8761
:101350002B8720E030E040E050E080E090E0A0E02B
:10136000B0E46FE170E0EA14FB040C051D0540F0E9
:10137000282B392B4A2B5B2BEA18FB080C091D097B
:10138000B695A79597958795EE0CFF1C001F111F2A
:101390006150704041F7DA01C9018F779070A070F9
:1013A000B07080349105A105B10561F427FD0AC034
:1013B000E114F1040105110529F0205C3F4F4F4F66
:1013C0005F4F20782D873E874F87588BBE01675F20
:1013D0007F4FCB010E94210B6896EAE00C942A0E05
:1013E000A8E1B0E0E6EFF9E00C94120E69837A838D
:1013F0008B839C832D833E834F83588789E0E82E1F
:10140000F12CEC0EFD1EB701CE0101960E94F60BE9
:101410008E010F5E1F4FB801CE0105960E94F60B9C
:101420008985823040F08989823028F0B801C7016F
:101430000E946E0C01C08FEF6896E6E00C942E0EB1
:10144000A8E0B0E0E6E2FAE00C940F0E9B01AC01DC
:1014500083E08983DA01C9018827B7FD839599273D
:10146000AA27BB27B82E211531054105510519F4CE
:1014700082E089833AC08823A9F0203080E03807D1
:1014800080E0480780E8580729F460E070E080E0D9
:101490009FEC30C0EE24FF248701E21AF30A040B0C
:1014A000150B02C079018A018EE1C82ED12CDC8295
:1014B000CB82ED82FE820F831887C801B7010E949C
:1014C000D20A01971816190684F4082E04C0EE0CEF
:1014D000FF1C001F111F0A94D2F7ED82FE820F83BA
:1014E0001887C81AD90ADC82CB82BA82CE0101964B
:1014F0000E94210B2896E9E00C942B0EACE0B0E0A2
:10150000E4E8FAE00C94160E69837A838B839C835B
:10151000BE016B5F7F4FCE0101960E94F60B8D815D
:10152000823061F1823050F1843021F48E81882341
:1015300051F12EC02F81388537FD20C06E812F31AB
:1015400031051CF06623F9F023C08EE190E0821B88
:10155000930B29853A854B855C8504C05695479544
:10156000379527958A95D2F76623B1F05095409527
:10157000309521953F4F4F4F5F4F0EC020E030E038
:1015800040E050E009C02FEF3FEF4FEF5FE704C0AE
:1015900020E030E040E050E8B901CA012C96E2E0DA
:1015A0000C94320EEF92FF920F931F937B018C01EC
:1015B00080E0E81680E0F80681E0080780E0180780
:1015C00088F48FEFE816F1040105110531F028F0D9
:1015D00088E090E0A0E0B0E017C080E090E0A0E0FC
:1015E000B0E012C080E0E81680E0F80680E008076E
:1015F00081E0180728F088E190E0A0E0B0E004C0A6
:1016000080E190E0A0E0B0E020E230E040E050E097
:10161000281B390B4A0B5B0B04C016950795F794F2
:10162000E7948A95D2F7F701E759FF4F8081281B8D
:10163000310941095109C9011F910F91FF90EF90A4
:101640000895DF92EF92FF920F931F93FC01E480C5
:10165000F58006811781D1808081823048F480E056
:1016600090E0A0E1B0E0E82AF92A0A2B1B2BA5C0E4
:10167000843009F49FC0823021F4EE24FF248701D6
:1016800005C0E114F1040105110519F4E0E0F0E0F2
:1016900096C0628173819FEF623879070CF05BC05E
:1016A00022E83FEF261B370B2A3131052CF020E0D2
:1016B00030E040E050E02AC0B801A701022E04C08B
:1016C00076956795579547950A94D2F781E090E013
:1016D000A0E0B0E004C0880F991FAA1FBB1F2A9585
:1016E000D2F70197A109B1098E219F21A023B1232F
:1016F0000097A105B10521F081E090E0A0E0B0E005
:101700009A01AB01282B392B4A2B5B2BDA01C9013B
:101710008F779070A070B07080349105A105B105ED
:1017200039F427FF09C0205C3F4F4F4F5F4F04C083
:10173000215C3F4F4F4F5F4FE0E0F0E02030A0E0F2
:101740003A07A0E04A07A0E45A0710F0E1E0F0E011
:1017500079018A0127C06038710564F5FB01E15801
:10176000FF4FD801C7018F779070A070B0708034A0
:101770009105A105B10539F4E7FE0DC080E490E0C4
:10178000A0E0B0E004C08FE390E0A0E0B0E0E80E9D
:10179000F91E0A1F1B1F17FF05C016950795F79422
:1017A000E794319687E016950795F794E7948A9524
:1017B000D1F705C0EE24FF248701EFEFF0E06E2F94
:1017C000679566276795902F9F77D794DD24D794E8
:1017D0008E2F8695492F462B582F5D29B701CA01B8
:1017E0001F910F91FF90EF90DF900895FC01DB01B6
:1017F000408151812281622F6F7770E0221F222762
:10180000221F9381892F880F822B282F30E0991F68
:101810009927991F11969C93119721153105A9F5C8
:10182000411551056105710511F482E037C082E868
:101830009FEF13969C938E9312979A01AB0167E0EA
:10184000220F331F441F551F6A95D1F783E08C93F5
:101850000DC0220F331F441F551F12968D919C916E
:101860001397019713969C938E931297203080E0E4
:10187000380780E0480780E4580758F314962D9302
:101880003D934D935C93179708952F3F310579F45D
:10189000411551056105710519F484E08C93089593
:1018A00064FF03C081E08C9312C01C9210C02F57BC
:1018B000304013963C932E93129783E08C9387E0ED
:1018C000440F551F661F771F8A95D1F770641496D1
:1018D0004D935D936D937C93179708951F93DC014F
:1018E000FB019C91923008F447C08081823008F45B
:1018F00043C0943051F411961C91843099F5818144
:10190000682F70E0611B71093FC0843021F0923074
:1019100031F48230B9F18181882389F12DC011968B
:101920001C9111978230F1F081811817D9F4129629
:101930002D913C911397828193818217930794F0A4
:1019400028173907BCF014968D919D910D90BC918C
:10195000A02D2481358146815781281739074A07F0
:101960005B0718F4112341F00AC082179307A407FC
:10197000B50740F4112319F061E070E005C06FEF86
:101980007FEF02C060E070E0CB011F910895CF931C
:10199000DF93BC018230910510F462E070E0A09109
:1019A000A901B091AA01ED01E0E0F0E040E050E0D3
:1019B00021C0888199818617970769F48A819B8164
:1019C000309719F09383828304C09093AA01809387
:1019D000A901FE0134C06817790738F44115510593
:1019E00019F08417950708F4AC01FE018A819B81E8
:1019F0009C01E9012097E9F641155105A9F1CA01B9
:101A0000861B970B049708F4BA01E0E0F0E02AC0C7
:101A10008D919C91119784179507F9F464177507B8
:101A200081F412968D919C911397309719F09383BE
:101A3000828304C09093AA018093A901FD0132968C
:101A40004CC0CA01861B970BFD01E80FF91F61937B
:101A5000719302978D939C9340C0FD018281938185
:101A60009C01D9011097A1F68091A7019091A8013E
:101A7000892B41F480916B0190916C019093A801A6
:101A80008093A70140916D0150916E014115510560
:101A900041F44DB75EB78091690190916A01481B8E
:101AA000590B2091A7013091A801CA01821B930B09
:101AB0008617970780F0AB014E5F5F4F841795073D
:101AC00050F0420F531F5093A8014093A701F90112
:101AD0006193719302C0E0E0F0E0CF01DF91CF911C
:101AE0000895CF93DF93009709F450C0EC0122973B
:101AF0001B821A82A091A901B091AA01109709F145
:101B000040E050E0AC17BD0708F1BB83AA83FE019B
:101B100021913191E20FF31FAE17BF0779F48D9138
:101B20009C911197280F391F2E5F3F4F39832883CF
:101B300012968D919C9113979B838A834115510531
:101B400071F4D093AA01C093A90120C012968D917F
:101B50009C911397AD01009711F0DC01D3CFFA01EE
:101B6000D383C28321913191E20FF31FCE17DF0798
:101B700069F488819981280F391F2E5F3F4FFA0140
:101B8000318320838A819B8193838283DF91CF91EC
:101B9000089597FB092E05260ED057FD04D014D0CA
:101BA0000AD0001C38F450954095309521953F4F50
:101BB0004F4F5F4F0895F6F790958095709561951A
:101BC0007F4F8F4F9F4F0895A1E21A2EAA1BBB1B78
:101BD000FD010DC0AA1FBB1FEE1FFF1FA217B307F9
:101BE000E407F50720F0A21BB30BE40BF50B661F0F
:101BF000771F881F991F1A9469F7609570958095D3
:101C000090959B01AC01BD01CF0108952F923F92A9
:101C10004F925F926F927F928F929F92AF92BF92FC
:101C2000CF92DF92EF92FF920F931F93CF93DF93A8
:101C3000CDB7DEB7CA1BDB0B0FB6F894DEBF0FBE05
:101C4000CDBF09942A88398848885F846E847D8452
:101C50008C849B84AA84B984C884DF80EE80FD8054
:101C60000C811B81AA81B981CE0FD11D0FB6F894CA
:101C7000DEBF0FBECDBFED010895EE0FFF1F059033
:101C8000F491E02D099410E0C4E9D0E004C0FE0115
:101C90000E943F0E2296C639D107C9F7F894FFCFAC
:101CA0000100000000000000000001020203030325
:101CB00003040404040404040405050505050505DE
:101CC00005050505050505050506060606060606BD
:101CD00006060606060606060606060606060606A4
:101CE000060606060606060606070707070707078D
:101CF0000707070707070707070707070707070774
:101D00000707070707070707070707070707070763
:101D10000707070707070707070707070707070753
:101D2000070707070707070707080808080808083C
:101D30000808080808080808080808080808080823
:101D40000808080808080808080808080808080813
:101D50000808080808080808080808080808080803
:101D600008080808080808080808080808080808F3
:101D700008080808080808080808080808080808E3
:101D800008080808080808080808080808080808D3
:101D900008080808080808080808080808080808C3
:101DA0000808080808080808082000AB010000001F
:00000001FF
