:100000000C944B000C9473000C9473000C947300CC
:100010000C9473000C9473000C9473000C94730094
:100020000C9473000C9473000C9473000C94700483
:100030000C9473000C9473000C9473000C94730074
:100040000C94DA010C9473000C9473000C947300FC
:100050000C947300426F6E6A6F75720A00343A3600
:100060003A00343A353A00343A343A00343A333AC2
:1000700000343A323A00343A313A00323A343A00F3
:10008000323A333A00323A323A00323A313A0000E8
:10009000C100D302BA0011241FBECFE5D8E0DEBFF5
:1000A000CDBF10E0A0E6B0E0ECE2FEE002C00590BB
:1000B0000D92A836B107D9F710E0A8E6B0E001C06C
:1000C0001D92AA38B107E1F710E0C4E9D0E004C0FE
:1000D0002297FE010E940507C039D107C9F70E9487
:1000E000D7000C9409070C940000F8940C940000BD
:1000F0000895DF93CF9300D000D00F92CDB7DEB735
:100100009E012F5F3F4FD901E5E7F0E085E00190C8
:100110000D928150E1F7A5E7B0E0EAE7F0E085E075
:1001200001900D928150E1F7AAE7B0E0F90185E076
:1001300001900D928150E1F70F900F900F900F906A
:100140000F90CF91DF9108958130910531F0892B87
:1001500019F46F5F7F4F49F008956F5F7F4FE1F7AC
:1001600088E690E00E94DD02089588E690E00E9413
:10017000C20308956FEF7FEF80E090E00E94A4003B
:1001800008956FEF7FEF81E090E00E94A400089552
:100190000E9440020E94A0020E94C7040E9408021E
:1001A0000E94C3010E943F040E94DF0408950E9440
:1001B000C800C49804C082E390E00E94B4050E9485
:1001C0009A058132C1F784E590E00E94F70404C0EB
:1001D00082E390E00E94B4050E94BC010E949A054F
:1001E0008A32B1F7F8940C940000F2CFA89880916D
:1001F00060000E94480280916000803831F090E0F9
:10020000880F991F80936000089581E080936000BB
:10021000089586E790E00E94F70480E00E94D201F2
:1002200090E0A0E0B0E0BC01CD010E9403058AE0AF
:100230000E94E70481E790E00E94F70481E00E94B9
:10024000D20190E0A0E0B0E0BC01CD010E94030526
:100250008AE00E94E7048CE690E00E94F70482E0C6
:100260000E94D20190E0A0E0B0E0BC01CD010E946C
:1002700003058AE00E94E70487E690E00E94F70405
:1002800083E00E94D20190E0A0E0B0E0BC01CD018B
:100290000E9403058AE00E94E70482E690E00E9443
:1002A000F70484E00E94D20190E0A0E0B0E0BC013D
:1002B000CD010E9403058AE00E94E7048DE590E0ED
:1002C0000E94F70485E00E94D20190E0A0E0B0E037
:1002D000BC01CD010E9403058AE00E94E704089555
:1002E0008AE890E00E94F7040E942A02882389F19C
:1002F00082E30E94E7048AE00E94E70485E890E038
:100300000E94F7040E942E02882359F182E30E9482
:10031000E7048AE00E94E70480E890E00E94F70486
:100320000E9433028823C9F082E30E94E7048AE036
:100330000E94E7048BE790E00E94F7040E943902D4
:10034000882399F481E30E94E7048AE00E94E7048D
:10035000089581E30E94E704CECF81E30E94E70481
:10036000E6CF81E30E94E704D4CF82E30E94E70452
:100370008AE00E94E70408950E94F6000E9470013E
:100380000E94090108958AB3807C8ABB8BB3807C6C
:100390008BBB80E687B98DEC86B981E080936E00D7
:1003A00078940895E82FFF27E7FDF095E159FF4F76
:1003B000808108951F920F920FB60F9211248F9390
:1003C000EF93FF93E0916E00F0E085B1E159FF4FAC
:1003D000808380916E008530C1F080916E008F59CE
:1003E00087B980916E008F5F80936E0080916E0060
:1003F000863010F010926E00369AFF91EF918F9137
:100400000F900FBE0F901F90189580E687B9E9CF27
:10041000B898B998BA98BB98C098C198C298C39830
:100420000895B09915C092E0B19904C083E0989FF7
:10043000902D1124B29904C085E0989F902D11242D
:10044000B39904C087E0989F902D1124892F0895B7
:1004500091E0EACF86B380958170089586B3869542
:1004600080958170089586B3869586958095817074
:10047000089586B3869586958695809581700895B2
:1004800084B38FEF84BB95B385BBBC9AC49A08959F
:10049000809585BB0895FC017183608353834283FB
:1004A00024830895FC0171836083538342832483F2
:1004B0000895FC010190F081E02D118210820895D1
:1004C000DC01862F992787FD909597FD24C0ED913B
:1004D000FC911197982F83330CF092E38AE09802F5
:1004E000C001112491838083161694F41296ED9125
:1004F000FC911397208181E090E014960C9002C04B
:10050000880F991F0A94E2F78095822380830895CB
:10051000662329F40895909581959F4FD8CF129620
:10052000ED91FC911397208181E090E014960C905E
:1005300002C0880F991F0A94E2F7282B20830895A0
:100540008C9A8D9A8F9A8E9A83EA8FBD8FB580642C
:100550008FBD8FB580618FBD1BBC1ABC19BC18BC88
:100560001EBC8EB582608EBD22E330E097989698CF
:1005700087E08093790030937800209377008AE4B5
:1005800090E0909376008093750086E080937E00E3
:1005900030937D0020937C0088E490E090937B0072
:1005A00080937A000895089510928200109281003D
:1005B0001092800010927F00089510928200109295
:1005C00081001092800010927F00089520917F009A
:1005D000309180002115310511F0C9010895089569
:1005E000EF92FF920F931F93DF93CF93CDB7DEB7B8
:1005F0002A970FB6F894DEBF0FBECDBFE0917F0003
:10060000F0918000309741F17E010894E11CF11CCB
:100610009701AF0185E0DA010D90AD01D9010D928E
:100620009D018150C1F705811681CF010E946E06A0
:100630001093800000937F00DE011696F70185E09D
:1006400001900D928150E1F72E813F8148855985B7
:100650006A8570E090E000C02A960FB6F894DEBF7D
:100660000FBECDBFCF91DF911F910F91FF90EF9003
:100670000895DF93CF93CDB7DEB72A970FB6F894DE
:10068000DEBF0FBECDBF9C01E0917F00F0918000E6
:10069000309799F183819481861B970B9483838390
:1006A00018161906C4F4DE01119685E001900D922A
:1006B0008150E1F729813A814B815C816D8170E045
:1006C00080E090E02A960FB6F894DEBF0FBECDBF53
:1006D000CF91DF910895C9010E94F0022E833F83DC
:1006E000488759876A87DE011196FE01369685E0B4
:1006F00001900D928150E1F7DDCFE4CFCF92DF92F0
:10070000EF92FF920F931F93DF93CF93CDB7DEB796
:100710002A970FB6F894DEBF0FBECDBF8C01809133
:100720007F0090918000892BF1F06E010894C11C2C
:10073000D11C86E0E82EF12CEC0EFD1EC8010E94B3
:10074000F0022E833F83488759876A87D601F701D5
:1007500085E001900D928150E1F780917F009091AA
:100760008000892B59F72A960FB6F894DEBF0FBE8A
:10077000CDBFCF91DF911F910F91FF90EF90DF9050
:10078000CF9008950E947E0308950E947E030895ED
:10079000DF93CF9300D000D00F92CDB7DEB729837F
:1007A0003A834B835C836D8387E090E00E94C405AD
:1007B000DC0180917F0090918000892B19F1E091FC
:1007C0008100F0918200B683A5839D01AE014F5F49
:1007D0005F4F85E0FA010190AF01F90101929F019D
:1007E0008150C1F716961C921E921597B093820005
:1007F000A09381000F900F900F900F900F90CF91CA
:10080000DF910895B0938000A0937F00DECF0F9317
:10081000DF93CF9300D000D00F92CDB7DEB7742F07
:10082000402F69837A83522F2C833D830B839B0156
:100830006D810E94C8030F900F900F900F900F9042
:10084000CF91DF910F910895DF93CF9300D000D027
:100850000F92CDB7DEB769834A83522F2C833D8335
:100860001B82262F342F40E06D810E94C8030F9019
:100870000F900F900F900F90CF91DF91089581E02E
:1008800089BF80EF82BF84E083BF7894D69AD79ADD
:10089000DE98DF9881E0809384008093850008953E
:1008A00082E080938400089582E08093850008951B
:1008B00083E080938400089583E080938500089509
:1008C00081E080938400089581E0809385000895FD
:1008D00084E080938400089584E0809385000895E7
:1008E0001F920F920FB60F9211248F9380EF82BF49
:1008F000809183008232D9F180918300843269F142
:10090000809183008532F9F080918300863289F0EE
:10091000809183008F5F8093830080918300883271
:1009200011F4109283008F910F900FBE0F901F90C3
:100930001895809184008111DE988091850088232C
:1009400039F3DF98E5CF809184008430F1F0809115
:1009500085008430C9F6DF98D7CF8091840082303B
:1009600091F080918500823059F6DF98C9CF80914F
:100970008400823008F0DE9A80918500823008F48D
:10098000BBCFDF9AB9CFDE98ECCFDE98E0CF92985C
:10099000929A9398939A089580B3869586958095B8
:1009A0008170089580B3869586958695809581702F
:1009B00008958299FECF08958399FECF089588E126
:1009C0008AB986E880BD10BC8FE289B908955D9B25
:1009D000FECF8CB90895FC018081882339F05D9B9E
:1009E000FECF8CB9319680818823C9F70895FC0128
:1009F0008491882339F05D9BFECF8CB93196849128
:100A00008823C9F708955F926F927F928F929F9289
:100A1000AF92BF92CF92DF92EF92FF920F931F930C
:100A20003B014C0197FD63C05524A12C9AECB92ED3
:100A30009AE9C92E9BE3D92E8FEFE82E89ECF82E88
:100A40008AE9082F8BE3182F1FC089E0581609F197
:100A500053948AE05816E9F1C601B5012AE030E066
:100A600040E050E00E94C606C901DA015C016D0158
:100A7000C801B7012AE030E040E050E00E94C6061D
:100A8000C901DA017C018D01E614F7040805190596
:100A9000E4F6C401B301A60195010E94C606CA018D
:100AA000B9012AE030E040E050E00E94C60665301F
:100AB000E9F1663018F56230D9F1633028F561301C
:100AC000D9F080E35D9BFECF8CB953948AE0581631
:100AD00019F61F910F91FF90EF90DF90CF90BF908C
:100AE000AF909F908F907F906F905F9008955D9BE7
:100AF000FECF8DE28CB998CF81E3E4CF6730A1F0CF
:100B0000673040F486E3DECF633061F06430C9F6CD
:100B100084E3D8CF683021F0693099F689E3D2CFE9
:100B200088E3D0CF83E3CECF87E3CCCF85E3CACFB2
:100B300082E3C8CF5F9902C080E008958CB1089528
:100B40001816190684F460E070E040E058E420E0F4
:100B5000FA013197F1F72F5F2436D1F76F5F7F4F9E
:100B600068177907A4F308951816190664F420E0AD
:100B700030E043E357E0FA013197F1F72F5F3F4F41
:100B800028173907C4F30895CF93DF93BC0182304F
:100B9000910510F462E070E0A0918800B0918900A6
:100BA000ED01E0E0F0E040E050E021C08881998173
:100BB0008617970769F48A819B81309719F0938390
:100BC000828304C09093890080938800FE0134C022
:100BD0006817790738F44115510519F084179507FE
:100BE00008F4AC01FE018A819B819C01E9012097F8
:100BF000E9F641155105A9F1CA01861B970B049727
:100C000008F4BA01E0E0F0E02AC08D919C911197C0
:100C100084179507F9F46417750781F412968D917E
:100C20009C911397309719F09383828304C090931B
:100C3000890080938800FD0132964CC0CA01861B52
:100C4000970BFD01E80FF91F6193719302978D9344
:100C50009C9340C0FD01828193819C01D901109732
:100C6000A1F68091860090918700892B41F48091B4
:100C70006300909164009093870080938600409178
:100C80006500509166004115510541F44DB75EB7BE
:100C90008091610090916200481B590B2091860061
:100CA00030918700CA01821B930B8617970780F04B
:100CB000AB014E5F5F4F8417950750F0420F531FF3
:100CC0005093870040938600F9016193719302C0AD
:100CD000E0E0F0E0CF01DF91CF910895CF93DF9373
:100CE000009709F450C0EC0122971B821A82A09150
:100CF0008800B0918900109709F140E050E0AC17EE
:100D0000BD0708F1BB83AA83FE0121913191E20F57
:100D1000F31FAE17BF0779F48D919C911197280F9F
:100D2000391F2E5F3F4F3983288312968D919C91F6
:100D300013979B838A834115510571F4D0938900E1
:100D4000C093880020C012968D919C911397AD019D
:100D5000009711F0DC01D3CFFA01D383C283219134
:100D60003191E20FF31FCE17DF0769F48881998173
:100D7000280F391F2E5F3F4FFA01318320838A816C
:100D80009B8193838283DF91CF91089597FB092EF6
:100D900005260ED057FD04D014D00AD0001C38F41C
:100DA00050954095309521953F4F4F4F5F4F089597
:100DB000F6F790958095709561957F4F8F4F9F4F77
:100DC0000895A1E21A2EAA1BBB1BFD010DC0AA1F8C
:100DD000BB1FEE1FFF1FA217B307E407F50720F0A4
:100DE000A21BB30BE40BF50B661F771F881F991F1F
:100DF0001A9469F760957095809590959B01AC0168
:100E0000BD01CF010895EE0FFF1F0590F491E02D75
:100E1000099410E0C4E9D0E004C0FE010E94050777
:0C0E20002296C639D107C9F7F894FFCF1D
:080E2C000120008A0000000013
:00000001FF
