:100000000C943E000C9466000C9466000C94660000
:100010000C9466000C9466000C9466000C946600C8
:100020000C9466000C9466000C9466000C947E059B
:100030000C9466000C9466000C9466000C946600A8
:100040000C9497010C9466000C9466000C94660066
:100050000C946600426F6E6A6F75720A003A003443
:100060003A00323A343A00323A333A00323A323ACB
:1000700000323A313A00B400C003AD0011241FBE73
:10008000CFE5D8E0DEBFCDBF10E0A0E6B0E0EEE8FF
:10009000F0E102C005900D92A836B107D9F710E043
:1000A000A8E6B0E001C01D92A139B107E1F710E068
:1000B000CAE7D0E004C02297FE010E943608C63786
:1000C000D107C9F70E9463010C943A080C94000010
:1000D000F8940C9400000895DF93CF9300D000D0E3
:1000E0000F92CDB7DEB79E012F5F3F4FD901EEE7EC
:1000F000F0E085E001900D928150E1F7AEE7B0E0CD
:10010000E3E8F0E085E001900D928150E1F7A3E88B
:10011000B0E0F90185E001900D928150E1F70F9078
:100120000F900F900F900F90CF91DF910895813035
:10013000910531F0892B19F46F5F7F4F49F00895D5
:100140006F5F7F4FE1F788E690E00E94C703089554
:1001500088E690E00E945C0408956FEF7FEF80E0F6
:1001600090E00E94970008956FEF7FEF81E090E0AC
:100170000E94970008950E9456020E948E030E94DA
:1001800003060E94C5010E9483010E9425050E946A
:100190001B060895EF92FF920F931F93EE24FF2406
:1001A00087018FE590E00E943306C801B7010E94E5
:1001B00034068DE590E00E94330680E00E948F01B6
:1001C00090E0A0E0B0E0BC01CD010E9434068AE0DE
:1001D0000E9423060894E11CF11C011D111D88E0FA
:1001E000E816F10401051105E1F61F910F91FF904A
:1001F000EF90089581E790E00E9433060E94E901A4
:10020000882389F182E30E9423068AE00E94230664
:100210008CE690E00E9433060E94ED01882359F19C
:1002200082E30E9423068AE00E94230687E690E08C
:100230000E9433060E94F2018823C9F082E30E94E3
:1002400023068AE00E94230682E690E00E9433069D
:100250000E94F801882399F481E30E9423068AE032
:100260000E942306089581E30E942306CECF81E3F6
:100270000E942306E6CF81E30E942306D4CF82E3C7
:100280000E9423068AE00E9423060895809172004E
:10029000883079F08F5F8093720081E090E0009069
:1002A000720002C0880F991F0A94E2F70E945F0251
:1002B000089510927200F1CF0E9446010E94FA0048
:1002C0000E94CA0008950E94BB000E94210304C03E
:1002D00082E390E00E94E5060E94CB068132C1F7DE
:1002E00084E590E00E94330604C082E390E00E941F
:1002F000E5060E945C010E94CB068132B1F7F894BA
:100300000C940000F2CF8AB31ABA8BB31BBA80E602
:1003100087B98DEC86B91092730078940895E82F10
:10032000FF27E7FDF095EC58FF4F808108951F925D
:100330000F920FB60F9211248F93EF93FF93E091DA
:100340007300F0E085B1EC58FF4F8083809173001B
:100350008730C1F0809173008F5987B98091730005
:100360008F5F8093730080917300883010F010923B
:100370007300369AFF91EF918F910F900FBE0F90FF
:100380001F90189580E687B9E9CFB898B998BA98C0
:10039000BB98C098C198C298C3988F9A979A0895AD
:1003A000B09915C092E0B19904C083E0989F902D58
:1003B0001124B29904C085E0989F902D1124B3991F
:1003C00004C087E0989F902D1124892F089591E013
:1003D000EACF86B380958170089586B3869580951F
:1003E0008170089586B3869586958095817008956D
:1003F00086B3869586958695809581700895DF935E
:10040000CF930F92CDB7DEB760917C0070917D00E5
:1004100080916000909161006817790709F442C0EB
:10042000472F552720E030E040FF20C0AF9A1982C7
:1004300089818A3030F489818F5F898389818A300C
:10044000D0F3AE9A198289818A3030F489818F5F26
:10045000898389818A30D0F3AE982F5F3F4F203156
:10046000310531F05695479540FDE0CFAF98DFCF8D
:10047000198289818A3030F489818F5F89838981EB
:100480008A30D0F3C49A198289818A3030F4898104
:100490008F5F898389818A30D0F3C498709361001B
:1004A000609360000F90CF91DF910895A79AAF9865
:1004B000A69AAE98BC9AC4980E94FF010895109223
:1004C0007C0080937D000E94FF010895DF93CF930D
:1004D0000F92CDB7DEB7198289818A3030F48981D5
:1004E0008F5F898389818A30D0F30F90CF91DF911C
:1004F000089580917C0090917D00826090937D00B2
:1005000080937C000E94FF01089580917C0090916F
:100510007D008D7F90937D0080937C000E94FF0181
:10052000089580917C0090917D00846090937D007F
:1005300080937C000E94FF01089580917C0090913F
:100540007D008B7F90937D0080937C000E94FF0153
:10055000089580917C0090917D00886090937D004B
:1005600080937C000E94FF01089580917C0090910F
:100570007D00877F90937D0080937C000E94FF0127
:10058000089580917C0090917D00806190937D0022
:1005900080937C000E94FF01089580917C009091DF
:1005A0007D008F7E90937D0080937C000E94FF01F0
:1005B000089580917C0090917D00806290937D00F1
:1005C00080937C000E94FF01089580917C009091AF
:1005D0007D008F7D90937D0080937C000E94FF01C1
:1005E000089580917C0090917D00806490937D00BF
:1005F00080937C000E94FF01089580917C0090917F
:100600007D008F7B90937D0080937C000E94FF0192
:10061000089580917C0090917D00806890937D008A
:1006200080937C000E94FF01089580917C0090914E
:100630007D008F7790937D0080937C000E94FF0166
:10064000089580917C0090917D00916090937D0051
:1006500080937C000E94FF01089580917C0090911E
:100660007D009E7F90937D0080937C000E94FF011F
:100670000895FC017183608353834283248308952A
:10068000FC01718360835383428324830895FC01BA
:100690000190F081E02D118210820895DC01862FF7
:1006A000992787FD909597FD24C0ED91FC911197B6
:1006B000982F83330CF092E38AE09802C001112452
:1006C00091838083161694F41296ED91FC91139702
:1006D000208181E090E014960C9002C0880F991F51
:1006E0000A94E2F78095822380830895662329F493
:1006F0000895909581959F4FD8CF1296ED91FC91DA
:100700001397208181E090E014960C9002C0880F2E
:10071000991F0A94E2F7282B208308958C9A8D9ACA
:10072000A09AA19A83EA8FBD8FB580648FBD8FB5E3
:1007300080618FBD1BBC1ABC19BC18BC1EBC8EB519
:1007400082608EBD25E330E0A898A99810928200BF
:1007500030938100209380008AE490E090937F00A2
:1007600080937E0081E08093870030938600209301
:10077000850088E490E0909384008093830008953E
:100780000895FC0113821282118210820895FC01E7
:1007900013821282118210820895CF92DF92EF921B
:1007A000FF920F931F93DF93CF93CDB7DEB72C97B4
:1007B0000FB6F894DEBF0FBECDBF7C01DC01ED911A
:1007C000FC91309739F16E010894C11CD11C96013F
:1007D000AF0186E0DA010D90AD01D9010D929D01C6
:1007E0008150C1F706811781CF010E949F07F70151
:1007F00011830083DE011796F60186E001900D92C9
:100800008150E1F72F81388549855A856B857C8534
:1008100090E000C02C960FB6F894DEBF0FBECDBF9F
:10082000CF91DF911F910F91FF90EF90DF90CF90CC
:100830000895CF92DF92EF92FF920F931F93DF9371
:10084000CF93CDB7DEB72C970FB6F894DEBF0FBEAF
:10085000CDBF8C01FC0180819181892BF1F06E016B
:100860000894C11CD11C87E0E82EF12CEC0EFD1E73
:10087000C8010E94CD032F83388749875A876B8729
:100880007C87D601F70186E001900D928150E1F757
:10089000F80180819181892B59F72C960FB6F89435
:1008A000DEBF0FBECDBFCF91DF911F910F91FF90A3
:1008B000EF90DF90CF9008950E94190408950E9450
:1008C00019040895AF92BF92CF92DF92EF92FF92F8
:1008D0000F931F93DF93CF93CDB7DEB72C970FB64F
:1008E000F894DEBF0FBECDBF6C01DC01ED91FC9131
:1008F0003097A1F184819581861B970B9583848322
:100900005E010894A11CB11C9501AF0186E0DA01DB
:100910000D90AD01D9010D929D018150C1F7ED807F
:10092000FE801E141F0444F006811781CF010E942F
:100930009F07F60111830083FE82ED82DE01179688
:10094000F50186E001900D928150E1F72F81388505
:1009500049855A856B857C8590E000C02C960FB642
:10096000F894DEBF0FBECDBFCF91DF911F910F91E5
:10097000FF90EF90DF90CF90BF90AF9008950F93CE
:100980001F93DF93CF9300D000D000D0CDB7DEB758
:100990008C0129833A834B835C836D837E8388E05B
:1009A00090E00E94F506DC01F80180819181892B9D
:1009B00029F1F80182819381FC01B783A6839D010F
:1009C000AE014F5F5F4F86E0FA010190AF01F90180
:1009D00001929F018150C1F717961C921E921697A3
:1009E000F801B383A28326960FB6F894DEBF0FBE3C
:1009F000CDBFCF91DF911F910F910895B183A08357
:100A0000DECFDF93CF9300D000D000D0CDB7DEB7DC
:100A1000772767FD7095E62F7A836983552747FD11
:100A200050955C834B83622F2D833E832E2F3A811A
:100A30005C817E810E94BF0426960FB6F894DEBFCB
:100A40000FBECDBFCF91DF91089581E089BF80EFC8
:100A500082BF84E083BF7894A29AA39AA49AA59AAD
:100A6000AA98AB98AC98AD9881E080938900809368
:100A70008A0080938B0080938C00089582E080939D
:100A80008900089582E080938A00089582E080932F
:100A90008B00089582E080938C00089583E080931A
:100AA0008900089583E080938A00089583E080930D
:100AB0008B00089583E080938C00089581E08093FB
:100AC0008900089581E080938A00089581E08093F1
:100AD0008B00089581E080938C00089584E08093DA
:100AE0008900089584E080938A00089584E08093CB
:100AF0008B00089584E080938C0008951F920F92DC
:100B00000FB60F9211248F9380EF82BF80918800DF
:100B1000823209F456C080918800843209F43EC0C4
:100B200080918800853239F180918800863289F081
:100B3000809188008F5F8093880080918800883240
:100B400011F4109288008F910F900FBE0F901F909C
:100B50001895809189008111AA9880918A0081114D
:100B6000AB9880918B008111AC9880918C00882388
:100B7000F9F2AD98DDCF80918900843009F441C04D
:100B800080918A008430D9F180918B008430A9F162
:100B900080918C00843041F6AC98C6CF809189005A
:100BA000823039F180918A00823009F180918B0086
:100BB000823009F180918C00823009F0B1CFAD987C
:100BC000AFCF80918900823008F0AA9A80918A0084
:100BD000823008F0AB9A80918B00823008F0AC9A9A
:100BE00080918C00823008F496CFAD9A94CFAB9868
:100BF000DDCFAA98D7CFAC98DDCFAD98C9CFAB9851
:100C0000C3CFAA98BDCF9298929A9398939A089539
:100C100080B38695869580958170089580B386957A
:100C2000869586958095817008958299FECF089566
:100C30008399FECF089588E18AB986E880BD10BC0B
:100C40008FE289B908955D9BFECF8CB90895FC01B0
:100C50008081882339F05D9BFECF8CB931968081ED
:100C60008823C9F7089508955F926F927F928F92BB
:100C70009F92AF92BF92CF92DF92EF92FF920F932B
:100C80001F933B014C0197FD63C05524A12C9AECA6
:100C9000B92E9AE9C92E9BE3D92E8FEFE82E89EC65
:100CA000F82E8AE9082F8BE3182F1FC089E0581609
:100CB00009F153948AE05816E9F1C601B5012AE01A
:100CC00030E040E050E00E94F707C901DA015C0122
:100CD0006D01C801B7012AE030E040E050E00E9419
:100CE000F707C901DA017C018D01E614F704080554
:100CF0001905E4F6C401B301A60195010E94F707A6
:100D0000CA01B9012AE030E040E050E00E94F70754
:100D10006530E9F1663018F56230D9F1633028F5B5
:100D20006130D9F080E35D9BFECF8CB953948AE0AB
:100D3000581619F61F910F91FF90EF90DF90CF900A
:100D4000BF90AF909F908F907F906F905F9008952D
:100D50005D9BFECF8DE28CB998CF81E3E4CF673005
:100D6000A1F0673040F486E3DECF633061F0643099
:100D7000C9F684E3D8CF683021F0693099F689E369
:100D8000D2CF88E3D0CF83E3CECF87E3CCCF85E348
:100D9000CACF82E3C8CF5F9902C080E008958CB1CA
:100DA00008951816190684F460E070E040E058E4F5
:100DB00020E0FA013197F1F72F5F2436D1F76F5F0A
:100DC0007F4F68177907A4F308951816190664F47D
:100DD00020E030E043E357E0FA013197F1F72F5F6D
:100DE0003F4F28173907C4F30895CF93DF93BC0111
:100DF0008230910510F462E070E0A0918F00B09114
:100E00009000ED01E0E0F0E040E050E021C088819A
:100E100099818617970769F48A819B81309719F029
:100E20009383828304C09093900080938F00FE018F
:100E300034C06817790738F44115510519F0841743
:100E4000950708F4AC01FE018A819B819C01E901B0
:100E50002097E9F641155105A9F1CA01861B970BA8
:100E6000049708F4BA01E0E0F0E02AC08D919C916B
:100E7000119784179507F9F46417750781F4129692
:100E80008D919C911397309719F09383828304C0BE
:100E90009093900080938F00FD0132964CC0CA0160
:100EA000861B970BFD01E80FF91F61937193029761
:100EB0008D939C9340C0FD01828193819C01D90157
:100EC0001097A1F680918D0090918E00892B41F4AE
:100ED000809164009091650090938E0080938D00C6
:100EE00040916600509167004115510541F44DB79E
:100EF0005EB78091620090916300481B590B20916E
:100F00008D0030918E00CA01821B930B86179707C4
:100F100080F0AB014E5F5F4F8417950750F0420F92
:100F2000531F50938E0040938D00F901619371938C
:100F300002C0E0E0F0E0CF01DF91CF910895CF93C0
:100F4000DF93009709F450C0EC0122971B821A82AC
:100F5000A0918F00B0919000109709F140E050E00F
:100F6000AC17BD0708F1BB83AA83FE012191319123
:100F7000E20FF31FAE17BF0779F48D919C91119783
:100F8000280F391F2E5F3F4F3983288312968D918A
:100F90009C9113979B838A834115510571F4D093DB
:100FA0009000C0938F0020C012968D919C91139752
:100FB000AD01009711F0DC01D3CFFA01D383C283D6
:100FC00021913191E20FF31FCE17DF0769F4888179
:100FD0009981280F391F2E5F3F4FFA0131832083FB
:100FE0008A819B8193838283DF91CF91089597FBC0
:100FF000092E05260ED057FD04D014D00AD0001CAF
:1010000038F450954095309521953F4F4F4F5F4FA5
:101010000895F6F790958095709561957F4F8F4F65
:101020009F4F0895A1E21A2EAA1BBB1BFD010DC004
:10103000AA1FBB1FEE1FFF1FA217B307E407F50788
:1010400020F0A21BB30BE40BF50B661F771F881F64
:10105000991F1A9469F760957095809590959B01FA
:10106000AC01BD01CF010895EE0FFF1F0590F49173
:10107000E02D099410E0CAE7D0E004C0FE010E9410
:0E10800036082296CC37D107C9F7F894FFCF77
:08108E00FF00200091000000AA
:00000001FF
