:100000000C9446000C946E000C946E000C946E00E0
:100010000C946E000C946E000C946E000C946E00A8
:100020000C946E000C946E000C946E000C942704DB
:100030000C946E000C946E000C946E000C946E0088
:100040000C946E000C946E000C946E000C946E0078
:100050000C946E00343A363A00343A353A00343A69
:10006000343A00343A333A00343A323A00343A31CE
:100070003A00323A343A00323A333A00323A323ABB
:1000800000323A313A00BC009102B50011241FBE83
:10009000CFE5D8E0DEBFCDBF10E0A0E6B0E0EAE9F2
:1000A000FDE002C005900D92A836B107D9F710E027
:1000B000A8E6B0E001C01D92A438B107E1F710E056
:1000C000CAE8D0E004C02297FE010E94BC06C638F0
:1000D000D107C9F70E94D2000C94C0060C9400000E
:1000E000F8940C9400000895DF93CF9300D000D0D3
:1000F0000F92CDB7DEB79E012F5F3F4FD901E3E7E7
:10010000F0E085E001900D928150E1F7A3E7B0E0C7
:10011000E8E7F0E085E001900D928150E1F7A8E773
:10012000B0E0F90185E001900D928150E1F70F9068
:100130000F900F900F900F90CF91DF910895813025
:10014000910531F0892B19F46F5F7F4F49F00895C5
:100150006F5F7F4FE1F788E690E00E949802089574
:1001600088E690E00E942D0308956FEF7FEF80E016
:1001700090E00E949F0008956FEF7FEF81E090E094
:100180000E949F0008950E94FE010E945E020E944C
:100190007E040E94C6010E94B6010E94F6030E94DE
:1001A000960408951F930E94C300C498A89882E003
:1001B00090E00E945705A99811E085B3812785BB7F
:1001C00082E390E00E946B05F8CF80E00E94C501B9
:1001D000833708F468C0C49A8DE690E00E94AE04AC
:1001E00080E00E94C50190E0A0E0B0E0BC01CD013C
:1001F0000E94BA048AE00E949E0488E690E00E9471
:10020000AE0481E00E94C50190E0A0E0B0E0BC0136
:10021000CD010E94BA048AE00E949E0483E690E029
:100220000E94AE0482E00E94C50190E0A0E0B0E030
:10023000BC01CD010E94BA048AE00E949E048EE5B2
:1002400090E00E94AE0483E00E94C50190E0A0E02F
:10025000B0E0BC01CD010E94BA048AE00E949E0475
:1002600089E590E00E94AE0484E00E94C50190E020
:10027000A0E0B0E0BC01CD010E94BA048AE00E9477
:100280009E0484E590E00E94AE0485E00E94C501D2
:1002900090E0A0E0B0E0BC01CD010E94BA048AE089
:1002A0000E949E040895C49897CF81E890E00E9430
:1002B000AE040E94E801882389F182E30E949E0433
:1002C0008AE00E949E048CE790E00E94AE040E94A7
:1002D000EC01882359F182E30E949E048AE00E9487
:1002E0009E0487E790E00E94AE040E94F1018823FB
:1002F000C9F082E30E949E048AE00E949E0482E785
:1003000090E00E94AE040E94F701882399F481E3F3
:100310000E949E048AE00E949E04089581E30E9448
:100320009E04CECF81E30E949E04E6CF81E30E942B
:100330009E04D4CF82E30E949E048AE00E949E0421
:100340000895809160000E940602809160008038CC
:1003500031F090E0880F991F80936000089581E04C
:100360008093600008950E94A10108958AB3807C63
:100370008ABB8BB3807C8BBB80E687B98DEC86B95A
:1003800081E080937200789408950895B898B998A0
:10039000BA98BB98C098C198C298C3980895B0996C
:1003A00015C092E0B19904C083E0989F902D11246C
:1003B000B29904C085E0989F902D1124B39904C090
:1003C00087E0989F902D1124892F089591E0EACF1E
:1003D00086B380958170089586B3869580958170E7
:1003E000089586B38695869580958170089586B325
:1003F00086958695869580958170089584B38FEF54
:1004000084BB95B385BBBC9AC49A0895809585BB7F
:100410000895FC017183608353834283248308958C
:10042000FC01718360835383428324830895FC011C
:100430000190F081E02D118210820895DC01862F59
:10044000992787FD909597FD24C0ED91FC91119718
:10045000982F83330CF092E38AE09802C0011124B4
:1004600091838083161694F41296ED91FC91139764
:10047000208181E090E014960C9002C0880F991FB3
:100480000A94E2F78095822380830895662329F4F5
:100490000895909581959F4FD8CF1296ED91FC913C
:1004A0001397208181E090E014960C9002C0880F91
:1004B000991F0A94E2F7282B208308958C9A8D9A2D
:1004C0008F9A8E9A83EA8FBD8FB580648FBD8FB56A
:1004D00080618FBD1BBC1ABC19BC18BC1EBC8EB57C
:1004E00082608EBD22E330E09798969887E08093F3
:1004F000770030937600209375008AE490E0909323
:1005000074008093730086E080937C0030937B00BE
:1005100020937A0088E490E09093790080937800AB
:1005200008950895FC0113821282118210820895A9
:10053000FC0113821282118210820895CF92DF9201
:10054000EF92FF920F931F93DF93CF93CDB7DEB758
:100550002C970FB6F894DEBF0FBECDBF7C01DC0137
:10056000ED91FC91309739F16E010894C11CD11CBA
:100570009601AF0186E0DA010D90AD01D9010D922F
:100580009D018150C1F706811781CF010E94250688
:10059000F70111830083DE011796F60186E00190D2
:1005A0000D928150E1F72F81388549855A856B85F9
:1005B0007C8590E000C02C960FB6F894DEBF0FBE8D
:1005C000CDBFCF91DF911F910F91FF90EF90DF9002
:1005D000CF900895CF92DF92EF92FF920F931F93E7
:1005E000DF93CF93CDB7DEB72C970FB6F894DEBF6D
:1005F0000FBECDBF8C01FC0180819181892BF1F070
:100600006E010894C11CD11C87E0E82EF12CEC0E81
:10061000FD1EC8010E949E022F83388749875A8792
:100620006B877C87D601F70186E001900D9281509F
:10063000E1F7F80180819181892B59F72C960FB64B
:10064000F894DEBF0FBECDBFCF91DF911F910F9108
:10065000FF90EF90DF90CF9008950E94EA020895F6
:100660000E94EA020895AF92BF92CF92DF92EF927A
:10067000FF920F931F93DF93CF93CDB7DEB72C97E5
:100680000FB6F894DEBF0FBECDBF6C01DC01ED915B
:10069000FC913097A1F184819581861B970B9583FE
:1006A00084835E010894A11CB11C9501AF0186E012
:1006B000DA010D90AD01D9010D929D018150C1F774
:1006C000ED80FE801E141F0444F006811781CF01C7
:1006D0000E942506F60111830083FE82ED82DE0171
:1006E0001796F50186E001900D928150E1F72F8178
:1006F000388549855A856B857C8590E000C02C96AD
:100700000FB6F894DEBF0FBECDBFCF91DF911F9122
:100710000F91FF90EF90DF90CF90BF90AF90089532
:100720000F931F93DF93CF9300D000D000D0CDB7AD
:10073000DEB78C0129833A834B835C836D837E8390
:1007400088E090E00E947B05DC01F80180819181C6
:10075000892B29F1F80182819381FC01B783A6835B
:100760009D01AE014F5F5F4F86E0FA010190AF013E
:10077000F90101929F018150C1F717961C921E92B8
:100780001697F801B383A28326960FB6F894DEBFBE
:100790000FBECDBFCF91DF911F910F910895B1830F
:1007A000A083DECFDF93CF9300D000D000D0CDB7B1
:1007B000DEB7772767FD7095E62F7A836983552723
:1007C00047FD50955C834B83622F2D833E832E2FF4
:1007D0003A815C817E810E94900326960FB6F89440
:1007E000DEBF0FBECDBFCF91DF91089581E089BFFD
:1007F00080EF82BF84E083BF7894D69AD79ADE9840
:10080000DF9881E080937E0080937F00089582E0EE
:1008100080937E00089582E080937F00089583E0B6
:1008200080937E00089583E080937F00089581E0A7
:1008300080937E00089581E080937F00089584E096
:1008400080937E00089584E080937F0008951F9236
:100850000F920FB60F9211248F9380EF82BF809179
:100860007D008232D9F180917D00843269F18091DE
:100870007D008532F9F080917D00863289F080918B
:100880007D008F5F80937D0080917D00883211F420
:1008900010927D008F910F900FBE0F901F901895B2
:1008A00080917E008111DE9880917F00882339F34A
:1008B000DF98E5CF80917E008430F1F080917F0059
:1008C0008430C9F6DF98D7CF80917E00823091F0D6
:1008D00080917F00823059F6DF98C9CF80917E00E9
:1008E000823008F0DE9A80917F00823008F4BBCF1E
:1008F000DF9AB9CFDE98ECCFDE98E0CF9298929A4B
:100900009398939A089580B3869586958095817083
:10091000089580B386958695869580958170089513
:100920008299FECF08958399FECF089588E18AB910
:1009300086E880BD10BC8FE289B908955D9BFECF2B
:100940008CB90895FC018081882339F05D9BFECF2E
:100950008CB9319680818823C9F70895FC01849170
:10096000882339F05D9BFECF8CB931968491882322
:10097000C9F708955F926F927F928F929F92AF9284
:10098000BF92CF92DF92EF92FF920F931F933B01A2
:100990004C0197FD63C05524A12C9AECB92E9AE91D
:1009A000C92E9BE3D92E8FEFE82E89ECF82E8AE929
:1009B000082F8BE3182F1FC089E0581609F15394B4
:1009C0008AE05816E9F1C601B5012AE030E040E0BE
:1009D00050E00E947D06C901DA015C016D01C80189
:1009E000B7012AE030E040E050E00E947D06C901F6
:1009F000DA017C018D01E614F70408051905E4F617
:100A0000C401B301A60195010E947D06CA01B90186
:100A10002AE030E040E050E00E947D066530E9F1D8
:100A2000663018F56230D9F1633028F56130D9F0BD
:100A300080E35D9BFECF8CB953948AE0581619F67B
:100A40001F910F91FF90EF90DF90CF90BF90AF90EC
:100A50009F908F907F906F905F9008955D9BFECFE9
:100A60008DE28CB998CF81E3E4CF6730A1F0673095
:100A700040F486E3DECF633061F06430C9F684E38E
:100A8000D8CF683021F0693099F689E3D2CF88E376
:100A9000D0CF83E3CECF87E3CCCF85E3CACF82E349
:100AA000C8CF5F9902C080E008958CB108951816F0
:100AB000190684F460E070E040E058E420E0FA01B8
:100AC0003197F1F72F5F2436D1F76F5F7F4F6817AB
:100AD0007907A4F308951816190664F420E030E0AD
:100AE00043E357E0FA013197F1F72F5F3F4F2817A3
:100AF0003907C4F30895CF93DF93BC018230910589
:100B000010F462E070E0A0918200B0918300ED01EA
:100B1000E0E0F0E040E050E021C088819981861754
:100B2000970769F48A819B81309719F093838283B8
:100B300004C09093830080938200FE0134C0681744
:100B4000790738F44115510519F08417950708F411
:100B5000AC01FE018A819B819C01E9012097E9F6A5
:100B600041155105A9F1CA01861B970B049708F49A
:100B7000BA01E0E0F0E02AC08D919C9111978417B2
:100B80009507F9F46417750781F412968D919C917D
:100B90001397309719F09383828304C09093830056
:100BA00080938200FD0132964CC0CA01861B970BD0
:100BB000FD01E80FF91F6193719302978D939C9348
:100BC00040C0FD01828193819C01D9011097A1F65B
:100BD0008091800090918100892B41F48091630085
:100BE0009091640090938100809380004091650013
:100BF000509166004115510541F44DB75EB78091A3
:100C0000610090916200481B590B20918000309147
:100C10008100CA01821B930B8617970780F0AB01F6
:100C20004E5F5F4F8417950750F0420F531F50934C
:100C3000810040938000F9016193719302C0E0E06C
:100C4000F0E0CF01DF91CF910895CF93DF9300972C
:100C500009F450C0EC0122971B821A82A0918200F5
:100C6000B0918300109709F140E050E0AC17BD0748
:100C700008F1BB83AA83FE0121913191E20FF31F9A
:100C8000AE17BF0779F48D919C911197280F391FEA
:100C90002E5F3F4F3983288312968D919C91139735
:100CA0009B838A834115510571F4D0938300C093CF
:100CB000820020C012968D919C911397AD010097F0
:100CC00011F0DC01D3CFFA01D383C283219131919A
:100CD000E20FF31FCE17DF0769F488819981280F8F
:100CE000391F2E5F3F4FFA01318320838A819B8118
:100CF00093838283DF91CF91089597FB092E052678
:100D00000ED057FD04D014D00AD0001C38F45095F2
:100D10004095309521953F4F4F4F5F4F0895F6F71F
:100D200090958095709561957F4F8F4F9F4F089557
:100D3000A1E21A2EAA1BBB1BFD010DC0AA1FBB1FDF
:100D4000EE1FFF1FA217B307E407F50720F0A21B51
:100D5000B30BE40BF50B661F771F881F991F1A94BE
:100D600069F760957095809590959B01AC01BD01E8
:100D7000CF010895EE0FFF1F0590F491E02D099427
:100D800010E0CAE8D0E004C0FE010E94BC06229632
:0A0D9000CC38D107C9F7F894FFCF63
:080D9A000120008400000000AC
:00000001FF
