:100000000C944B000C9473000C9473000C947300CC
:100010000C9473000C9473000C9473000C94730094
:100020000C9473000C9473000C9473000C94FE04F5
:100030000C9473000C9473000C9473000C94730074
:100040000C9466020C9473000C9473000C9473006F
:100050000C947300426F6E6A6F75720A00343A3600
:100060003A00343A353A00343A343A00343A333AC2
:1000700000343A323A00343A313A00323A343A00F3
:10008000323A333A00323A323A00323A313A0000E8
:10009000C1006103BA0011241FBECFE5D8E0DEBF66
:1000A000CDBF11E0A0E6B0E0EAEFF8E102C00590B4
:1000B0000D92A037B107D9F711E0A0E7B1E001C078
:1000C0001D92A73BB107E1F710E0C4E9D0E004C0FE
:1000D0002297FE010E946C0CC039D107C9F70E941B
:1000E000D7000C94700C0C940000F8940C94000051
:1000F0000895DF93CF9300D000D00F92CDB7DEB735
:100100009E012F5F3F4FD901E2EAF1E085E00190C7
:100110000D928150E1F7A2EAB1E0E7EAF1E085E073
:1001200001900D928150E1F7A7EAB1E0F90185E075
:1001300001900D928150E1F70F900F900F900F906A
:100140000F90CF91DF9108958130910531F0892B87
:1001500019F46F5F7F4F49F008956F5F7F4FE1F7AC
:1001600080E791E00E946B03089580E791E00E9490
:10017000500408956FEF7FEF80E090E00E94A400AC
:1001800008956FEF7FEF81E090E00E94A400089552
:100190000E94CE020E942E030E9455050E949602E4
:1001A0000E94D2010E94CD040E946D0508950E9414
:1001B000C800C49804C082E390E00E9442060E94F6
:1001C00028068132C1F784E590E00E94850504C0CD
:1001D00082E390E00E9442060E94C2010E9428062B
:1001E0008A32B1F7F8940C940000F2CFA89880916D
:1001F00060000E94D60280916000803831F090E06B
:10020000880F991F80936000089581E080936000BB
:10021000089586E790E00E94850580E00E940A022A
:10022000AA2797FDA095BA2FBC01CD010E94910588
:100230008AE00E94750581E790E00E94850581E0D3
:100240000E940A02AA2797FDA095BA2FBC01CD01F2
:100250000E9491058AE00E9475058CE690E00E945C
:10026000850582E00E940A02AA2797FDA095BA2F71
:10027000BC01CD010E9491058AE00E94750587E6C8
:1002800090E00E94850583E00E940A02AA2797FD5C
:10029000A095BA2FBC01CD010E9491058AE00E9471
:1002A000750582E690E00E94850584E00E940A02BE
:1002B000AA2797FDA095BA2FBC01CD010E949105F8
:1002C0008AE00E9475058DE590E00E94850585E035
:1002D0000E940A02AA2797FDA095BA2FBC01CD0162
:1002E0000E9491058AE00E94750508958AE890E0D1
:1002F0000E9485050E94B802882389F182E30E944A
:1003000075058AE00E94750585E890E00E948505E4
:100310000E94BC02882359F182E30E9475058AE09D
:100320000E94750580E890E00E9485050E94C10248
:100330008823C9F082E30E9475058AE00E94750552
:100340008BE790E00E9485050E94C702882399F4FC
:1003500081E30E9475058AE00E947505089581E396
:100360000E947505CECF81E30E947505E6CF81E33B
:100370000E947505D4CF82E30E9475058AE00E9431
:10038000750508950E94F6000E9476010E940901F9
:100390006EE170E080E090E00E9491058AE00E94AA
:1003A000750508958AB3807C8ABB8BB3807C8BBB38
:1003B00080E687B98DEC86B9109271018091710148
:1003C000863018F520E030E040E85FE3E09171010D
:1003D000F0E0EE0FFF1FEE58FE4F11821082E09109
:1003E0007101F0E0EE0FFF1FEE0FFF1FE657FE4F0B
:1003F0002083318342835383809171018F5F809387
:10040000710180917101863008F381E08093710160
:1004100078940895E82FFF27E7FDF095EE0FFF1F72
:10042000EE58FE4F8081918108958F929F92AF92F6
:10043000BF92CF92DF92EF92FF920F931F938B01A7
:10044000FB01EE0FFF1FEE0FFF1FE657FE4F22E5E9
:1004500039E44DE959E360817181828193810E9481
:10046000CF076B017C01000F111F0E581E4FF801C2
:1004700060817181882777FD8095982F0E94A6085A
:100480004B015C012DEC3CEC4CE45DE3C701B60193
:100490000E94CF079B01AC01C701B6010E94FC0777
:1004A0009B01AC01C501B4010E94CF070E94040961
:1004B000F801718360831F910F91FF90EF90DF909F
:1004C000CF90BF90AF909F908F9008951F920F9202
:1004D0000FB60F9211246F937F938F939F93609128
:1004E000710185B170E090E00E9415028091710168
:1004F0008530C9F0809171018F5987B98091710160
:100500008F5F8093710180917101863010F010929D
:100510007101369A9F918F917F916F910F900FBECD
:100520000F901F90189580E687B9E8CFB898B998D2
:10053000BA98BB98C098C198C298C3980895B099CA
:1005400015C092E0B19904C083E0989F902D1124CA
:10055000B29904C085E0989F902D1124B39904C0EE
:1005600087E0989F902D1124892F089591E0EACF7C
:1005700086B380958170089586B386958095817045
:10058000089586B38695869580958170089586B383
:1005900086958695869580958170089584B38FEFB2
:1005A00084BB95B385BBBC9AC49A0895809585BBDE
:1005B0000895FC01718360835383428324830895EB
:1005C000FC01718360835383428324830895FC017B
:1005D0000190F081E02D118210820895DC01862FB8
:1005E000992787FD909597FD24C0ED91FC91119777
:1005F000982F83330CF092E38AE09802C001112413
:1006000091838083161694F41296ED91FC911397C2
:10061000208181E090E014960C9002C0880F991F11
:100620000A94E2F78095822380830895662329F453
:100630000895909581959F4FD8CF1296ED91FC919A
:100640001397208181E090E014960C9002C0880FEF
:10065000991F0A94E2F7282B208308958C9A8D9A8B
:100660008F9A8E9A83EA8FBD8FB580648FBD8FB5C8
:1006700080618FBD1BBC1ABC19BC18BC1EBC8EB5DA
:1006800082608EBD22E330E09798969887E0809351
:10069000A6013093A5012093A4018AE490E09093F1
:1006A000A3018093A20186E08093AB013093AA015D
:1006B0002093A90188E490E09093A8018093A7017A
:1006C000089508951092AF011092AE011092AD01FD
:1006D0001092AC0108951092AF011092AE011092E9
:1006E000AD011092AC0108952091AC013091AD01A3
:1006F0002115310511F0C90108950895EF92FF9277
:100700000F931F93DF93CF93CDB7DEB72A970FB622
:10071000F894DEBF0FBECDBFE091AC01F091AD010A
:10072000309741F17E010894E11CF11C9701AF0163
:1007300085E0DA010D90AD01D9010D929D01815046
:10074000C1F705811681CF010E949E0B1093AD0168
:100750000093AC01DE011696F70185E001900D9241
:100760008150E1F72E813F81488559856A8570E087
:1007700090E000C02A960FB6F894DEBF0FBECDBF42
:10078000CF91DF911F910F91FF90EF900895DF932C
:10079000CF93CDB7DEB72A970FB6F894DEBF0FBE62
:1007A000CDBF9C01E091AC01F091AD01309799F182
:1007B00083819481861B970B948383831816190673
:1007C000C4F4DE01119685E001900D928150E1F7AD
:1007D00029813A814B815C816D8170E080E090E0FD
:1007E0002A960FB6F894DEBF0FBECDBFCF91DF9132
:1007F0000895C9010E947E032E833F83488759874D
:100800006A87DE011196FE01369685E001900D9211
:100810008150E1F7DDCFE4CFCF92DF92EF92FF92EC
:100820000F931F93DF93CF93CDB7DEB72A970FB601
:10083000F894DEBF0FBECDBF8C018091AC019091CA
:10084000AD01892BF1F06E010894C11CD11C86E02A
:10085000E82EF12CEC0EFD1EC8010E947E032E83B3
:100860003F83488759876A87D601F70185E0019061
:100870000D928150E1F78091AC019091AD01892BEF
:1008800059F72A960FB6F894DEBF0FBECDBFCF91B1
:10089000DF911F910F91FF90EF90DF90CF9008951F
:1008A0000E940C0408950E940C040895DF93CF93D6
:1008B00000D000D00F92CDB7DEB729833A834B83A7
:1008C0005C836D8387E090E00E94F40ADC018091F4
:1008D000AC019091AD01892B19F1E091AE01F0913D
:1008E000AF01B683A5839D01AE014F5F5F4F85E0E9
:1008F000FA010190AF01F90101929F018150C1F706
:1009000016961C921E921597B093AF01A093AE015C
:100910000F900F900F900F900F90CF91DF9108954F
:10092000B093AD01A093AC01DECF0F93DF93CF93D3
:1009300000D000D00F92CDB7DEB7742F402F69835F
:100940007A83522F2C833D830B839B016D810E9400
:1009500056040F900F900F900F900F90CF91DF9152
:100960000F910895DF93CF9300D000D00F92CDB7B1
:10097000DEB769834A83522F2C833D831B82262F47
:10098000342F40E06D810E9456040F900F900F901D
:100990000F900F90CF91DF91089581E089BF80EF94
:1009A00082BF84E083BF7894D69AD79ADE98DF9886
:1009B00081E08093B1018093B201089582E0809339
:1009C000B101089582E08093B201089583E080939D
:1009D000B101089583E08093B201089581E080938E
:1009E000B101089581E08093B201089584E080937D
:1009F000B101089584E08093B20108951F920F928F
:100A00000FB60F9211248F9380EF82BF8091B001B7
:100A10008232D9F18091B001843269F18091B001C4
:100A20008532F9F08091B001863289F08091B00171
:100A30008F5F8093B0018091B001883211F41092E1
:100A4000B0018F910F900FBE0F901F90189580915D
:100A5000B1018111DE988091B201882339F3DF98CA
:100A6000E5CF8091B1018430F1F08091B201843002
:100A7000C9F6DF98D7CF8091B101823091F0809193
:100A8000B201823059F6DF98C9CF8091B10182302E
:100A900008F0DE9A8091B201823008F4BBCFDF9A71
:100AA000B9CFDE98ECCFDE98E0CF9298929A9398E7
:100AB000939A089580B38695869580958170089560
:100AC00080B38695869586958095817008958299E4
:100AD000FECF08958399FECF089588E18AB986E80C
:100AE00080BD10BC8FE289B908955D9BFECF8CB9A3
:100AF0000895FC018081882339F05D9BFECF8CB97D
:100B0000319680818823C9F70895FC018491882358
:100B100039F05D9BFECF8CB9319684918823C9F75B
:100B200008955F926F927F928F929F92AF92BF9241
:100B3000CF92DF92EF92FF920F931F933B014C01F4
:100B400097FD63C05524A12C9AECB92E9AE9C92EC1
:100B50009BE3D92E8FEFE82E89ECF82E8AE9082F37
:100B60008BE3182F1FC089E0581609F153948AE0CF
:100B70005816E9F1C601B5012AE030E040E050E046
:100B80000E94F60BC901DA015C016D01C801B701D1
:100B90002AE030E040E050E00E94F60BC901DA01A3
:100BA0007C018D01E614F70408051905E4F6C4017B
:100BB000B301A60195010E94F60BCA01B9012AE012
:100BC00030E040E050E00E94F60B6530E9F166301D
:100BD00018F56230D9F1633028F56130D9F080E33F
:100BE0005D9BFECF8CB953948AE0581619F61F917D
:100BF0000F91FF90EF90DF90CF90BF90AF909F90BC
:100C00008F907F906F905F9008955D9BFECF8DE2F7
:100C10008CB998CF81E3E4CF6730A1F0673040F41E
:100C200086E3DECF633061F06430C9F684E3D8CF69
:100C3000683021F0693099F689E3D2CF88E3D0CFCC
:100C400083E3CECF87E3CCCF85E3CACF82E3C8CF9F
:100C50005F9902C080E008958CB1089518161906B6
:100C600084F460E070E040E058E420E0FA0131975D
:100C7000F1F72F5F2436D1F76F5F7F4F6817790741
:100C8000A4F308951816190664F420E030E043E355
:100C900057E0FA013197F1F72F5F3F4F28173907D7
:100CA000C4F30895A0E0B0E0E8E5F6E00C94330C5E
:100CB000DC012B01FA019C91923008F439C1EB015F
:100CC0008881823008F433C1943069F4843009F0AB
:100CD0002FC111969C9111978981981709F428C109
:100CE000A1E6B0E025C1843009F421C18230A9F425
:100CF000923009F01DC19A01AD0188E0EA01099026
:100D0000AE01E90109929E018150C1F7E20189819A
:100D100011969C918923818308C1923009F407C1FF
:100D200012962D903C901397EB018A819B8114962B
:100D3000AD90BD90CD90DC901797EC80FD800E813A
:100D40001F819101281B390BB90137FF04C06627A9
:100D50007727621B730B603271050CF061C01216AD
:100D600013066CF537014801062E04C0969487944B
:100D7000779467940A94D2F721E030E040E050E0A5
:100D800004C0220F331F441F551F6A95D2F721500C
:100D90003040404050402E213F2140235123211517
:100DA00031054105510521F021E030E040E050E0FF
:100DB00079018A01E628F728082919293CC0232B44
:100DC000D1F1260E371E35014601062E04C0969439
:100DD0008794779467940A94D2F721E030E040E05A
:100DE00050E004C0220F331F441F551F6A95D2F7ED
:100DF00021503040404050402A213B214C215D2170
:100E0000211531054105510521F021E030E040E098
:100E100050E059016A01A628B728C828D9280BC074
:100E2000821593052CF01C01AA24BB24650103C084
:100E3000EE24FF24870111969C91D20111968C918A
:100E4000981709F445C0992339F0A80197012A1988
:100E50003B094C095D0906C0A60195012E193F0901
:100E6000400B510B57FD08C011823382228224832C
:100E70003583468357831DC081E08183338222827C
:100E800088279927DC01821B930BA40BB50B848365
:100E90009583A683B7830DC0220F331F441F551FB0
:100EA000248335834683578382819381019793837B
:100EB00082832481358146815781DA01C9010197F6
:100EC000A109B1098F5F9F4FAF4FBF4328F30BC0FC
:100ED000918333822282EA0CFB1C0C1D1D1DE482CF
:100EE000F5820683178383E08083248135814681E0
:100EF000578157FF1AC0C901AA2797FDA095BA2F9D
:100F000081709070A070B070569547953795279571
:100F1000822B932BA42BB52B84839583A683B78335
:100F200082819381019693838283DF0101C0D20184
:100F3000CD01CDB7DEB7E2E10C944F0CA0E2B0E0FA
:100F4000E4EAF7E00C943F0C69837A838B839C83FB
:100F50002D833E834F835887E9E0EE2EF12CEC0E73
:100F6000FD1EB701CE0101960E947C0A8E010F5E24
:100F70001F4FB801CE0105960E947C0A8A8991E034
:100F800089278A8BAE01475E5F4FB801C7010E9477
:100F900052060E94A709A096E6E00C945B0CA0E222
:100FA000B0E0E5EDF7E00C943F0C69837A838B8326
:100FB0009C832D833E834F835887F9E0EF2EF12CDD
:100FC000EC0EFD1EB701CE0101960E947C0A8E0137
:100FD0000F5E1F4FB801CE0105960E947C0AAE013C
:100FE000475E5F4FB801C7010E9452060E94A709E1
:100FF000A096E6E00C945B0CA8E1B0E0E2E0F8E03B
:101000000C943B0C69837A838B839C832D833E8372
:101010004F835887B9E0EB2EF12CEC0EFD1EB70183
:10102000CE0101960E947C0A8E010F5E1F4FB8010F
:10103000CE0105960E947C0A2985223008F47CC0E6
:101040003989323010F4B8017AC08A859A898927A3
:101050008A87243011F0223031F4231709F06CC054
:1010600061E670E06CC0343039F41D861E861F8640
:10107000188A1C861B8604C0323021F484E08987DC
:10108000B7015DC02B853C858B899C89281B390B5A
:101090003C872B87ED84FE840F851889AD88BE8838
:1010A000CF88D88CEA14FB040C051D0540F4EE0C27
:1010B000FF1C001F111F215030403C872B8720E070
:1010C00030E040E050E080E090E0A0E0B0E46FE18C
:1010D00070E0EA14FB040C051D0540F0282B392BA9
:1010E0004A2B5B2BEA18FB080C091D09B695A7953E
:1010F00097958795EE0CFF1C001F111F61507040E3
:1011000041F7DA01C9018F779070A070B070803418
:101110009105A105B10561F427FD0AC0E114F104B0
:101120000105110529F0205C3F4F4F4F5F4F20789C
:101130002D873E874F87588BBE01675F7F4FCB015E
:101140000E94A7096896EAE00C94570CA8E0B0E06A
:10115000ECEAF8E00C943C0C9B01AC0183E0898341
:10116000DA01C9018827B7FD83959927AA27BB27EC
:10117000B82E211531054105510519F482E0898306
:101180003AC08823A9F0203080E0380780E0480783
:1011900080E8580729F460E070E080E09FEC30C000
:1011A000EE24FF248701E21AF30A040B150B02C098
:1011B00079018A018EE1C82ED12CDC82CB82ED82AE
:1011C000FE820F831887C801B7010E945809019752
:1011D0001816190684F4082E04C0EE0CFF1C001F1C
:1011E000111F0A94D2F7ED82FE820F831887C81A66
:1011F000D90ADC82CB82BA82CE0101960E94A7096D
:101200002896E9E00C94580CACE0B0E0EAE0F9E094
:101210000C94430C69837A838B839C83BE016B5F40
:101220007F4FCE0101960E947C0A8D81823061F150
:10123000823050F1843021F48E81882351F12EC008
:101240002F81388537FD20C06E812F3131051CF08C
:101250006623F9F023C08EE190E0821B930B298571
:101260003A854B855C8504C05695479537952795FB
:101270008A95D2F76623B1F0509540953095219527
:101280003F4F4F4F5F4F0EC020E030E040E050E056
:1012900009C02FEF3FEF4FEF5FE704C020E030E0E1
:1012A00040E050E8B901CA012C96E2E00C945F0CD2
:1012B000EF92FF920F931F937B018C0180E0E81661
:1012C00080E0F80681E0080780E0180788F48FEFD7
:1012D000E816F1040105110531F028F088E090E0EE
:1012E000A0E0B0E017C080E090E0A0E0B0E012C065
:1012F00080E0E81680E0F80680E0080781E0180743
:1013000028F088E190E0A0E0B0E004C080E190E047
:10131000A0E0B0E020E230E040E050E0281B390BD4
:101320004A0B5B0B04C016950795F794E7948A95D2
:10133000D2F7F701E759FF4F8081281B3109410996
:101340005109C9011F910F91FF90EF900895DF920D
:10135000EF92FF920F931F93FC01E480F5800681CA
:101360001781D1808081823048F480E090E0A0E154
:10137000B0E0E82AF92A0A2B1B2BA5C0843009F417
:101380009FC0823021F4EE24FF24870105C0E114C0
:10139000F1040105110519F4E0E0F0E096C0628166
:1013A00073819FEF623879070CF05BC022E83FEF52
:1013B000261B370B2A3131052CF020E030E040E0CD
:1013C00050E02AC0B801A701022E04C076956795A7
:1013D000579547950A94D2F781E090E0A0E0B0E0FD
:1013E00004C0880F991FAA1FBB1F2A95D2F7019727
:1013F000A109B1098E219F21A023B1230097A10546
:10140000B10521F081E090E0A0E0B0E09A01AB01ED
:10141000282B392B4A2B5B2BDA01C9018F7790706F
:10142000A070B07080349105A105B10539F427FF93
:1014300009C0205C3F4F4F4F5F4F04C0215C3F4FBE
:101440004F4F5F4FE0E0F0E02030A0E03A07A0E02F
:101450004A07A0E45A0710F0E1E0F0E079018A01C0
:1014600027C06038710564F5FB01E158FF4FD801D2
:10147000C7018F779070A070B07080349105A1057E
:10148000B10539F4E7FE0DC080E490E0A0E0B0E0E3
:1014900004C08FE390E0A0E0B0E0E80EF91E0A1F60
:1014A0001B1F17FF05C016950795F794E794319613
:1014B00087E016950795F794E7948A95D1F705C0CC
:1014C000EE24FF248701EFEFF0E06E2F679566278B
:1014D0006795902F9F77D794DD24D7948E2F86958C
:1014E000492F462B582F5D29B701CA011F910F9133
:1014F000FF90EF90DF900895FC01DB014081518166
:101500002281622F6F7770E0221F2227221F938192
:10151000892F880F822B282F30E0991F9927991F38
:1015200011969C93119721153105A9F54115510587
:101530006105710511F482E037C082E89FEF1396D0
:101540009C938E9312979A01AB0167E0220F331F91
:10155000441F551F6A95D1F783E08C930DC0220F6D
:10156000331F441F551F12968D919C91139701971D
:1015700013969C938E931297203080E0380780E07A
:10158000480780E4580758F314962D933D934D93E4
:101590005C93179708952F3F310579F44115510554
:1015A0006105710519F484E08C93089564FF03C00C
:1015B00081E08C9312C01C9210C02F5730401396BC
:1015C0003C932E93129783E08C9387E0440F551F32
:1015D000661F771F8A95D1F7706414964D935D93BB
:1015E0006D937C9317970895CF93DF93BC0182305E
:1015F000910510F462E070E0A091B501B091B601E0
:10160000ED01E0E0F0E040E050E021C08881998108
:101610008617970769F48A819B81309719F0938325
:10162000828304C09093B6018093B501FE0134C05B
:101630006817790738F44115510519F08417950793
:1016400008F4AC01FE018A819B819C01E90120978D
:10165000E9F641155105A9F1CA01861B970B0497BC
:1016600008F4BA01E0E0F0E02AC08D919C91119756
:1016700084179507F9F46417750781F412968D9114
:101680009C911397309719F09383828304C09093B1
:10169000B6018093B501FD0132964CC0CA01861B8C
:1016A000970BFD01E80FF91F6193719302978D93DA
:1016B0009C9340C0FD01828193819C01D9011097C8
:1016C000A1F68091B3019091B401892B41F48091EE
:1016D0006B0190916C019093B4018093B3014091A0
:1016E0006D0150916E014115510541F44DB75EB742
:1016F0008091690190916A01481B590B2091B301B7
:101700003091B401CA01821B930B8617970780F0B2
:10171000AB014E5F5F4F8417950750F0420F531F88
:101720005093B4014093B301F9016193719302C0E6
:10173000E0E0F0E0CF01DF91CF910895CF93DF9308
:10174000009709F450C0EC0122971B821A82A091E5
:10175000B501B091B601109709F140E050E0AC1727
:10176000BD0708F1BB83AA83FE0121913191E20FED
:10177000F31FAE17BF0779F48D919C911197280F35
:10178000391F2E5F3F4F3983288312968D919C918C
:1017900013979B838A834115510571F4D093B60149
:1017A000C093B50120C012968D919C911397AD0105
:1017B000009711F0DC01D3CFFA01D383C2832191CA
:1017C0003191E20FF31FCE17DF0769F48881998109
:1017D000280F391F2E5F3F4FFA01318320838A8102
:1017E0009B8193838283DF91CF91089597FB092E8C
:1017F00005260ED057FD04D014D00AD0001C38F4B2
:1018000050954095309521953F4F4F4F5F4F08952C
:10181000F6F790958095709561957F4F8F4F9F4F0C
:101820000895A1E21A2EAA1BBB1BFD010DC0AA1F21
:10183000BB1FEE1FFF1FA217B307E407F50720F039
:10184000A21BB30BE40BF50B661F771F881F991FB4
:101850001A9469F760957095809590959B01AC01FD
:10186000BD01CF0108952F923F924F925F926F92E8
:101870007F928F929F92AF92BF92CF92DF92EF9220
:10188000FF920F931F93CF93DF93CDB7DEB7CA1BA1
:10189000DB0B0FB6F894DEBF0FBECDBF09942A88CC
:1018A000398848885F846E847D848C849B84AA8474
:1018B000B984C884DF80EE80FD800C811B81AA8101
:1018C000B981CE0FD11D0FB6F894DEBF0FBECDBFCC
:1018D000ED010895EE0FFF1F0590F491E02D09949E
:1018E00010E0C4E9D0E004C0FE010E946C0C229616
:0A18F000C639D107C9F7F894FFCFFD
:1018FA0001000000000000000000010202030303CF
:10190A000304040404040404040505050505050587
:10191A000505050505050505050606060606060666
:10192A00060606060606060606060606060606064D
:10193A000606060606060606060707070707070736
:10194A00070707070707070707070707070707071D
:10195A00070707070707070707070707070707070D
:10196A0007070707070707070707070707070707FD
:10197A0007070707070707070708080808080808E6
:10198A0008080808080808080808080808080808CD
:10199A0008080808080808080808080808080808BD
:1019AA0008080808080808080808080808080808AD
:1019BA00080808080808080808080808080808089D
:1019CA00080808080808080808080808080808088D
:1019DA00080808080808080808080808080808087D
:1019EA00080808080808080808080808080808086D
:1019FA000808080808080808082000B701000000BD
:00000001FF
