:100000000C944B000C9473000C9473000C947300CC
:100010000C9473000C9473000C9473000C94730094
:100020000C9473000C9473000C9473000C946A0489
:100030000C9473000C9473000C9473000C94730074
:100040000C94DB010C9473000C9473000C947300FB
:100050000C947300426F6E6A6F75720A00343A3600
:100060003A00343A353A00343A343A00343A333AC2
:1000700000343A323A00343A313A00323A343A00F3
:10008000323A333A00323A323A00323A313A0000E8
:10009000C100D402BA0011241FBECFE5D8E0DEBFF4
:1000A000CDBF10E0A0E6B0E0E0E2FEE002C00590C7
:1000B0000D92A836B107D9F710E0A8E6B0E001C06C
:1000C0001D92A43DB107E1F710E0C4E9D0E004C0FF
:1000D0002297FE010E94FF06C039D107C9F70E948E
:1000E000A4010C9403070C940000F8940C940000F5
:1000F0000895DF93CF9300D000D00F92CDB7DEB735
:100100009E012F5F3F4FD901E3ECF0E085E00190C5
:100110000D928150E1F7A3ECB0E0E8ECF0E085E06F
:1001200001900D928150E1F7A8ECB0E0F90185E073
:1001300001900D928150E1F70F900F900F900F906A
:100140000F90CF91DF9108958130910531F0892B87
:1001500019F46F5F7F4F49F008956F5F7F4FE1F7AC
:1001600088E690E00E94DB02089588E690E00E9415
:10017000700308956FEF7FEF80E090E00E94A4008D
:1001800008956FEF7FEF81E090E00E94A400089552
:100190000E9441020E94A1020E94C1040E94090221
:1001A0000E94C4010E9439040E94D904089586E780
:1001B00090E00E94F10480E00E94D30190E0A0E072
:1001C000B0E0BC01CD010E94FD048AE00E94E10480
:1001D00081E790E00E94F10481E00E94D30190E069
:1001E000A0E0B0E0BC01CD010E94FD048AE00E94C5
:1001F000E1048CE690E00E94F10482E00E94D301C9
:1002000090E0A0E0B0E0BC01CD010E94FD048AE0D6
:100210000E94E10487E690E00E94F10483E00E94DE
:10022000D30190E0A0E0B0E0BC01CD010E94FD044C
:100230008AE00E94E10482E690E00E94F10484E0FA
:100240000E94D30190E0A0E0B0E0BC01CD010E948B
:10025000FD048AE00E94E1048DE590E00E94F10433
:1002600085E00E94D30190E0A0E0B0E0BC01CD01A8
:100270000E94FD048AE00E94E10408958AE890E06B
:100280000E94F1040E942B02882389F182E30E94DC
:10029000E1048AE00E94E10485E890E00E94F10414
:1002A0000E942F02882359F182E30E94E1048AE030
:1002B0000E94E10480E890E00E94F1040E94340270
:1002C0008823C9F082E30E94E1048AE00E94E104ED
:1002D0008BE790E00E94F1040E943A02882399F48F
:1002E00081E30E94E1048AE00E94E104089581E331
:1002F0000E94E104CECF81E30E94E104E6CF81E3D6
:100300000E94E104D4CF82E30E94E1048AE00E94CB
:10031000E1040895A898809160000E9449028091AC
:100320006000803831F090E0880F991F8093600062
:10033000089581E08093600008950E948A010E94E0
:100340003E010E94D70008950E94C800C49804C0CE
:1003500082E390E00E94AE050E9494058132C1F7CD
:1003600084E590E00E94F104A89804C082E390E044
:100370000E94AE050E949D010E9494058A32B1F749
:10038000F8940C940000F2CF8AB3807C8ABB8BB3C4
:10039000807C8BBB80E687B98DEC86B981E0809349
:1003A000720078940895E82FFF27E7FDF095ED5847
:1003B000FF4F808108951F920F920FB60F92112464
:1003C0008F93EF93FF93E0917200F0E085B1ED58C9
:1003D000FF4F8083809172008530C1F08091720060
:1003E0008F5987B9809172008F5F809372008091DE
:1003F0007200863010F010927200369AFF91EF91E1
:100400008F910F900FBE0F901F90189580E687B9BF
:10041000E9CFB898B998BA98BB98C098C198C298D3
:10042000C3980895B09915C092E0B19904C083E0D3
:10043000989F902D1124B29904C085E0989F902D2B
:100440001124B39904C087E0989F902D1124892F1F
:10045000089591E0EACF86B380958170089586B3C0
:10046000869580958170089586B38695869580954A
:100470008170089586B3869586958695809581705E
:10048000089584B38FEF84BB95B385BBBC9AC49A9F
:100490000895809585BB0895FC0171836083538323
:1004A000428324830895FC017183608353834283D4
:1004B00024830895FC010190F081E02D11821082C7
:1004C0000895DC01862F992787FD909597FD24C01C
:1004D000ED91FC911197982F83330CF092E38AE011
:1004E0009802C001112491838083161694F4129609
:1004F000ED91FC911397208181E090E014960C908F
:1005000002C0880F991F0A94E2F7809582238083A6
:100510000895662329F40895909581959F4FD8CF2B
:100520001296ED91FC911397208181E090E0149652
:100530000C9002C0880F991F0A94E2F7282B2083A1
:1005400008958C9A8D9A8F9A8E9A83EA8FBD8FB573
:1005500080648FBD8FB580618FBD1BBC1ABC19BC78
:1005600018BC1EBC8EB582608EBD22E330E0979829
:10057000969887E08093C7003093C6002093C5000B
:100580008AE490E09093C4008093C30086E0809357
:10059000CC003093CB002093CA0088E490E0909385
:1005A000C9008093C80008950895FC011382128247
:1005B000118210820895FC0113821282118210822E
:1005C0000895CF92DF92EF92FF920F931F93DF93E4
:1005D000CF93CDB7DEB72C970FB6F894DEBF0FBE22
:1005E000CDBF7C01DC01ED91FC91309739F16E01BA
:1005F0000894C11CD11C9601AF0186E0DA010D9070
:10060000AD01D9010D929D018150C1F7068117817D
:10061000CF010E946806F70111830083DE0117965F
:10062000F60186E001900D928150E1F72F81388527
:1006300049855A856B857C8590E000C02C960FB665
:10064000F894DEBF0FBECDBFCF91DF911F910F9108
:10065000FF90EF90DF90CF900895CF92DF92EF92CE
:10066000FF920F931F93DF93CF93CDB7DEB72C97F5
:100670000FB6F894DEBF0FBECDBF8C01FC018081A8
:100680009181892BF1F06E010894C11CD11C87E087
:10069000E82EF12CEC0EFD1EC8010E94E1022F8312
:1006A000388749875A876B877C87D601F70186E0B0
:1006B00001900D928150E1F7F80180819181892BA1
:1006C00059F72C960FB6F894DEBF0FBECDBFCF9171
:1006D000DF911F910F91FF90EF90DF90CF900895E1
:1006E0000E942D0308950E942D030895AF92BF929A
:1006F000CF92DF92EF92FF920F931F93DF93CF93EE
:10070000CDB7DEB72C970FB6F894DEBF0FBECDBFC6
:100710006C01DC01ED91FC913097A1F18481958110
:10072000861B970B958384835E010894A11CB11CE2
:100730009501AF0186E0DA010D90AD01D9010D926E
:100740009D018150C1F7ED80FE801E141F0444F00E
:1007500006811781CF010E946806F601118300838C
:10076000FE82ED82DE011796F50186E001900D9282
:100770008150E1F72F81388549855A856B857C85C5
:1007800090E000C02C960FB6F894DEBF0FBECDBF30
:10079000CF91DF911F910F91FF90EF90DF90CF905D
:1007A000BF90AF9008950F931F93DF93CF9300D026
:1007B00000D000D0CDB7DEB78C0129833A834B83BC
:1007C0005C836D837E8388E090E00E94BE05DC013F
:1007D000F80180819181892B29F1F801828193812F
:1007E000FC01B783A6839D01AE014F5F5F4F86E09A
:1007F000FA010190AF01F90101929F018150C1F707
:1008000017961C921E921697F801B383A283269620
:100810000FB6F894DEBF0FBECDBFCF91DF911F9111
:100820000F910895B183A083DECFDF93CF9300D0E3
:1008300000D000D0CDB7DEB7772767FD7095E62FE3
:100840007A836983552747FD50955C834B83622FDC
:100850002D833E832E2F3A815C817E810E94D303BB
:1008600026960FB6F894DEBF0FBECDBFCF91DF91B5
:10087000089581E089BF80EF82BF84E083BF7894D0
:10088000D69AD79ADE98DF9881E08093CE00809345
:10089000CF00089582E08093CE00089582E0809397
:1008A000CF00089583E08093CE00089583E0809385
:1008B000CF00089581E08093CE00089581E0809379
:1008C000CF00089584E08093CE00089584E0809363
:1008D000CF0008951F920F920FB60F9211248F939D
:1008E00080EF82BF8091CD008232D9F18091CD001E
:1008F000843269F18091CD008532F9F08091CD008C
:10090000863289F08091CD008F5F8093CD008091F9
:10091000CD00883211F41092CD008F910F900FBE50
:100920000F901F9018958091CE008111DE988091D4
:10093000CF00882339F3DF98E5CF8091CE00843053
:10094000F1F08091CF008430C9F6DF98D7CF809145
:10095000CE00823091F08091CF00823059F6DF983E
:10096000C9CF8091CE00823008F0DE9A8091CF000E
:10097000823008F4BBCFDF9AB9CFDE98ECCFDE9897
:10098000E0CF9298929A9398939A089580B386951F
:10099000869580958170089580B386958695869515
:1009A0008095817008958299FECF08958399FECF36
:1009B000089588E18AB986E880BD10BC8FE289B9C4
:1009C00008955D9BFECF8CB90895FC01808188233A
:1009D00039F05D9BFECF8CB9319680818823C9F7B1
:1009E0000895FC018491882339F05D9BFECF8CB97A
:1009F000319684918823C9F708955F926F927F9210
:100A00008F929F92AF92BF92CF92DF92EF92FF921E
:100A10000F931F933B014C0197FD63C05524A12CFC
:100A20009AECB92E9AE9C92E9BE3D92E8FEFE82EC6
:100A300089ECF82E8AE9082F8BE3182F1FC089E074
:100A4000581609F153948AE05816E9F1C601B50128
:100A50002AE030E040E050E00E94C006C901DA011F
:100A60005C016D01C801B7012AE030E040E050E0D0
:100A70000E94C006C901DA017C018D01E614F70469
:100A800008051905E4F6C401B301A60195010E9409
:100A9000C006CA01B9012AE030E040E050E00E94FF
:100AA000C0066530E9F1663018F56230D9F163307F
:100AB00028F56130D9F080E35D9BFECF8CB953946B
:100AC0008AE0581619F61F910F91FF90EF90DF9072
:100AD000CF90BF90AF909F908F907F906F905F90DE
:100AE00008955D9BFECF8DE28CB998CF81E3E4CF72
:100AF0006730A1F0673040F486E3DECF633061F009
:100B00006430C9F684E3D8CF683021F0693099F6B3
:100B100089E3D2CF88E3D0CF83E3CECF87E3CCCFB6
:100B200085E3CACF82E3C8CF5F9902C080E0089511
:100B30008CB108951816190684F460E070E040E066
:100B400058E420E0FA013197F1F72F5F2436D1F70E
:100B50006F5F7F4F68177907A4F308951816190679
:100B600064F420E030E043E357E0FA013197F1F715
:100B70002F5F3F4F28173907C4F30895CF93DF93B2
:100B8000BC018230910510F462E070E0A091D200C7
:100B9000B091D300ED01E0E0F0E040E050E021C092
:100BA000888199818617970769F48A819B8130979C
:100BB00019F09383828304C09093D3008093D20072
:100BC000FE0134C06817790738F44115510519F052
:100BD0008417950708F4AC01FE018A819B819C0172
:100BE000E9012097E9F641155105A9F1CA01861BD3
:100BF000970B049708F4BA01E0E0F0E02AC08D9169
:100C00009C91119784179507F9F46417750781F47F
:100C100012968D919C911397309719F0938382834C
:100C200004C09093D3008093D200FD0132964CC053
:100C3000CA01861B970BFD01E80FF91F61937193A1
:100C400002978D939C9340C0FD01828193819C010A
:100C5000D9011097A1F68091D0009091D100892BF5
:100C600041F480916300909164009093D10080934F
:100C7000D00040916500509166004115510541F446
:100C80004DB75EB78091610090916200481B590B8F
:100C90002091D0003091D100CA01821B930B86179E
:100CA000970780F0AB014E5F5F4F8417950750F0B8
:100CB000420F531F5093D1004093D000F90161932C
:100CC000719302C0E0E0F0E0CF01DF91CF91089591
:100CD000CF93DF93009709F450C0EC0122971B8259
:100CE0001A82A091D200B091D300109709F140E090
:100CF00050E0AC17BD0708F1BB83AA83FE01219128
:100D00003191E20FF31FAE17BF0779F48D919C91DB
:100D10001197280F391F2E5F3F4F39832883129672
:100D20008D919C9113979B838A834115510571F492
:100D3000D093D300C093D20020C012968D919C9185
:100D40001397AD01009711F0DC01D3CFFA01D383E3
:100D5000C28321913191E20FF31FCE17DF0769F4AF
:100D600088819981280F391F2E5F3F4FFA01318307
:100D700020838A819B8193838283DF91CF91089521
:100D800097FB092E05260ED057FD04D014D00AD0AB
:100D9000001C38F450954095309521953F4F4F4FAA
:100DA0005F4F0895F6F790958095709561957F4F08
:100DB0008F4F9F4F0895A1E21A2EAA1BBB1BFD0166
:100DC0000DC0AA1FBB1FEE1FFF1FA217B307E4072A
:100DD000F50720F0A21BB30BE40BF50B661F771F82
:100DE000881F991F1A9469F7609570958095909562
:100DF0009B01AC01BD01CF010895EE0FFF1F0590CF
:100E0000F491E02D099410E0C4E9D0E004C0FE01A3
:100E10000E94FF062296C639D107C9F7F894FFCF82
:080E2000012000D400000000D5
:00000001FF
