:100000000C943E000C9466000C9466000C94660000
:100010000C9466000C9466000C9466000C946600C8
:100020000C9466000C9466000C9466000C94D20745
:100030000C9466000C9466000C9466000C946600A8
:100040000C945D040C9466000C9466000C9466009D
:100050000C946600426F6E6A6F75720A003A003443
:100060003A00323A343A00323A333A00323A323ACB
:1000700000323A313A00AC009C06A50011241FBEA4
:10008000CFE5D8E0DEBFCDBF11E0A0E6B0E0E8E507
:10009000F1E202C005900D92A237B107D9F711E045
:1000A000A2E7B1E001C01D92A63CB107E1F710E064
:1000B000CAE7D0E004C02297FE010E949B10C63719
:1000C000D107C9F70E9462010C949F100C940000A4
:1000D00090E0FC01EE0FFF1FE80FF91FDF01AA0FF0
:1000E000BB1FA356BE4F14968D919C9115978857B0
:1000F0009040459738F08D919C914497C39720F498
:1001000082E0089580E00895EE0FFF1FE156FE4F54
:10011000808191814497C39798F381E0089581305D
:10012000910531F0892B19F46F5F7F4F49F00895E5
:100130006F5F7F4FE1F782E791E00E94A606089586
:1001400082E791E00E94FC0608956FEF7FEF80E068
:1001500090E00E948F0008956FEF7FEF81E090E0C4
:100160000E948F0008950E942A09813209F454C028
:100170000E945C088823D1F50E945C08882311F452
:10018000109278010E946208882399F40E94620804
:10019000882311F410927901909177018091760172
:1001A000890F809376018436A8F59923D9F580E0EC
:1001B000089580917901882349F720917A012F5F72
:1001C00020937A0128301CF010927A0120E081E01F
:1001D00090E002C0880F991F2A95E2F70E940C0553
:1001E0001092770181E080937901D6CF80917801D8
:1001F000882311F68091770191E089278093770118
:1002000010927601909378010E946208882309F485
:10021000BDCFCFCF81E0089584E590E00E948708AC
:1002200081E0089590E06CEE7FEF0E94FE0F6B5F1F
:100230007F4F81E090E002C0880F991F6A95E2F736
:100240000E940C0580E008950E9403050E9462064A
:100250000E9457080E948B040E944F030E94790756
:100260000E946F0808958091730121E08227809396
:100270007301909160009227909360008093B20187
:100280008093AB0182E791E00E94E70608950E9407
:10029000BA020E94D0020E942A09882351F08532B6
:1002A00049F08A32C1F70E94A2020E942A098823DB
:1002B000B1F708950E943301EECF0E94A3030E947C
:1002C000470108950E94240181E090E00E940C05FE
:1002D00004C082E390E00E9444090E94B300882396
:1002E000C1F30E945D0182E390E00E9444090E94F4
:1002F0005D0182E390E00E944409F3CF1F930E94C6
:100300009604882359F511E00E949A04882349F045
:1003100080916000882371F587E090E0189F102D90
:1003200011240E949F04882349F080916000882353
:10033000F1F482E090E0189F102D11240E94A50492
:10034000882349F080916000882371F483E090E075
:10035000189F102D1124812F1F9108958091600006
:10036000882359F012E0D0CF87E090E0F1CF85E00C
:1003700090E0E1CF83E090E0D1CF15E0C5CF0F93BF
:100380001F93CF93DF93082F8BEA91E00E945906C9
:10039000182F82EB91E00E9459068102C0011124BE
:1003A00018161906DCF58091730190E060E0FC01FD
:1003B000EE0FFF1FE80FF91FEE0FFF1FDF01A15621
:1003C000BE4FE356FE4F208131818D919C91821763
:1003D00093070CF446C0112707FD109581E086278E
:1003E00090E02CE93FEF829FA001839F500D929FE8
:1003F000500D1124862F90E0829FB001839F700DD5
:10040000929F700D112424E130E082E791E00E9478
:100410004107DF91CF911F910F910895892B19F515
:100420008BEA91E00E94590687FD2BC08BEA91E090
:100430000E945906C82FDD27C7FDD09582EB91E0B9
:100440000E94590687FD29C082EB91E00E9459065F
:10045000282F332727FD309560E02C173D070CF03F
:10046000BACF61E0B8CF8BEA91E00E945906182F0D
:1004700082EB91E00E94590660E018170CF0ABCFB8
:10048000F0CF8BEA91E00E945906992787FD90955D
:10049000CC27DD27C81BD90BD1CF82EB91E00E947E
:1004A0005906992787FD909522273327281B390B5A
:1004B000D3CF0F931F93772767FD70958B019C0116
:1004C00044E664E682E791E00E9441071F910F91A4
:1004D00008950F931F93182F042F82E791E00E9435
:1004E000E7061130C9F010FF06C0812F63E00E94BB
:1004F000F20F992311F40E943301153051F0163098
:10050000B8F41250123028F063E084E190E00E94C9
:1005100059021F910F910895013089F08091740163
:10052000882391F383E00E94BF011F910F910895EA
:100530001A3079F3153169F3173031F7EACF0E9499
:100540003301ECCFF8940C940000089520E030E0E3
:10055000181614F421E030E0992787FD9095019753
:10056000A90102C0440F551F8A95E2F7CA010E94F3
:100570000C05089580917B01883079F08F5F80931E
:100580007B0181E090E000907B0102C0880F991F01
:100590000A94E2F70E940C05089510927B01F1CFB6
:1005A000EF92FF920F931F9381E0E82EF12C012D23
:1005B000112D8FE590E00E948708C801B7010E94C5
:1005C00093088DE590E00E9487088E2D81500E944F
:1005D0009B0390E0A0E0B0E0BC01CD010E94930835
:1005E0008AE00E9477080894E11CF11C011D111D8E
:1005F00087E0E816F10401051105D9F61F910F9166
:10060000FF90EF90089581E790E00E9487080E9494
:100610009604882389F182E30E9477088AE00E9489
:1006200077088CE690E00E9487080E949A0488234D
:1006300059F182E30E9477088AE00E94770887E6F2
:1006400090E00E9487080E949F048823C9F082E3FB
:100650000E9477088AE00E94770882E690E00E9474
:1006600087080E94A504882399F481E30E947708F3
:100670008AE00E947708089581E30E947708CECF30
:1006800081E30E947708E6CF81E30E947708D4CF08
:1006900082E30E9477088AE00E9477080895CF924B
:1006A000DF92EF92FF920F931F93CF93DF938AB362
:1006B0001ABA8BB31BBA80E687B98DEC86B9109253
:1006C0007C01789405E811E0C0E0D0E00F2EF0E066
:1006D000CF2EF0E0DF2EF0E8EF2EFFE3FF2EF02D1F
:1006E000F801C192D192E192F1928F01CE0163E0C3
:1006F00070E00E94FE0F9C01CE0163E070E00E945A
:10070000FE0FFB01EE0FFF1FE60FF71FE20FF31FB7
:10071000EE0FFF1FE356FE4F118210822196C63066
:10072000D105F1F6DF91CF911F910F91FF90EF90DE
:10073000DF90CF900895E82FFF27E7FDF095E3586D
:10074000FE4F808108952F923F924F925F926F9259
:100750007F928F929F92AF92BF92CF92DF92EF9251
:10076000FF920F931F93DF93CF93CDB7DEB72897F8
:100770000FB6F894DEBF0FBECDBF85E891E09A8337
:10078000898318861F82EF81F885E358FE4FC08069
:1007900022E539E44DE959E3E981FA81608171810B
:1007A000828193810E94D10A1B012C012DEC3CEC2B
:1007B0004CE45DE30E94D10A9B01AC01C201B1018E
:1007C0000E94F80B6B837C838D839E838F81988539
:1007D00063E070E00E94FE0FFB018F81988563E06B
:1007E00070E00E94FE0F8F01000F111F0E0F1F1FE0
:1007F000080F191F000F111F03561E4FF801A0808C
:10080000B180B501882777FD8095982F0E94A20CB2
:100810003B014C01DD24CA18DB08EE24D7FCE09430
:10082000FE2CC701B6010E94A20C2B813C814D8198
:100830005E810E94FE0A9B01AC01C401B3010E94CB
:10084000D10A0E94000DF801718360832B813C81E5
:100850004D815E8160E070E080E89FE30E94A00A25
:10086000A20191010E94FE0AE981FA8161937193CC
:1008700081939193FA83E9838F8198850196988774
:100880008F83069709F07FCF28960FB6F894DEBFC6
:100890000FBECDBFCF91DF911F910F91FF90EF90D1
:1008A000DF90CF90BF90AF909F908F907F906F9090
:1008B0005F904F903F902F9008951F920F920FB628
:1008C0000F9211248F93EF93FF93E0917C01F0E05E
:1008D00085B1E358FE4F808380917C018730C1F061
:1008E00080917C018F5987B980917C018F5F8093C3
:1008F0007C0180917C01883010F010927C01369A46
:10090000FF91EF918F910F900FBE0F901F90189550
:1009100080E687B9E9CFB898B998BA98BB98C098DB
:10092000C198C298C3988F9A979A089586B3809574
:100930008170089586B3869580958170089586B3F9
:100940008695869580958170089586B3869586955F
:100950008695809581700895DF93CF930F92CDB7E0
:10096000DEB76091A9017091AA0180916100909118
:1009700062006817790709F442C0472F552720E025
:1009800030E040FF20C0AF9A198289818A3030F46C
:1009900089818F5F898389818A30D0F3AE9A1982E9
:1009A00089818A3030F489818F5F898389818A3097
:1009B000D0F3AE982F5F3F4F2031310531F056957F
:1009C000479540FDE0CFAF98DFCF198289818A300B
:1009D00030F489818F5F898389818A30D0F3C49A0A
:1009E000198289818A3030F489818F5F8983898176
:1009F0008A30D0F3C49870936200609361000F90C6
:100A0000CF91DF910895A79AAF98A69AAE98BC9A15
:100A1000C4980E94AC0408951092A9018093AA0181
:100A20000E94AC040895DF93CF930F92CDB7DEB749
:100A3000198289818A3030F489818F5F8983898125
:100A40008A30D0F30F90CF91DF9108958091A90162
:100A50009091AA0182609093AA018093A9010E94BB
:100A6000AC0408958091A9019091AA018D7F909383
:100A7000AA018093A9010E94AC0408958091A90164
:100A80009091AA0184609093AA018093A9010E9489
:100A9000AC0408958091A9019091AA018B7F909355
:100AA000AA018093A9010E94AC0408958091A90134
:100AB0009091AA0188609093AA018093A9010E9455
:100AC000AC0408958091A9019091AA01877F909329
:100AD000AA018093A9010E94AC0408958091A90104
:100AE0009091AA0180619093AA018093A9010E942C
:100AF000AC0408958091A9019091AA018F7E9093F2
:100B0000AA018093A9010E94AC0408958091A901D3
:100B10009091AA0180629093AA018093A9010E94FA
:100B2000AC0408958091A9019091AA018F7D9093C2
:100B3000AA018093A9010E94AC0408958091A901A3
:100B40009091AA0180649093AA018093A9010E94C8
:100B5000AC0408958091A9019091AA018F7B909394
:100B6000AA018093A9010E94AC0408958091A90173
:100B70009091AA0180689093AA018093A9010E9494
:100B8000AC0408958091A9019091AA018F77909368
:100B9000AA018093A9010E94AC0408958091A90143
:100BA0009091AA0191609093AA018093A9010E945B
:100BB000AC0408958091A9019091AA019E7F909321
:100BC000AA018093A9010E94AC040895FC017283DC
:100BD0006183548343832583108216820895FC0128
:100BE0007283618354834383258310821682089520
:100BF000DC011196ED91FC911297118210821696EC
:100C00001C920895DC018C918823C1F161951696A0
:100C10008C9116978195681781F116966C931697AB
:100C2000862F992787FD909597FD3FC01196ED91EE
:100C3000FC911297982F83332CF58AE09802C0011B
:100C4000112491838083161694F41396ED91FC91F0
:100C50001497208181E090E015960C9002C0880FD7
:100C6000991F0A94E2F78095822380830895662372
:100C700059F41182108216961C92089516968C9142
:100C80001697C9CF92E3D9CF1396ED91FC911497A3
:100C9000208181E090E015960C9002C0880F991F8A
:100CA0000A94E2F7282B20830895909581959F4F11
:100CB000BDCFFC018081882311F48681089586814F
:100CC000819508958C9A8D9AA09AA19A83EA8FBDF6
:100CD0008FB580648FBD8FB580618FBD1BBC1ABC82
:100CE00019BC18BC1EBC8EB582608EBD25E330E0F9
:100CF000A898A9981092B1011092AB011092B0017E
:100D00003093AF012093AE018AE490E09093AD015F
:100D10008093AC011092B8011092B20181E08093EF
:100D2000B7013093B6012093B50188E490E0909329
:100D3000B4018093B301089508951092BC011092FC
:100D4000BB011092BA011092B90108951092BC0132
:100D50001092BB011092BA011092B901089520E0DF
:100D60008091B9019091BA01892B09F421E0822F79
:100D700008958091B9019091BA0108950F931F933E
:100D8000E091B901F091BA01309749F005811681DF
:100D9000CF010E949A0F1093BA010093B9011F91DD
:100DA0000F9108959C01E091B901F091BA0130973B
:100DB00049F083819481861B970B94838383181653
:100DC00019060CF40895C9010E94BE060895CF9338
:100DD000DF93EC018091B9019091BA01892B49F020
:100DE000CE010E94BE068091B9019091BA01892B73
:100DF000B9F7DF91CF9108950E94E70608950E9408
:100E0000E7060895DF93CF9300D000D00F92CDB7BF
:100E1000DEB729833A834B835C836D8387E090E060
:100E20000E94F00EDC018091B9019091BA01892BEA
:100E300019F1E091BB01F091BC01B683A5839D013E
:100E4000AE014F5F5F4F85E0FA010190AF01F901FC
:100E500001929F018150C1F716961C921E92159720
:100E6000B093BC01A093BB010F900F900F900F9017
:100E70000F90CF91DF910895B093BA01A093B9017B
:100E8000DECF0F93DF93CF9300D000D00F92CDB77A
:100E9000DEB7742F402F69837A83522F2C833D83D2
:100EA0000B839B016D810E9402070F900F900F90A2
:100EB0000F900F90CF91DF910F910895DF93CF9313
:100EC00000D000D00F92CDB7DEB769834A83522F8E
:100ED0002C833D831B82262F342F40E06D810E949E
:100EE00002070F900F900F900F900F90CF91DF910E
:100EF000089581E089BF80EF82BF84E083BF78944A
:100F0000A29AA39AA49AA59AAA98AB98AC98AD98DD
:100F100081E08093BE018093BF018093C0018093E4
:100F2000C101089582E08093BE01089582E080931C
:100F3000BF01089582E08093C001089582E080930C
:100F4000C101089583E08093BE01089583E08093FA
:100F5000BF01089583E08093C001089583E08093EA
:100F6000C101089581E08093BE01089581E08093DE
:100F7000BF01089581E08093C001089581E08093CE
:100F8000C101089584E08093BE01089584E08093B8
:100F9000BF01089584E08093C001089584E08093A8
:100FA000C10108951F920F920FB60F9211248F93D3
:100FB00080EF82BF8091BD01823209F456C08091DA
:100FC000BD01843209F43EC08091BD01853239F102
:100FD0008091BD01863289F08091BD018F5F809341
:100FE000BD018091BD01883211F41092BD018F9135
:100FF0000F900FBE0F901F9018958091BE01811128
:10100000AA988091BF018111AB988091C001811194
:10101000AC988091C1018823F9F2AD98DDCF809121
:10102000BE01843009F441C08091BF018430D9F100
:101030008091C0018430A9F18091C101843041F6D2
:10104000AC98C6CF8091BE01823039F18091BF014A
:10105000823009F18091C001823009F18091C10193
:10106000823009F0B1CFAD98AFCF8091BE01823010
:1010700008F0AA9A8091BF01823008F0AB9A809163
:10108000C001823008F0AC9A8091C101823008F42E
:1010900096CFAD9A94CFAB98DDCFAA98D7CFAC9826
:1010A000DDCFAD98C9CFAB98C3CFAA98BDCF9298EA
:1010B000929A9398939A089580B386958695809591
:1010C0008170089580B38695869586958095817008
:1010D00008958299FECF08958399FECF089588E1FF
:1010E0008AB986E880BD10BC8FE589B908955D9BFB
:1010F000FECF8CB90895FC018081882339F05D9B77
:10110000FECF8CB9319680818823C9F70895FC0100
:101110008491882339F05D9BFECF8CB93196849100
:101120008823C9F708955F926F927F928F929F9262
:10113000AF92BF92CF92DF92EF92FF920F931F93E5
:101140003B014C0197FD63C05524A12C9AECB92EAC
:101150009AE9C92E9BE3D92E8FEFE82E89ECF82E61
:101160008AE9082F8BE3182F1FC089E0581609F170
:1011700053948AE05816E9F1C601B5012AE030E03F
:1011800040E050E00E941110C901DA015C016D01DC
:10119000C801B7012AE030E040E050E00E941110A1
:1011A000C901DA017C018D01E614F704080519056F
:1011B000E4F6C401B301A60195010E941110CA0111
:1011C000B9012AE030E040E050E00E9411106530A3
:1011D000E9F1663018F56230D9F1633028F56130F5
:1011E000D9F080E35D9BFECF8CB953948AE058160A
:1011F00019F61F910F91FF90EF90DF90CF90BF9065
:10120000AF909F908F907F906F905F9008955D9BBF
:10121000FECF8DE28CB998CF81E3E4CF6730A1F0A7
:10122000673040F486E3DECF633061F06430C9F6A6
:1012300084E3D8CF683021F0693099F689E3D2CFC2
:1012400088E3D0CF83E3CECF87E3CCCF85E3CACF8B
:1012500082E3C8CF5F9902C080E008958CB1089501
:101260001816190684F460E070E040E058E420E0CD
:10127000FA013197F1F72F5F2436D1F76F5F7F4F77
:1012800068177907A4F308951816190664F420E086
:1012900030E043E357E0FA013197F1F72F5F3F4F1A
:1012A00028173907C4F30895A0E0B0E0EAE5F9E0B3
:1012B0000C946210DC012B01FA019C91923008F42D
:1012C00039C1EB018881823008F433C1943069F46C
:1012D000843009F02FC111969C911197898198173C
:1012E00009F428C1A3E6B0E025C1843009F421C186
:1012F0008230A9F4923009F01DC19A01AD0188E055
:10130000EA010990AE01E90109929E018150C1F7FD
:10131000E201898111969C918923818308C19230D1
:1013200009F407C112962D903C901397EB018A8126
:101330009B811496AD90BD90CD90DC901797EC807A
:10134000FD800E811F819101281B390BB90137FFE8
:1013500004C066277727621B730B603271050CF09F
:1013600061C0121613066CF537014801062E04C041
:1013700096948794779467940A94D2F721E030E0AA
:1013800040E050E004C0220F331F441F551F6A95F0
:10139000D2F721503040404050402E213F21402381
:1013A0005123211531054105510521F021E030E09F
:1013B00040E050E079018A01E628F7280829192938
:1013C0003CC0232BD1F1260E371E35014601062ED7
:1013D00004C096948794779467940A94D2F721E096
:1013E00030E040E050E004C0220F331F441F551F7F
:1013F0006A95D2F721503040404050402A213B218D
:101400004C215D21211531054105510521F021E0D7
:1014100030E040E050E059016A01A628B728C8280A
:10142000D9280BC0821593052CF01C01AA24BB24DB
:10143000650103C0EE24FF24870111969C91D2011F
:1014400011968C91981709F445C0992339F0A80199
:1014500097012A193B094C095D0906C0A6019501AF
:101460002E193F09400B510B57FD08C011823382E2
:10147000228224833583468357831DC081E0818384
:101480003382228288279927DC01821B930BA40BCD
:10149000B50B84839583A683B7830DC0220F331FBA
:1014A000441F551F2483358346835783828193814C
:1014B0000197938382832481358146815781DA01A4
:1014C000C9010197A109B1098F5F9F4FAF4FBF437A
:1014D00028F30BC0918333822282EA0CFB1C0C1D83
:1014E0001D1DE482F5820683178383E080832481B7
:1014F00035814681578157FF1AC0C901AA2797FD38
:10150000A095BA2F81709070A070B07056954795D5
:1015100037952795822B932BA42BB52B848395830A
:10152000A683B78382819381019693838283DF01AF
:1015300001C0D201CD01CDB7DEB7E2E10C947E103F
:10154000A0E2B0E0E6EAFAE00C946E1069837A83D8
:101550008B839C832D833E834F835887E9E0EE2E57
:10156000F12CEC0EFD1EB701CE0101960E94780E03
:101570008E010F5E1F4FB801CE0105960E94780EB6
:101580008A8991E089278A8BAE01475E5F4FB80157
:10159000C7010E9454090E94A30DA096E6E00C9496
:1015A0008A10A0E2B0E0E7EDFAE00C946E106983D7
:1015B0007A838B839C832D833E834F835887F9E006
:1015C000EF2EF12CEC0EFD1EB701CE0101960E940C
:1015D000780E8E010F5E1F4FB801CE0105960E9456
:1015E000780EAE01475E5F4FB801C7010E945409F3
:1015F0000E94A30DA096E6E00C948A10A0E2B0E051
:10160000E4E0FBE00C94621069837A838B839C8313
:101610002D833E834F835887BE01675F7F4FCE0186
:1016200001960E94780EBE016F5E7F4FCE01059637
:101630000E94780E9985923088F089898230C8F0AE
:10164000943019F4823051F404C0843029F492307B
:1016500081F483E690E0C6C0923049F420E09A8598
:101660008A89981321E02A87CE010996BBC082306F
:1016700049F420E09A858A89981321E02A8BCE01CB
:101680004196B0C02D843E844F8458886D887E88F2
:101690008F88988CEE24FF248701AA24BB2465013F
:1016A00040E050E060E070E0E0E0F0E0C101817017
:1016B0009070892BE9F0E60CF71C081D191D9A01A2
:1016C000AB012A0D3B1D4C1D5D1D80E090E0A0E0AC
:1016D000B0E0E614F7040805190520F481E090E075
:1016E000A0E0B0E0BA01A901480F591F6A1F7B1F93
:1016F000AA0CBB1CCC1CDD1C97FE08C081E090E04E
:10170000A0E0B0E0A82AB92ACA2ADB2A3196E03242
:10171000F10549F0660C771C881C991C5694479477
:1017200037942794C3CFFA85EA892B893C898B8526
:101730009C85280F391F2E5F3F4F17C0CA0181704B
:101740009070892B61F016950795F794E79480E0E7
:1017500090E0A0E0B0E8E82AF92A0A2B1B2B769546
:101760006795579547952F5F3F4F77FDE7CF0CC0A3
:10177000440F551F661F771F17FD4160EE0CFF1CBD
:10178000001F111F21503040403090E0590790E079
:10179000690790E4790760F32B8F3C8FDB01CA0166
:1017A0008F779070A070B07080349105A105B1055D
:1017B00061F447FD0AC0E114F1040105110529F0A7
:1017C000405C5F4F6F4F7F4F40781A8EFE1711F0CD
:1017D00081E08A8F4D8F5E8F6F8F78A383E0898F32
:1017E000CE0149960E94A30DA096E2E10C947E10D2
:1017F000A8E1B0E0EEEFFBE00C946A1069837A8315
:101800008B839C832D833E834F835887B9E0EB2ED7
:10181000F12CEC0EFD1EB701CE0101960E94780E50
:101820008E010F5E1F4FB801CE0105960E94780E03
:101830002985223008F47CC03989323010F4B8018F
:101840007AC08A859A8989278A87243011F02230C4
:1018500031F4231709F06CC063E670E06CC03430DB
:1018600039F41D861E861F86188A1C861B8604C0B6
:10187000323021F484E08987B7015DC02B853C8537
:101880008B899C89281B390B3C872B87ED84FE8430
:101890000F851889AD88BE88CF88D88CEA14FB04E0
:1018A0000C051D0540F4EE0CFF1C001F111F2150FC
:1018B00030403C872B8720E030E040E050E080E083
:1018C00090E0A0E0B0E46FE170E0EA14FB040C05E6
:1018D0001D0540F0282B392B4A2B5B2BEA18FB08FF
:1018E0000C091D09B695A79597958795EE0CFF1CD9
:1018F000001F111F6150704041F7DA01C9018F7755
:101900009070A070B07080349105A105B10561F4AC
:1019100027FD0AC0E114F1040105110529F0205C3E
:101920003F4F4F4F5F4F20782D873E874F87588B13
:10193000BE01675F7F4FCB010E94A30D6896EAE06E
:101940000C948610A8E0B0E0E8EAFCE00C946B1080
:101950009B01AC0183E08983DA01C9018827B7FDC7
:1019600083959927AA27BB27B82E21153105410554
:10197000510519F482E089833AC08823A9F0203008
:1019800080E0380780E0480780E8580729F460E0E5
:1019900070E080E09FEC30C0EE24FF248701E21A63
:1019A000F30A040B150B02C079018A018EE1C82EDF
:1019B000D12CDC82CB82ED82FE820F831887C80196
:1019C000B7010E94540D01971816190684F4082EC9
:1019D00004C0EE0CFF1C001F111F0A94D2F7ED8209
:1019E000FE820F831887C81AD90ADC82CB82BA829A
:1019F000CE0101960E94A30D2896E9E00C94871071
:101A0000ACE0B0E0E6E0FDE00C94721069837A830C
:101A10008B839C83BE016B5F7F4FCE0101960E943A
:101A2000780E8D81823061F1823050F1843021F462
:101A30008E81882351F12EC02F81388537FD20C03B
:101A40006E812F3131051CF06623F9F023C08EE141
:101A500090E0821B930B29853A854B855C8504C0F9
:101A600056954795379527958A95D2F76623B1F015
:101A700050954095309521953F4F4F4F5F4F0EC089
:101A800020E030E040E050E009C02FEF3FEF4FEFA3
:101A90005FE704C020E030E040E050E8B901CA014F
:101AA0002C96E2E00C948E10EF92FF920F931F930E
:101AB0007B018C0180E0E81680E0F80681E00807F1
:101AC00080E0180788F48FEFE816F104010511058E
:101AD00031F028F088E090E0A0E0B0E017C080E0AE
:101AE00090E0A0E0B0E012C080E0E81680E0F806E8
:101AF00080E0080781E0180728F088E190E0A0E086
:101B0000B0E004C080E190E0A0E0B0E020E230E08E
:101B100040E050E0281B390B4A0B5B0B04C01695C4
:101B20000795F794E7948A95D2F7F701E559FF4FA7
:101B30008081281B310941095109C9011F910F9169
:101B4000FF90EF900895DF92EF92FF920F931F9313
:101B5000FC01E480F58006811781D180808182308C
:101B600048F480E090E0A0E1B0E0E82AF92A0A2BEE
:101B70001B2BA5C0843009F49FC0823021F4EE24D1
:101B8000FF24870105C0E114F1040105110519F4D2
:101B9000E0E0F0E096C0628173819FEF62387907E0
:101BA0000CF05BC022E83FEF261B370B2A313105D2
:101BB0002CF020E030E040E050E02AC0B801A7015E
:101BC000022E04C076956795579547950A94D2F7EB
:101BD00081E090E0A0E0B0E004C0880F991FAA1F48
:101BE000BB1F2A95D2F70197A109B1098E219F2128
:101BF000A023B1230097A105B10521F081E090E079
:101C0000A0E0B0E09A01AB01282B392B4A2B5B2BCB
:101C1000DA01C9018F779070A070B070803491059F
:101C2000A105B10539F427FF09C0205C3F4F4F4F94
:101C30005F4F04C0215C3F4F4F4F5F4FE0E0F0E04B
:101C40002030A0E03A07A0E04A07A0E45A0710F0CD
:101C5000E1E0F0E079018A0127C06038710564F5A0
:101C6000FB01E158FF4FD801C7018F779070A0703A
:101C7000B07080349105A105B10539F4E7FE0DC0BF
:101C800080E490E0A0E0B0E004C08FE390E0A0E04A
:101C9000B0E0E80EF91E0A1F1B1F17FF05C01695BE
:101CA0000795F794E794319687E016950795F79492
:101CB000E7948A95D1F705C0EE24FF248701EFEF62
:101CC000F0E06E2F679566276795902F9F77D794E2
:101CD000DD24D7948E2F8695492F462B582F5D29CA
:101CE000B701CA011F910F91FF90EF90DF90089507
:101CF000FC01DB01408151812281622F6F7770E00E
:101D0000221F2227221F9381892F880F822B282FA1
:101D100030E0991F9927991F11969C9311972115CF
:101D20003105A9F5411551056105710511F482E0F0
:101D300037C082E89FEF13969C938E9312979A0177
:101D4000AB0167E0220F331F441F551F6A95D1F77F
:101D500083E08C930DC0220F331F441F551F129632
:101D60008D919C911397019713969C938E93129744
:101D7000203080E0380780E0480780E4580758F3B7
:101D800014962D933D934D935C93179708952F3F91
:101D9000310579F4411551056105710519F484E0A7
:101DA0008C93089564FF03C081E08C9312C01C9251
:101DB00010C02F57304013963C932E93129783E018
:101DC0008C9387E0440F551F661F771F8A95D1F7C4
:101DD000706414964D935D936D937C93179708955B
:101DE000CF93DF93BC018230910510F462E070E084
:101DF000A091C401B091C501ED01E0E0F0E040E048
:101E000050E021C0888199818617970769F48A81FB
:101E10009B81309719F09383828304C09093C5010E
:101E20008093C401FE0134C06817790738F4411566
:101E3000510519F08417950708F4AC01FE018A8159
:101E40009B819C01E9012097E9F641155105A9F113
:101E5000CA01861B970B049708F4BA01E0E0F0E092
:101E60002AC08D919C91119784179507F9F46417F6
:101E7000750781F412968D919C911397309719F004
:101E80009383828304C09093C5018093C401FD01B4
:101E900032964CC0CA01861B970BFD01E80FF91F53
:101EA0006193719302978D939C9340C0FD01828151
:101EB00093819C01D9011097A1F68091C201909164
:101EC000C301892B41F480916D0190916E01909333
:101ED000C3018093C20140916F015091700141157F
:101EE000510541F44DB75EB780916B0190916C0143
:101EF000481B590B2091C2013091C301CA01821BBA
:101F0000930B8617970780F0AB014E5F5F4F8417E6
:101F1000950750F0420F531F5093C3014093C201E5
:101F2000F9016193719302C0E0E0F0E0CF01DF912D
:101F3000CF910895CF93DF93009709F450C0EC013F
:101F400022971B821A82A091C401B091C5011097FB
:101F500009F140E050E0AC17BD0708F1BB83AA834C
:101F6000FE0121913191E20FF31FAE17BF0779F403
:101F70008D919C911197280F391F2E5F3F4F398308
:101F8000288312968D919C9113979B838A83411588
:101F9000510571F4D093C501C093C40120C01296BD
:101FA0008D919C911397AD01009711F0DC01D3CF77
:101FB000FA01D383C28321913191E20FF31FCE172F
:101FC000DF0769F488819981280F391F2E5F3F4F01
:101FD000FA01318320838A819B8193838283DF91FD
:101FE000CF910895991B79E004C0991F961708F0C6
:101FF000961B881F7A95C9F78095089597FB092E3F
:1020000007260AD077FD04D027D006D000201AF486
:10201000709561957F4F0895F6F7909581959F4F44
:10202000089597FB092E05260ED057FD04D028D021
:102030000AD0001C38F450954095309521953F4FBB
:102040004F4F5F4F0895F6F7909580957095619585
:102050007F4F8F4F9F4F0895AA1BBB1B51E107C0B5
:10206000AA1FBB1FA617B70710F0A61BB70B881F28
:10207000991F5A95A9F780959095BC01CD010895B7
:10208000A1E21A2EAA1BBB1BFD010DC0AA1FBB1F7C
:10209000EE1FFF1FA217B307E407F50720F0A21BEE
:1020A000B30BE40BF50B661F771F881F991F1A945B
:1020B00069F760957095809590959B01AC01BD0185
:1020C000CF0108952F923F924F925F926F927F922D
:1020D0008F929F92AF92BF92CF92DF92EF92FF9238
:1020E0000F931F93CF93DF93CDB7DEB7CA1BDB0BE4
:1020F0000FB6F894DEBF0FBECDBF09942A88398889
:1021000048885F846E847D848C849B84AA84B9848F
:10211000C884DF80EE80FD800C811B81AA81B9819B
:10212000CE0FD11D0FB6F894DEBF0FBECDBFED01AF
:102130000895EE0FFF1F0590F491E02D099410E033
:10214000CAE7D0E004C0FE010E949B102296CC3763
:08215000D107C9F7F894FFCF95
:1021580001FF00000000000000000000010202036F
:102168000303030404040404040404050505050525
:102178000505050505050505050505060606060602
:1021880006060606060606060606060606060606E7
:1021980006060606060606060606060707070707D2
:1021A80007070707070707070707070707070707B7
:1021B80007070707070707070707070707070707A7
:1021C8000707070707070707070707070707070797
:1021D8000707070707070707070707080808080882
:1021E8000808080808080808080808080808080867
:1021F8000808080808080808080808080808080857
:102208000808080808080808080808080808080846
:102218000808080808080808080808080808080836
:102228000808080808080808080808080808080826
:102238000808080808080808080808080808080816
:102248000808080808080808080808080808080806
:1022580008080808080808080808082000C6010037
:02226800000074
:00000001FF
