:100000000C942C000C9454000C9454000C94540048
:100010000C9454000C9454000C9454000C94540010
:100020000C9454000C9454000C9454000C9402044E
:100030000C9454000C9454000C9454000C945400F0
:100040000C9459010C9454000C9454000C945400DA
:100050000C94540073006C0011241FBECFE5D8E04F
:10006000DEBFCDBF10E0A0E6B0E0EEE9FDE002C0EB
:1000700005900D92A836B107D9F710E0A8E6B0E0D8
:1000800001C01D92AD38B107E1F710E0C6E5D0E040
:1000900004C02297FE010E94BE06C435D107C9F7ED
:1000A0000E94E2000C94C2060C940000813091057D
:1000B00031F0892B19F46F5F7F4F49F008956F5F1E
:1000C0007F4FE1F788E690E00E947302089588E68A
:1000D00090E00E94080308956FEF7FEF80E090E0CA
:1000E0000E94560008956FEF7FEF81E090E00E943C
:1000F00056000895EF92FF920F93DF93CF93CDB701
:10010000DEB72E970FB6F894DEBF0FBECDBF0E94AC
:10011000E2010E9456020E9459040E94AA010E9414
:1001200038010E94D1030E94710402E327E042E3F8
:1001300050E06AE470E07E010894E11CF11CC70104
:100140000E94F801A2E7B0E0F70187E001900D926C
:100150008150E1F788E0E82EF12CEC0EFD1E02E361
:1001600026E042E350E068E470E0C7010E94F80135
:10017000A9E7B0E0F70187E001900D928150E1F727
:100180002E960FB6F894DEBF0FBECDBFCF91DF9194
:100190000F91FF90EF900895809160000E94EA0116
:1001A0008091600090E0880F991F803491051CF4C5
:1001B00080936000089581E08093600008950E941C
:1001C000CC000895FF920F931F93DF93CF9300D03D
:1001D00000D000D0CDB7DEB70E947A00C49885E089
:1001E00090E00E9432058E010F5F1F4F30E1F32E29
:1001F0000E94CC000E945E04882319F088B38F25EA
:1002000088BB8091680090916900892B29F162E395
:1002100070E088E690E00E940E0329833A834B83C6
:100220005C836D837E83ACE6B0E0F80186E00190EC
:100230000D928150E1F760916C0082E790E00E949E
:100240000B0260916E0089E790E00E940B0282E34E
:1002500090E00E944605CCCFC49A60E082E790E02F
:100260000E940B0260E089E790E00E940B02EFCF52
:100270008AB3807C8ABB8BB3807C8BBB80E687B9DA
:100280008DEC86B981E08093610078940895809127
:1002900080000895809181000895809182000895E2
:1002A0008091830008958091840008958091850055
:1002B00008951F920F920FB60F9211248F93809181
:1002C0006100833009F440C0843050F08530B1F1D2
:1002D000853000F585B18093830084E687B907C037
:1002E000813031F18230F1F086E0809361008091BD
:1002F00061008F5F8093610080916100873018F00A
:1003000081E080936100369A8F910F900FBE0F901D
:100310001F901895863041F785B18093850080E65F
:1003200087B9E5CF85B18093810082E687B9DFCFB9
:1003300085B18093800081E687B9D9CF85B180935C
:10034000840085E687B9D3CF85B18093820083E6A8
:1003500087B9CDCFB898B998BA98BB98C098C198CA
:10036000C298C3980895B09915C092E0B19904C09D
:1003700083E0989F902D1124B29904C085E0989F46
:10038000902D1124B39904C087E0989F902D1124DB
:10039000892F089591E0EACF86B380958170089502
:1003A00086B3869580958170089586B386958695E7
:1003B00080958170089586B38695869586958095FB
:1003C0008170089584B38FEF84BB95B385BBBC9ACD
:1003D000C49A0895809585BB08950F93FC0100830E
:1003E0001182738362835583448326830F9108951A
:1003F0000F93FC01008311827383628355834483CE
:1004000026830F910895DC011296ED91FC911397CC
:10041000118210820895CF93DF93EC01862F9927E4
:1004200087FD90959C0197FD3CC0B9010E9458063C
:10043000462F622F28813981862F992787FD909535
:100440002817390708F4622FEA81FB818AE06802E5
:10045000C00111249183808314168CF4EC81FD81FA
:10046000208181E090E00E8002C0880F991F0A94DD
:10047000E2F7809582238083DF91CF910895442312
:10048000D9F3EC81FD81208181E090E00E8002C0F3
:10049000880F991F0A94E2F7282B2083DF91CF91D0
:1004A000089522273327281B390BBFCF8C9A8D9AAA
:1004B0008F9A8E9A83EA8FBD8FB580648FBD8FB57A
:1004C00080618FBD1BBC1ABC19BC18BC1EBC8EB58C
:1004D00082608EBD979896980895FC0113821282CF
:1004E000118210820895FC011382128211821082FF
:1004F0000895CF92DF92EF92FF920F931F93DF93B5
:10050000CF93CDB7DEB72C970FB6F894DEBF0FBEF2
:10051000CDBF7C01DC01ED91FC91309739F16E018A
:100520000894C11CD11C9601AF0186E0DA010D9040
:10053000AD01D9010D929D018150C1F7068117814E
:10054000CF010E940006F70111830083DE01179698
:10055000F60186E001900D928150E1F72F813885F8
:1005600049855A856B857C8590E000C02C960FB636
:10057000F894DEBF0FBECDBFCF91DF911F910F91D9
:10058000FF90EF90DF90CF900895CF92DF92EF929F
:10059000FF920F931F93DF93CF93CDB7DEB72C97C6
:1005A0000FB6F894DEBF0FBECDBF8C01FC01808179
:1005B0009181892BF1F06E010894C11CD11C87E058
:1005C000E82EF12CEC0EFD1EC8010E9479022F834B
:1005D000388749875A876B877C87D601F70186E081
:1005E00001900D928150E1F7F80180819181892B72
:1005F00059F72C960FB6F894DEBF0FBECDBFCF9142
:10060000DF911F910F91FF90EF90DF90CF900895B1
:100610000E94C50208950E94C5020895AF92BF923C
:10062000CF92DF92EF92FF920F931F93DF93CF93BE
:10063000CDB7DEB72C970FB6F894DEBF0FBECDBF97
:100640006C01DC01ED91FC913097A1F184819581E1
:10065000861B970B958384835E010894A11CB11CB3
:100660009501AF0186E0DA010D90AD01D9010D923F
:100670009D018150C1F7ED80FE801E141F0444F0DF
:1006800006811781CF010E940006F60111830083C5
:10069000FE82ED82DE011796F50186E001900D9253
:1006A0008150E1F72F81388549855A856B857C8596
:1006B00090E000C02C960FB6F894DEBF0FBECDBF01
:1006C000CF91DF911F910F91FF90EF90DF90CF902E
:1006D000BF90AF9008950F931F93DF93CF9300D0F7
:1006E00000D000D0CDB7DEB78C0129833A834B838D
:1006F0005C836D837E8388E090E00E945605DC0178
:10070000F80180819181892B29F1F80182819381FF
:10071000FC01B783A6839D01AE014F5F5F4F86E06A
:10072000FA010190AF01F90101929F018150C1F7D7
:1007300017961C921E921697F801B383A2832696F1
:100740000FB6F894DEBF0FBECDBFCF91DF911F91E2
:100750000F910895B183A083DECFDF93CF9300D0B4
:1007600000D000D0CDB7DEB7772767FD7095E62FB4
:100770007A836983552747FD50955C834B83622FAD
:100780002D833E832E2F3A815C817E810E946B03F4
:1007900026960FB6F894DEBF0FBECDBFCF91DF9186
:1007A000089581E089BF80EF82BF84E083BF7894A1
:1007B000D69AD79ADE98DF9881E08093870080935D
:1007C0008800089582E080938700089582E08093F6
:1007D0008800089583E080938700089583E08093E4
:1007E0008800089581E080938700089581E08093D8
:1007F0008800089584E080938700089584E08093C2
:10080000880008951F920F920FB60F9211248F93B4
:1008100080EF82BF809186008232D9F1809186007C
:10082000843269F1809186008532F9F080918600EA
:10083000863289F0809186008F5F80938600809158
:100840008600883211F4109286008F910F900FBEAF
:100850000F901F901895809187008111DE988091EC
:100860008800882339F3DF98E5CF809187008430B2
:10087000F1F0809188008430C9F6DF98D7CF80915D
:100880008700823091F080918800823059F6DF989D
:10089000C9CF80918700823008F0DE9A809188006D
:1008A000823008F4BBCFDF9AB9CFDE98ECCFDE9868
:1008B000E0CF9298929A9398939A089580B38695F0
:1008C000869580958170089580B3869586958695E6
:1008D0008095817008958299FECF08958399FECF07
:1008E000089588E18AB986E880BD10BC8FE289B995
:1008F00008955D9BFECF8CB90895FC01808188230B
:1009000039F05D9BFECF8CB9319680818823C9F781
:100910000895FC018491882339F05D9BFECF8CB94A
:10092000319684918823C9F708955F926F927F92E0
:100930008F929F92AF92BF92CF92DF92EF92FF92EF
:100940000F931F933B014C0197FD63C05524A12CCD
:100950009AECB92E9AE9C92E9BE3D92E8FEFE82E97
:1009600089ECF82E8AE9082F8BE3182F1FC089E045
:10097000581609F153948AE05816E9F1C601B501F9
:100980002AE030E040E050E00E946B06C901DA0145
:100990005C016D01C801B7012AE030E040E050E0A1
:1009A0000E946B06C901DA017C018D01E614F7048F
:1009B00008051905E4F6C401B301A60195010E94DA
:1009C0006B06CA01B9012AE030E040E050E00E9425
:1009D0006B066530E9F1663018F56230D9F16330A5
:1009E00028F56130D9F080E35D9BFECF8CB953943C
:1009F0008AE0581619F61F910F91FF90EF90DF9043
:100A0000CF90BF90AF909F908F907F906F905F90AE
:100A100008955D9BFECF8DE28CB998CF81E3E4CF42
:100A20006730A1F0673040F486E3DECF633061F0D9
:100A30006430C9F684E3D8CF683021F0693099F684
:100A400089E3D2CF88E3D0CF83E3CECF87E3CCCF87
:100A500085E3CACF82E3C8CF5F9902C080E00895E2
:100A60008CB108951816190684F460E070E040E037
:100A700058E420E0FA013197F1F72F5F2436D1F7DF
:100A80006F5F7F4F68177907A4F30895181619064A
:100A900064F420E030E043E357E0FA013197F1F7E6
:100AA0002F5F3F4F28173907C4F30895CF93DF9383
:100AB000BC018230910510F462E070E0A0918B00DF
:100AC000B0918C00ED01E0E0F0E040E050E021C0AA
:100AD000888199818617970769F48A819B8130976D
:100AE00019F09383828304C090938C0080938B00D1
:100AF000FE0134C06817790738F44115510519F023
:100B00008417950708F4AC01FE018A819B819C0142
:100B1000E9012097E9F641155105A9F1CA01861BA3
:100B2000970B049708F4BA01E0E0F0E02AC08D9139
:100B30009C91119784179507F9F46417750781F450
:100B400012968D919C911397309719F0938382831D
:100B500004C090938C0080938B00FD0132964CC0B2
:100B6000CA01861B970BFD01E80FF91F6193719372
:100B700002978D939C9340C0FD01828193819C01DB
:100B8000D9011097A1F68091890090918A00892B54
:100B900041F4809164009091650090938A00809365
:100BA000890040916600509167004115510541F45C
:100BB0004DB75EB78091620090916300481B590B5E
:100BC0002091890030918A00CA01821B930B8617FD
:100BD000970780F0AB014E5F5F4F8417950750F089
:100BE000420F531F50938A0040938900F90161938B
:100BF000719302C0E0E0F0E0CF01DF91CF91089562
:100C0000CF93DF93009709F450C0EC0122971B8229
:100C10001A82A0918B00B0918C00109709F140E0EE
:100C200050E0AC17BD0708F1BB83AA83FE012191F8
:100C30003191E20FF31FAE17BF0779F48D919C91AC
:100C40001197280F391F2E5F3F4F39832883129643
:100C50008D919C9113979B838A834115510571F463
:100C6000D0938C00C0938B0020C012968D919C91E4
:100C70001397AD01009711F0DC01D3CFFA01D383B4
:100C8000C28321913191E20FF31FCE17DF0769F480
:100C900088819981280F391F2E5F3F4FFA013183D8
:100CA00020838A819B8193838283DF91CF910895F2
:100CB00097FB092E07260AD077FD04D027D006D04F
:100CC00000201AF4709561957F4F0895F6F790957E
:100CD00081959F4F089597FB092E05260ED057FD4D
:100CE00004D028D00AD0001C38F450954095309597
:100CF00021953F4F4F4F5F4F0895F6F790958095A0
:100D0000709561957F4F8F4F9F4F0895AA1BBB1B16
:100D100051E107C0AA1FBB1FA617B70710F0A61BFB
:100D2000B70B881F991F5A95A9F780959095BC011C
:100D3000CD010895A1E21A2EAA1BBB1BFD010DC017
:100D4000AA1FBB1FEE1FFF1FA217B307E407F5077B
:100D500020F0A21BB30BE40BF50B661F771F881F57
:100D6000991F1A9469F760957095809590959B01ED
:100D7000AC01BD01CF010895EE0FFF1F0590F49166
:100D8000E02D099410E0C6E5D0E004C0FE010E9409
:0E0D9000BE062296C835D107C9F7F894FFCFEA
:080D9E00010120008D0000009E
:00000001FF
