:100000000C943E000C9466000C9466000C94660000
:100010000C9466000C9466000C9466000C946600C8
:100020000C9466000C9466000C9466000C944607D1
:100030000C9466000C9466000C9466000C946600A8
:100040000C94D1030C9466000C9466000C9466002A
:100050000C946600426F6E6A6F75720A003A003443
:100060003A00323A343A00323A333A00323A323ACB
:1000700000323A313A00AC001006A50011241FBE30
:10008000CFE5D8E0DEBFCDBF11E0A0E6B0E0E0E410
:10009000F0E202C005900D92A237B107D9F711E046
:1000A000A2E7B1E001C01D92A43CB107E1F710E066
:1000B000CAE7D0E004C02297FE010E940F10C637A5
:1000C000D107C9F70E94FD000C9413100C94000096
:1000D00090E0FC01EE0FFF1FE80FF91FDF01AA0FF0
:1000E000BB1FA556BE4F14968D919C9115978857AE
:1000F0009040459738F08D919C914497C39720F498
:1001000082E0089580E00895EE0FFF1FE356FE4F52
:10011000808191814497C39798F381E0089581305D
:10012000910531F0892B19F46F5F7F4F49F00895E5
:100130006F5F7F4FE1F782E791E00E941A06089512
:1001400082E791E00E94700608956FEF7FEF80E0F4
:1001500090E00E948F0008956FEF7FEF81E090E0C4
:100160000E948F0008950E949E08813211F080E065
:10017000089584E590E00E94FB0781E008950E94C5
:1001800077040E94D6050E94CB070E94FF030E94BD
:10019000C3020E94ED060E94E30708958091730157
:1001A00021E08227809373019091600092279093C1
:1001B00060008093B0018093A90182E791E00E94E2
:1001C0005B0608950E942E020E9444020E949E082F
:1001D000882351F0853249F08A32C1F70E942A0201
:1001E0000E949E088823B1F708950E94CE00EECFAA
:1001F0000E9417030E94E20008950E94BF000E941F
:10020000F80082E390E00E94B808F9CF1F930E94A3
:100210000A04882359F511E00E940E04882349F04E
:1002200080916000882371F587E090E0189F102D81
:1002300011240E941304882349F0809160008823D0
:10024000F1F482E090E0189F102D11240E9419040F
:10025000882349F080916000882371F483E090E066
:10026000189F102D1124812F1F91089580916000F7
:10027000882359F012E0D0CF87E090E0F1CF85E0FD
:1002800090E0E1CF83E090E0D1CF15E0C5CF0F93B0
:100290001F93CF93DF93082F89EA91E00E94CD0549
:1002A000182F80EB91E00E94CD058102C00111243E
:1002B00018161906DCF58091730190E060E0FC01EE
:1002C000EE0FFF1FE80FF91FEE0FFF1FDF01A35610
:1002D000BE4FE556FE4F208131818D919C91821752
:1002E00093070CF446C0112707FD109581E086277F
:1002F00090E02CE93FEF829FA001839F500D929FD9
:10030000500D1124862F90E0829FB001839F700DC5
:10031000929F700D112424E130E082E791E00E9469
:10032000B506DF91CF911F910F910895892B19F593
:1003300089EA91E00E94CD0587FD2BC089EA91E012
:100340000E94CD05C82FDD27C7FDD09580EB91E039
:100350000E94CD0587FD29C080EB91E00E94CD056C
:10036000282F332727FD309560E02C173D070CF030
:10037000BACF61E0B8CF89EA91E00E94CD05182F8D
:1003800080EB91E00E94CD0560E018170CF0ABCF38
:10039000F0CF89EA91E00E94CD05992787FD9095DD
:1003A000CC27DD27C81BD90BD1CF80EB91E00E9471
:1003B000CD05992787FD909522273327281B390BD8
:1003C000D3CF0F931F93772767FD70958B019C0107
:1003D00044E664E682E791E00E94B5061F910F9122
:1003E00008950F931F93182F042F82E791E00E9426
:1003F0005B061130C9F010FF06C0812F63E00E9438
:10040000660F992311F40E94CE00153051F016307A
:10041000B8F41250123028F063E084E190E00E94BA
:10042000E1011F910F910895013089F080917401CD
:10043000882391F383E00E9447011F910F91089553
:100440001A3079F3153169F3173031F7EACF0E948A
:10045000CE00ECCFF8940C940000089580917901BF
:10046000883079F08F5F8093790181E090E000908F
:10047000790102C0880F991F0A94E2F70E94800454
:10048000089510927901F1CFEF92FF920F931F938D
:1004900081E0E82EF12C012D112D8FE590E00E94D6
:1004A000FB07C801B7010E9407088DE590E00E9494
:1004B000FB078E2D81500E940F0390E0A0E0B0E07A
:1004C000BC01CD010E9407088AE00E94EB07089456
:1004D000E11CF11C011D111D87E0E816F104010566
:1004E0001105D9F61F910F91FF90EF90089581E7C4
:1004F00090E00E94FB070E940A04882389F182E3AE
:100500000E94EB078AE00E94EB078CE690E00E94D5
:10051000FB070E940E04882359F182E30E94EB0737
:100520008AE00E94EB0787E690E00E94FB070E94AA
:1005300013048823C9F082E30E94EB078AE00E943B
:10054000EB0782E690E00E94FB070E9419048823D3
:1005500099F481E30E94EB078AE00E94EB0708957B
:1005600081E30E94EB07CECF81E30E94EB07E6CF49
:1005700081E30E94EB07D4CF82E30E94EB078AE07D
:100580000E94EB070895CF92DF92EF92FF920F93B4
:100590001F93CF93DF938AB31ABA8BB31BBA80E64B
:1005A00087B98DEC86B910927A01789403E811E04E
:1005B000C0E0D0E00F2EF0E0CF2EF0E0DF2EF0E82C
:1005C000EF2EFFE3FF2EF02DF801C192D192E192C0
:1005D000F1928F01CE0163E070E00E94720F9C01E6
:1005E000CE0163E070E00E94720FFB01EE0FFF1F6F
:1005F000E60FF71FE20FF31FEE0FFF1FE556FE4F4A
:10060000118210822196C630D105F1F6DF91CF918B
:100610001F910F91FF90EF90DF90CF900895E82FFA
:10062000FF27E7FDF095E558FE4F808108952F9252
:100630003F924F925F926F927F928F929F92AF9272
:10064000BF92CF92DF92EF92FF920F931F93DF93AF
:10065000CF93CDB7DEB728970FB6F894DEBF0FBEA5
:10066000CDBF83E891E09A83898318861F82EF814A
:10067000F885E558FE4FC08022E539E44DE959E39D
:10068000E981FA8160817181828193810E94450AAA
:100690001B012C012DEC3CEC4CE45DE30E94450A6F
:1006A0009B01AC01C201B1010E946C0B6B837C8386
:1006B0008D839E838F81988563E070E00E94720F26
:1006C000FB018F81988563E070E00E94720F8F01BB
:1006D000000F111F0E0F1F1F080F191F000F111FF2
:1006E00005561E4FF801A080B180B501882777FD1F
:1006F0008095982F0E94160C3B014C01DD24CA18EE
:10070000DB08EE24D7FCE094FE2CC701B6010E9462
:10071000160C2B813C814D815E810E94720A9B01E7
:10072000AC01C401B3010E94450A0E94740CF80197
:10073000718360832B813C814D815E8160E070E03C
:1007400080E89FE30E94140AA20191010E94720AAC
:10075000E981FA816193719381939193FA83E9839B
:100760008F819885019698878F83069709F07FCFB0
:1007700028960FB6F894DEBF0FBECDBFCF91DF91A4
:100780001F910F91FF90EF90DF90CF90BF90AF90AF
:100790009F908F907F906F905F904F903F902F90A1
:1007A00008951F920F920FB60F9211248F93EF931B
:1007B000FF93E0917A01F0E085B1E558FE4F808328
:1007C00080917A018730C1F080917A018F5987B981
:1007D00080917A018F5F80937A0180917A018830CD
:1007E00010F010927A01369AFF91EF918F910F904D
:1007F0000FBE0F901F90189580E687B9E9CFB89883
:10080000B998BA98BB98C098C198C298C3988F9A63
:10081000979A089586B380958170089586B38695DA
:1008200080958170089586B38695869580958170B0
:10083000089586B3869586958695809581700895EE
:10084000DF93CF930F92CDB7DEB76091A701709180
:10085000A80180916100909162006817790709F4FE
:1008600042C0472F552720E030E040FF20C0AF9A1C
:10087000198289818A3030F489818F5F89838981E7
:100880008A30D0F3AE9A198289818A3030F4898116
:100890008F5F898389818A30D0F3AE982F5F3F4F75
:1008A0002031310531F05695479540FDE0CFAF98A6
:1008B000DFCF198289818A3030F489818F5F898303
:1008C00089818A30D0F3C49A198289818A3030F4C0
:1008D00089818F5F898389818A30D0F3C49870932E
:1008E0006200609361000F90CF91DF910895A79A05
:1008F000AF98A69AAE98BC9AC4980E942004089516
:100900001092A7018093A8010E9420040895DF930C
:10091000CF930F92CDB7DEB7198289818A3030F438
:1009200089818F5F898389818A30D0F30F90CF913D
:10093000DF9108958091A7019091A8018260909322
:10094000A8018093A7010E94200408958091A70127
:100950009091A8018D7F9093A8018093A7010E9498
:10096000200408958091A7019091A801846090933C
:10097000A8018093A7010E94200408958091A701F7
:100980009091A8018B7F9093A8018093A7010E946A
:10099000200408958091A7019091A8018860909308
:1009A000A8018093A7010E94200408958091A701C7
:1009B0009091A801877F9093A8018093A7010E943E
:1009C000200408958091A7019091A80180619093DF
:1009D000A8018093A7010E94200408958091A70197
:1009E0009091A8018F7E9093A8018093A7010E9407
:1009F000200408958091A7019091A80180629093AE
:100A0000A8018093A7010E94200408958091A70166
:100A10009091A8018F7D9093A8018093A7010E94D7
:100A2000200408958091A7019091A801806490937B
:100A3000A8018093A7010E94200408958091A70136
:100A40009091A8018F7B9093A8018093A7010E94A9
:100A5000200408958091A7019091A8018068909347
:100A6000A8018093A7010E94200408958091A70106
:100A70009091A8018F779093A8018093A7010E947D
:100A8000200408958091A7019091A801916090930E
:100A9000A8018093A7010E94200408958091A701D6
:100AA0009091A8019E7F9093A8018093A7010E9436
:100AB00020040895FC01728361835483438325835A
:100AC000108216820895FC017283618354834383EC
:100AD0002583108216820895DC011196ED91FC9118
:100AE00012971182108216961C920895DC018C9147
:100AF0008823C1F1619516968C9116978195681798
:100B000081F116966C931697862F992787FD9095FD
:100B100097FD3FC01196ED91FC911297982F83336A
:100B20002CF58AE09802C001112491838083161667
:100B300094F41396ED91FC911497208181E090E05C
:100B400015960C9002C0880F991F0A94E2F78095C1
:100B5000822380830895662359F4118210821696A9
:100B60001C92089516968C911697C9CF92E3D9CF0F
:100B70001396ED91FC911497208181E090E01596F9
:100B80000C9002C0880F991F0A94E2F7282B20834B
:100B90000895909581959F4FBDCFFC01808188235A
:100BA00011F4868108958681819508958C9A8D9A95
:100BB000A09AA19A83EA8FBD8FB580648FBD8FB54F
:100BC00080618FBD1BBC1ABC19BC18BC1EBC8EB585
:100BD00082608EBD25E330E0A898A9981092AF01FD
:100BE0001092A9011092AE013093AD012093AC0197
:100BF0008AE490E09093AB018093AA011092B60131
:100C00001092B00181E08093B5013093B40120933C
:100C1000B30188E490E09093B2018093B10108950C
:100C200008951092BA011092B9011092B801109271
:100C3000B70108951092BA011092B9011092B8014B
:100C40001092B701089520E08091B7019091B8010A
:100C5000892B09F421E0822F08958091B7019091AA
:100C6000B80108950F931F93E091B701F091B80177
:100C7000309749F005811681CF010E940E0F109325
:100C8000B8010093B7011F910F9108959C01E09165
:100C9000B701F091B801309749F083819481861BA8
:100CA000970B94838383181619060CF40895C901D1
:100CB0000E9432060895CF93DF93EC018091B70133
:100CC0009091B801892B49F0CE010E9432068091A3
:100CD000B7019091B801892BB9F7DF91CF910895B1
:100CE0000E945B0608950E945B060895DF93CF93F0
:100CF00000D000D00F92CDB7DEB729833A834B8363
:100D00005C836D8387E090E00E94640EDC0180913B
:100D1000B7019091B801892B19F1E091B901F091D7
:100D2000BA01B683A5839D01AE014F5F5F4F85E099
:100D3000FA010190AF01F90101929F018150C1F7C1
:100D400016961C921E921597B093BA01A093B90102
:100D50000F900F900F900F900F90CF91DF9108950B
:100D6000B093B801A093B701DECF0F93DF93CF9379
:100D700000D000D00F92CDB7DEB7742F402F69831B
:100D80007A83522F2C833D830B839B016D810E94BC
:100D900076060F900F900F900F900F90CF91DF91EC
:100DA0000F910895DF93CF9300D000D00F92CDB76D
:100DB000DEB769834A83522F2C833D831B82262F03
:100DC000342F40E06D810E9476060F900F900F90B7
:100DD0000F900F90CF91DF91089581E089BF80EF50
:100DE00082BF84E083BF7894A29AA39AA49AA59A1A
:100DF000AA98AB98AC98AD9881E08093BC018093A1
:100E0000BD018093BE018093BF01089582E080936D
:100E1000BC01089582E08093BD01089582E0809333
:100E2000BE01089582E08093BF01089583E080931E
:100E3000BC01089583E08093BD01089583E0809311
:100E4000BE01089583E08093BF01089581E08093FF
:100E5000BC01089581E08093BD01089581E08093F5
:100E6000BE01089581E08093BF01089584E08093DE
:100E7000BC01089584E08093BD01089584E08093CF
:100E8000BE01089584E08093BF0108951F920F92E0
:100E90000FB60F9211248F9380EF82BF8091BB0118
:100EA000823209F456C08091BB01843209F43EC0FD
:100EB0008091BB01853239F18091BB01863289F086
:100EC0008091BB018F5F8093BB018091BB01883211
:100ED00011F41092BB018F910F900FBE0F901F90D5
:100EE00018958091BC018111AA988091BD01811152
:100EF000AB988091BE018111AC988091BF0188238D
:100F0000F9F2AD98DDCF8091BC01843009F441C085
:100F10008091BD018430D9F18091BE018430A9F166
:100F20008091BF01843041F6AC98C6CF8091BC015E
:100F3000823039F18091BD01823009F18091BE018A
:100F4000823009F18091BF01823009F0B1CFAD98B4
:100F5000AFCF8091BC01823008F0AA9A8091BD0188
:100F6000823008F0AB9A8091BE01823008F0AC9AD2
:100F70008091BF01823008F496CFAD9A94CFAB98A0
:100F8000DDCFAA98D7CFAC98DDCFAD98C9CFAB98BD
:100F9000C3CFAA98BDCF9298929A9398939A0895A6
:100FA00080B38695869580958170089580B38695E7
:100FB000869586958095817008958299FECF0895D3
:100FC0008399FECF089588E18AB986E880BD10BC78
:100FD0008FE589B908955D9BFECF8CB90895FC011A
:100FE0008081882339F05D9BFECF8CB9319680815A
:100FF0008823C9F70895FC018491882339F05D9B0B
:10100000FECF8CB9319684918823C9F708955F92F9
:101010006F927F928F929F92AF92BF92CF92DF9208
:10102000EF92FF920F931F933B014C0197FD63C01A
:101030005524A12C9AECB92E9AE9C92E9BE3D92EFE
:101040008FEFE82E89ECF82E8AE9082F8BE3182F12
:101050001FC089E0581609F153948AE05816E9F147
:10106000C601B5012AE030E040E050E00E94850F63
:10107000C901DA015C016D01C801B7012AE030E065
:1010800040E050E00E94850FC901DA017C018D012A
:10109000E614F70408051905E4F6C401B301A60136
:1010A00095010E94850FCA01B9012AE030E040E0B5
:1010B00050E00E94850F6530E9F1663018F5623026
:1010C000D9F1633028F56130D9F080E35D9BFECF24
:1010D0008CB953948AE0581619F61F910F91FF901E
:1010E000EF90DF90CF90BF90AF909F908F907F90C8
:1010F0006F905F9008955D9BFECF8DE28CB998CF85
:1011000081E3E4CF6730A1F0673040F486E3DECFBF
:10111000633061F06430C9F684E3D8CF683021F0E1
:10112000693099F689E3D2CF88E3D0CF83E3CECF7D
:1011300087E3CCCF85E3CACF82E3C8CF5F9902C0F3
:1011400080E008958CB108951816190684F460E0C3
:1011500070E040E058E420E0FA013197F1F72F5FAA
:101160002436D1F76F5F7F4F68177907A4F308958E
:101170001816190664F420E030E043E357E0FA0162
:101180003197F1F72F5F3F4F28173907C4F30895C0
:10119000A0E0B0E0EEECF8E00C94D60FDC012B01FF
:1011A000FA019C91923008F439C1EB0188818230B8
:1011B00008F433C1943069F4843009F02FC11196DA
:1011C0009C9111978981981709F428C1A3E6B0E092
:1011D00025C1843009F421C18230A9F4923009F08C
:1011E0001DC19A01AD0188E0EA010990AE01E90153
:1011F00009929E018150C1F7E201898111969C916B
:101200008923818308C1923009F407C112962D9079
:101210003C901397EB018A819B811496AD90BD9011
:10122000CD90DC901797EC80FD800E811F8191019D
:10123000281B390BB90137FF04C066277727621BCB
:10124000730B603271050CF061C0121613066CF559
:1012500037014801062E04C09694879477946794CA
:101260000A94D2F721E030E040E050E004C0220FC1
:10127000331F441F551F6A95D2F72150304040401C
:1012800050402E213F214023512321153105410596
:10129000510521F021E030E040E050E079018A0181
:1012A000E628F728082919293CC0232BD1F1260E5E
:1012B000371E35014601062E04C096948794779414
:1012C00067940A94D2F721E030E040E050E004C097
:1012D000220F331F441F551F6A95D2F7215030400B
:1012E000404050402A213B214C215D2121153105F0
:1012F0004105510521F021E030E040E050E0590186
:101300006A01A628B728C828D9280BC082159305DA
:101310002CF01C01AA24BB24650103C0EE24FF2489
:10132000870111969C91D20111968C91981709F41E
:1013300045C0992339F0A80197012A193B094C09A6
:101340005D0906C0A60195012E193F09400B510BFE
:1013500057FD08C01182338222822483358346835D
:1013600057831DC081E08183338222828827992799
:10137000DC01821B930BA40BB50B84839583A6839E
:10138000B7830DC0220F331F441F551F248335839D
:10139000468357838281938101979383828324813B
:1013A000358146815781DA01C9010197A109B10947
:1013B0008F5F9F4FAF4FBF4328F30BC091833382A2
:1013C0002282EA0CFB1C0C1D1D1DE482F5820683A3
:1013D000178383E08083248135814681578157FFBD
:1013E0001AC0C901AA2797FDA095BA2F81709070E5
:1013F000A070B0705695479537952795822B932B03
:10140000A42BB52B84839583A683B7838281938194
:10141000019693838283DF0101C0D201CD01CDB754
:10142000DEB7E2E10C94F20FA0E2B0E0EAE1FAE00C
:101430000C94E20F69837A838B839C832D833E8394
:101440004F835887E9E0EE2EF12CEC0EFD1EB7011C
:10145000CE0101960E94EC0D8E010F5E1F4FB80168
:10146000CE0105960E94EC0D8A8991E089278A8B2E
:10147000AE01475E5F4FB801C7010E94C8080E94D5
:10148000170DA096E6E00C94FE0FA0E2B0E0EBE4AE
:10149000FAE00C94E20F69837A838B839C832D831B
:1014A0003E834F835887F9E0EF2EF12CEC0EFD1EA2
:1014B000B701CE0101960E94EC0D8E010F5E1F4F09
:1014C000B801CE0105960E94EC0DAE01475E5F4F5C
:1014D000B801C7010E94C8080E94170DA096E6E057
:1014E0000C94FE0FA0E2B0E0E8E7FAE00C94D60F0F
:1014F00069837A838B839C832D833E834F835887B4
:10150000BE01675F7F4FCE0101960E94EC0DBE01C8
:101510006F5E7F4FCE0105960E94EC0D998592304B
:1015200088F089898230C8F0943019F4823051F4FF
:1015300004C0843029F4923081F483E690E0C6C080
:10154000923049F420E09A858A89981321E02A870D
:10155000CE010996BBC0823049F420E09A858A8981
:10156000981321E02A8BCE014196B0C02D843E8491
:101570004F8458886D887E888F88988CEE24FF244D
:101580008701AA24BB24650140E050E060E070E0E0
:10159000E0E0F0E0C10181709070892BE9F0E60C89
:1015A000F71C081D191D9A01AB012A0D3B1D4C1D8E
:1015B0005D1D80E090E0A0E0B0E0E614F7040805CF
:1015C000190520F481E090E0A0E0B0E0BA01A901A3
:1015D000480F591F6A1F7B1FAA0CBB1CCC1CDD1CAB
:1015E00097FE08C081E090E0A0E0B0E0A82AB92A08
:1015F000CA2ADB2A3196E032F10549F0660C771CE5
:10160000881C991C5694479437942794C3CFFA8525
:10161000EA892B893C898B859C85280F391F2E5F91
:101620003F4F17C0CA0181709070892B61F01695E9
:101630000795F794E79480E090E0A0E0B0E8E82A0E
:10164000F92A0A2B1B2B76956795579547952F5F9F
:101650003F4F77FDE7CF0CC0440F551F661F771F24
:1016600017FD4160EE0CFF1C001F111F2150304080
:10167000403090E0590790E0690790E4790760F303
:101680002B8F3C8FDB01CA018F779070A070B070F8
:1016900080349105A105B10561F447FD0AC0E1144C
:1016A000F1040105110529F0405C5F4F6F4F7F4F3A
:1016B00040781A8EFE1711F081E08A8F4D8F5E8F71
:1016C0006F8F78A383E0898FCE0149960E94170D12
:1016D000A096E2E10C94F20FA8E1B0E0E2E7FBE0B3
:1016E0000C94DE0F69837A838B839C832D833E83E6
:1016F0004F835887B9E0EB2EF12CEC0EFD1EB7019D
:10170000CE0101960E94EC0D8E010F5E1F4FB801B5
:10171000CE0105960E94EC0D2985223008F47CC08C
:101720003989323010F4B8017AC08A859A898927BC
:101730008A87243011F0223031F4231709F06CC06D
:1017400063E670E06CC0343039F41D861E861F8657
:10175000188A1C861B8604C0323021F484E08987F5
:10176000B7015DC02B853C858B899C89281B390B73
:101770003C872B87ED84FE840F851889AD88BE8851
:10178000CF88D88CEA14FB040C051D0540F4EE0C40
:10179000FF1C001F111F215030403C872B8720E089
:1017A00030E040E050E080E090E0A0E0B0E46FE1A5
:1017B00070E0EA14FB040C051D0540F0282B392BC2
:1017C0004A2B5B2BEA18FB080C091D09B695A79557
:1017D00097958795EE0CFF1C001F111F61507040FC
:1017E00041F7DA01C9018F779070A070B070803432
:1017F0009105A105B10561F427FD0AC0E114F104CA
:101800000105110529F0205C3F4F4F4F5F4F2078B5
:101810002D873E874F87588BBE01675F7F4FCB0177
:101820000E94170D6896EAE00C94FA0FA8E0B0E069
:10183000ECE1FCE00C94DF0F9B01AC0183E08983B9
:10184000DA01C9018827B7FD83959927AA27BB2705
:10185000B82E211531054105510519F482E089831F
:101860003AC08823A9F0203080E0380780E048079C
:1018700080E8580729F460E070E080E09FEC30C019
:10188000EE24FF248701E21AF30A040B150B02C0B1
:1018900079018A018EE1C82ED12CDC82CB82ED82C7
:1018A000FE820F831887C801B7010E94C80C0197F8
:1018B0001816190684F4082E04C0EE0CFF1C001F35
:1018C000111F0A94D2F7ED82FE820F831887C81A7F
:1018D000D90ADC82CB82BA82CE0101960E94170D12
:1018E0002896E9E00C94FB0FACE0B0E0EAE7FCE0FE
:1018F0000C94E60F69837A838B839C83BE016B5FB4
:101900007F4FCE0101960E94EC0D8D81823061F1F6
:10191000823050F1843021F48E81882351F12EC021
:101920002F81388537FD20C06E812F3131051CF0A5
:101930006623F9F023C08EE190E0821B930B29858A
:101940003A854B855C8504C0569547953795279514
:101950008A95D2F76623B1F0509540953095219540
:101960003F4F4F4F5F4F0EC020E030E040E050E06F
:1019700009C02FEF3FEF4FEF5FE704C020E030E0FA
:1019800040E050E8B901CA012C96E2E00C94021044
:10199000EF92FF920F931F937B018C0180E0E8167A
:1019A00080E0F80681E0080780E0180788F48FEFF0
:1019B000E816F1040105110531F028F088E090E007
:1019C000A0E0B0E017C080E090E0A0E0B0E012C07E
:1019D00080E0E81680E0F80680E0080781E018075C
:1019E00028F088E190E0A0E0B0E004C080E190E061
:1019F000A0E0B0E020E230E040E050E0281B390BEE
:101A00004A0B5B0B04C016950795F794E7948A95EB
:101A1000D2F7F701E559FF4F8081281B31094109B1
:101A20005109C9011F910F91FF90EF900895DF9226
:101A3000EF92FF920F931F93FC01E480F5800681E3
:101A40001781D1808081823048F480E090E0A0E16D
:101A5000B0E0E82AF92A0A2B1B2BA5C0843009F430
:101A60009FC0823021F4EE24FF24870105C0E114D9
:101A7000F1040105110519F4E0E0F0E096C062817F
:101A800073819FEF623879070CF05BC022E83FEF6B
:101A9000261B370B2A3131052CF020E030E040E0E6
:101AA00050E02AC0B801A701022E04C076956795C0
:101AB000579547950A94D2F781E090E0A0E0B0E016
:101AC00004C0880F991FAA1FBB1F2A95D2F7019740
:101AD000A109B1098E219F21A023B1230097A1055F
:101AE000B10521F081E090E0A0E0B0E09A01AB0107
:101AF000282B392B4A2B5B2BDA01C9018F77907089
:101B0000A070B07080349105A105B10539F427FFAC
:101B100009C0205C3F4F4F4F5F4F04C0215C3F4FD7
:101B20004F4F5F4FE0E0F0E02030A0E03A07A0E048
:101B30004A07A0E45A0710F0E1E0F0E079018A01D9
:101B400027C06038710564F5FB01E158FF4FD801EB
:101B5000C7018F779070A070B07080349105A10597
:101B6000B10539F4E7FE0DC080E490E0A0E0B0E0FC
:101B700004C08FE390E0A0E0B0E0E80EF91E0A1F79
:101B80001B1F17FF05C016950795F794E79431962C
:101B900087E016950795F794E7948A95D1F705C0E5
:101BA000EE24FF248701EFEFF0E06E2F67956627A4
:101BB0006795902F9F77D794DD24D7948E2F8695A5
:101BC000492F462B582F5D29B701CA011F910F914C
:101BD000FF90EF90DF900895FC01DB01408151817F
:101BE0002281622F6F7770E0221F2227221F9381AC
:101BF000892F880F822B282F30E0991F9927991F52
:101C000011969C93119721153105A9F541155105A0
:101C10006105710511F482E037C082E89FEF1396E9
:101C20009C938E9312979A01AB0167E0220F331FAA
:101C3000441F551F6A95D1F783E08C930DC0220F86
:101C4000331F441F551F12968D919C911397019736
:101C500013969C938E931297203080E0380780E093
:101C6000480780E4580758F314962D933D934D93FD
:101C70005C93179708952F3F310579F4411551056D
:101C80006105710519F484E08C93089564FF03C025
:101C900081E08C9312C01C9210C02F5730401396D5
:101CA0003C932E93129783E08C9387E0440F551F4B
:101CB000661F771F8A95D1F7706414964D935D93D4
:101CC0006D937C9317970895CF93DF93BC01823077
:101CD000910510F462E070E0A091C201B091C301DF
:101CE000ED01E0E0F0E040E050E021C08881998122
:101CF0008617970769F48A819B81309719F093833F
:101D0000828304C09093C3018093C201FE0134C05A
:101D10006817790738F44115510519F084179507AC
:101D200008F4AC01FE018A819B819C01E9012097A6
:101D3000E9F641155105A9F1CA01861B970B0497D5
:101D400008F4BA01E0E0F0E02AC08D919C9111976F
:101D500084179507F9F46417750781F412968D912D
:101D60009C911397309719F09383828304C09093CA
:101D7000C3018093C201FD0132964CC0CA01861B8B
:101D8000970BFD01E80FF91F6193719302978D93F3
:101D90009C9340C0FD01828193819C01D9011097E1
:101DA000A1F68091C0019091C101892B41F48091ED
:101DB0006D0190916E019093C1018093C00140919B
:101DC0006F01509170014115510541F44DB75EB757
:101DD00080916B0190916C01481B590B2091C001BF
:101DE0003091C101CA01821B930B8617970780F0BF
:101DF000AB014E5F5F4F8417950750F0420F531FA2
:101E00005093C1014093C001F9016193719302C0E5
:101E1000E0E0F0E0CF01DF91CF910895CF93DF9321
:101E2000009709F450C0EC0122971B821A82A091FE
:101E3000C201B091C301109709F140E050E0AC1726
:101E4000BD0708F1BB83AA83FE0121913191E20F06
:101E5000F31FAE17BF0779F48D919C911197280F4E
:101E6000391F2E5F3F4F3983288312968D919C91A5
:101E700013979B838A834115510571F4D093C30155
:101E8000C093C20120C012968D919C911397AD0111
:101E9000009711F0DC01D3CFFA01D383C2832191E3
:101EA0003191E20FF31FCE17DF0769F48881998122
:101EB000280F391F2E5F3F4FFA01318320838A811B
:101EC0009B8193838283DF91CF910895991B79E061
:101ED00004C0991F961708F0961B881F7A95C9F7BA
:101EE0008095089597FB092E07260AD077FD04D028
:101EF00027D006D000201AF4709561957F4F089581
:101F0000F6F7909581959F4F089597FB092E05262A
:101F10000ED057FD04D028D00AD0001C38F45095BC
:101F20004095309521953F4F4F4F5F4F0895F6F7FD
:101F300090958095709561957F4F8F4F9F4F089535
:101F4000AA1BBB1B51E107C0AA1FBB1FA617B707DF
:101F500010F0A61BB70B881F991F5A95A9F78095FB
:101F60009095BC01CD010895A1E21A2EAA1BBB1BBE
:101F7000FD010DC0AA1FBB1FEE1FFF1FA217B30755
:101F8000E407F50720F0A21BB30BE40BF50B661F6B
:101F9000771F881F991F1A9469F76095709580952F
:101FA00090959B01AC01BD01CF0108952F923F9206
:101FB0004F925F926F927F928F929F92AF92BF9259
:101FC000CF92DF92EF92FF920F931F93CF93DF9305
:101FD000CDB7DEB7CA1BDB0B0FB6F894DEBF0FBE62
:101FE000CDBF09942A88398848885F846E847D84AF
:101FF0008C849B84AA84B984C884DF80EE80FD80B1
:102000000C811B81AA81B981CE0FD11D0FB6F89426
:10201000DEBF0FBECDBFED010895EE0FFF1F05908F
:10202000F491E02D099410E0CAE7D0E004C0FE016D
:102030000E940F102296CC37D107C9F7F894FFCF32
:1020400001FF000000000000000000000102020388
:10205000030303040404040404040405050505053E
:10206000050505050505050505050506060606061B
:102070000606060606060606060606060606060600
:1020800006060606060606060606060707070707EB
:1020900007070707070707070707070707070707D0
:1020A00007070707070707070707070707070707C0
:1020B00007070707070707070707070707070707B0
:1020C000070707070707070707070708080808089B
:1020D0000808080808080808080808080808080880
:1020E0000808080808080808080808080808080870
:1020F0000808080808080808080808080808080860
:10210000080808080808080808080808080808084F
:10211000080808080808080808080808080808083F
:10212000080808080808080808080808080808082F
:10213000080808080808080808080808080808081F
:1021400008080808080808080808082000C4010052
:0221500000008D
:00000001FF
