:100000000C9446000C946E000C946E000C946E00E0
:100010000C946E000C946E000C946E000C946E00A8
:100020000C946E000C946E000C946E000C946D0495
:100030000C946E000C946E000C946E000C946E0088
:100040000C94DE010C946E000C946E000C946E0007
:100050000C946E00343A363A00343A353A00343A69
:10006000343A00343A333A00343A323A00343A31CE
:100070003A00323A343A00323A333A00323A323ABB
:1000800000323A313A00BC00D702B50011241FBE3D
:10009000CFE5D8E0DEBFCDBF10E0A0E6B0E0E6E2FD
:1000A000FEE002C005900D92A836B107D9F710E026
:1000B000A8E6B0E001C01D92AA38B107E1F710E050
:1000C000CAE8D0E004C02297FE010E940207C638A9
:1000D000D107C9F70E94A7010C9406070C940000F1
:1000E000F8940C9400000895DF93CF9300D000D0D3
:1000F0000F92CDB7DEB79E012F5F3F4FD901E9E7E1
:10010000F0E085E001900D928150E1F7A9E7B0E0C1
:10011000EEE7F0E085E001900D928150E1F7AEE767
:10012000B0E0F90185E001900D928150E1F70F9068
:100130000F900F900F900F90CF91DF910895813025
:10014000910531F0892B19F46F5F7F4F49F00895C5
:100150006F5F7F4FE1F788E690E00E94DE0208952E
:1001600088E690E00E94730308956FEF7FEF80E0D0
:1001700090E00E949F0008956FEF7FEF81E090E094
:100180000E949F0008950E9444020E94A4020E94BF
:10019000C4040E940C020E94C7010E943C040E94F9
:1001A000DC04089580E00E94D601833708F468C01B
:1001B000C49A8DE690E00E94F40480E00E94D6018B
:1001C00090E0A0E0B0E0BC01CD010E9400058AE013
:1001D0000E94E40488E690E00E94F40481E00E941A
:1001E000D60190E0A0E0B0E0BC01CD010E94000586
:1001F0008AE00E94E40483E690E00E94F40482E036
:100200000E94D60190E0A0E0B0E0BC01CD010E94C8
:1002100000058AE00E94E4048EE590E00E94F40468
:1002200083E00E94D60190E0A0E0B0E0BC01CD01E7
:100230000E9400058AE00E94E40489E590E00E94A3
:10024000F40484E00E94D60190E0A0E0B0E0BC019C
:10025000CD010E9400058AE00E94E40484E590E05C
:100260000E94F40485E00E94D60190E0A0E0B0E096
:10027000BC01CD010E9400058AE00E94E4040895BB
:10028000C49897CF81E890E00E94F4040E942E0267
:10029000882389F182E30E94E4048AE00E94E40456
:1002A0008CE790E00E94F4040E943202882359F106
:1002B00082E30E94E4048AE00E94E40487E790E07D
:1002C0000E94F4040E9437028823C9F082E30E944E
:1002D000E4048AE00E94E40482E790E00E94F404CF
:1002E0000E943D02882399F481E30E94E4048AE09D
:1002F0000E94E404089581E30E94E404CECF81E3E8
:100300000E94E404E6CF81E30E94E404D4CF82E3B8
:100310000E94E4048AE00E94E40408958091600051
:100320000E944C0280916000803831F090E0880F8C
:10033000991F80936000089581E080936000089584
:100340000E948E010E9442010E94D20008950E94E4
:10035000C300C49804C082E390E00E94B1050E94EB
:1003600097058132C1F70E94A0010E9497058A3249
:1003700051F082E390E00E94B1050E94A0010E942A
:1003800097058A32B1F7F8940C940000F2CF8AB343
:10039000807C8ABB8BB3807C8BBB80E687B98DEC7D
:1003A00086B981E08093720078940895E82FFF2742
:1003B000E7FDF095ED58FF4F808108951F920F9251
:1003C0000FB60F9211248F93EF93FF93E091720079
:1003D000F0E085B1ED58FF4F808380917200853049
:1003E000C1F0809172008F5987B9809172008F5F40
:1003F0008093720080917200863010F0109272002B
:10040000369AFF91EF918F910F900FBE0F901F9032
:10041000189580E687B9E9CFB898B998BA98BB988B
:10042000C098C198C298C3980895B09915C092E039
:10043000B19904C083E0989F902D1124B29904C013
:1004400085E0989F902D1124B39904C087E0989F70
:10045000902D1124892F089591E0EACF86B38095DD
:100460008170089586B3869580958170089586B3CE
:100470008695869580958170089586B38695869534
:10048000869580958170089584B38FEF84BB95B372
:1004900085BBBC9AC49A0895809585BB0895FC01DC
:1004A000718360835383428324830895FC017183A5
:1004B00060835383428324830895FC010190F0817B
:1004C000E02D118210820895DC01862F992787FD87
:1004D000909597FD24C0ED91FC911197982F83334F
:1004E0000CF092E38AE09802C0011124918380838A
:1004F000161694F41296ED91FC911397208181E0E9
:1005000090E014960C9002C0880F991F0A94E2F7AD
:100510008095822380830895662329F40895909519
:1005200081959F4FD8CF1296ED91FC911397208122
:1005300081E090E014960C9002C0880F991F0A94F5
:10054000E2F7282B208308958C9A8D9A8F9A8E9AA1
:1005500083EA8FBD8FB580648FBD8FB580618FBDFD
:100560001BBC1ABC19BC18BC1EBC8EB582608EBDEB
:1005700022E330E09798969887E080937D0030934F
:100580007C0020937B008AE490E090937A00809333
:10059000790086E080938200309381002093800070
:1005A00088E490E090937F0080937E000895089502
:1005B000FC0113821282118210820895FC011382C1
:1005C0001282118210820895CF92DF92EF92FF92F1
:1005D0000F931F93DF93CF93CDB7DEB72C970FB652
:1005E000F894DEBF0FBECDBF7C01DC01ED91FC9124
:1005F000309739F16E010894C11CD11C9601AF01EE
:1006000086E0DA010D90AD01D9010D929D01815076
:10061000C1F706811781CF010E946B06F701118394
:100620000083DE011796F60186E001900D9281505D
:10063000E1F72F81388549855A856B857C8590E067
:1006400000C02C960FB6F894DEBF0FBECDBFCF9181
:10065000DF911F910F91FF90EF90DF90CF90089561
:10066000CF92DF92EF92FF920F931F93DF93CF937E
:10067000CDB7DEB72C970FB6F894DEBF0FBECDBF57
:100680008C01FC0180819181892BF1F06E0108942D
:10069000C11CD11C87E0E82EF12CEC0EFD1EC80118
:1006A0000E94E4022F83388749875A876B877C87AB
:1006B000D601F70186E001900D928150E1F7F80133
:1006C00080819181892B59F72C960FB6F894DEBF63
:1006D0000FBECDBFCF91DF911F910F91FF90EF9093
:1006E000DF90CF9008950E94300308950E94300358
:1006F0000895AF92BF92CF92DF92EF92FF920F9345
:100700001F93DF93CF93CDB7DEB72C970FB6F89436
:10071000DEBF0FBECDBF6C01DC01ED91FC913097C7
:10072000A1F184819581861B970B958384835E015B
:100730000894A11CB11C9501AF0186E0DA010D906F
:10074000AD01D9010D929D018150C1F7ED80FE8070
:100750001E141F0444F006811781CF010E946B060E
:10076000F60111830083FE82ED82DE011796F5010A
:1007700086E001900D928150E1F72F8138854985FF
:100780005A856B857C8590E000C02C960FB6F89456
:10079000DEBF0FBECDBFCF91DF911F910F91FF90B4
:1007A000EF90DF90CF90BF90AF9008950F931F937D
:1007B000DF93CF9300D000D000D0CDB7DEB78C014F
:1007C00029833A834B835C836D837E8388E090E04A
:1007D0000E94C105DC01F80180819181892B29F1FA
:1007E000F80182819381FC01B783A6839D01AE014C
:1007F0004F5F5F4F86E0FA010190AF01F90101926E
:100800009F018150C1F717961C921E921697F8010E
:10081000B383A28326960FB6F894DEBF0FBECDBF7A
:10082000CF91DF911F910F910895B183A083DECF07
:10083000DF93CF9300D000D000D0CDB7DEB77727BD
:1008400067FD7095E62F7A836983552747FD50959C
:100850005C834B83622F2D833E832E2F3A815C81F4
:100860007E810E94D60326960FB6F894DEBF0FBE97
:10087000CDBFCF91DF91089581E089BF80EF82BF26
:1008800084E083BF7894D69AD79ADE98DF9881E087
:100890008093840080938500089582E08093840093
:1008A000089582E080938500089583E0809384001A
:1008B000089583E080938500089581E0809384000B
:1008C000089581E080938500089584E080938400FA
:1008D000089584E08093850008951F920F920FB6CB
:1008E0000F9211248F9380EF82BF80918300823218
:1008F000D9F180918300843269F18091830085323F
:10090000F9F080918300863289F0809183008F5FB7
:100910008093830080918300883211F410928300C9
:100920008F910F900FBE0F901F90189580918400AB
:100930008111DE9880918500882339F3DF98E5CF17
:10094000809184008430F1F0809185008430C9F674
:10095000DF98D7CF80918400823091F0809185001C
:10096000823059F6DF98C9CF80918400823008F038
:10097000DE9A80918500823008F4BBCFDF9AB9CF30
:10098000DE98ECCFDE98E0CF9298929A9398939A63
:10099000089580B38695869580958170089580B37B
:1009A0008695869586958095817008958299FECF6B
:1009B00008958399FECF089588E18AB986E880BDBD
:1009C00010BC8FE289B908955D9BFECF8CB9089564
:1009D000FC018081882339F05D9BFECF8CB9319674
:1009E00080818823C9F70895FC018491882339F018
:1009F0005D9BFECF8CB9319684918823C9F7089509
:100A00005F926F927F928F929F92AF92BF92CF929E
:100A1000DF92EF92FF920F931F933B014C0197FDE2
:100A200063C05524A12C9AECB92E9AE9C92E9BE3F8
:100A3000D92E8FEFE82E89ECF82E8AE9082F8BE368
:100A4000182F1FC089E0581609F153948AE05816F0
:100A5000E9F1C601B5012AE030E040E050E00E9433
:100A6000C306C901DA015C016D01C801B7012AE0C2
:100A700030E040E050E00E94C306C901DA017C0189
:100A80008D01E614F70408051905E4F6C401B30165
:100A9000A60195010E94C306CA01B9012AE030E00F
:100AA00040E050E00E94C3066530E9F1663018F579
:100AB0006230D9F1633028F56130D9F080E35D9B75
:100AC000FECF8CB953948AE0581619F61F910F91F6
:100AD000FF90EF90DF90CF90BF90AF909F908F905E
:100AE0007F906F905F9008955D9BFECF8DE28CB9F3
:100AF00098CF81E3E4CF6730A1F0673040F486E31C
:100B0000DECF633061F06430C9F684E3D8CF68305B
:100B100021F0693099F689E3D2CF88E3D0CF83E31F
:100B2000CECF87E3CCCF85E3CACF82E3C8CF5F992E
:100B300002C080E008958CB108951816190684F457
:100B400060E070E040E058E420E0FA013197F1F70E
:100B50002F5F2436D1F76F5F7F4F68177907A4F3B3
:100B600008951816190664F420E030E043E357E0D6
:100B7000FA013197F1F72F5F3F4F28173907C4F378
:100B80000895CF93DF93BC018230910510F462E0A9
:100B900070E0A0918800B0918900ED01E0E0F0E004
:100BA00040E050E021C0888199818617970769F459
:100BB0008A819B81309719F09383828304C090933C
:100BC000890080938800FE0134C06817790738F4E3
:100BD0004115510519F08417950708F4AC01FE0181
:100BE0008A819B819C01E9012097E9F64115510515
:100BF000A9F1CA01861B970B049708F4BA01E0E03B
:100C0000F0E02AC08D919C91119784179507F9F413
:100C10006417750781F412968D919C911397309704
:100C200019F09383828304C0909389008093880095
:100C3000FD0132964CC0CA01861B970BFD01E80FDF
:100C4000F91F6193719302978D939C9340C0FD01AE
:100C5000828193819C01D9011097A1F68091860031
:100C600090918700892B41F48091630090916400FA
:100C700090938700809386004091650050916600B4
:100C80004115510541F44DB75EB7809161009091D7
:100C90006200481B590B2091860030918700CA01E1
:100CA000821B930B8617970780F0AB014E5F5F4F57
:100CB0008417950750F0420F531F509387004093BD
:100CC0008600F9016193719302C0E0E0F0E0CF018A
:100CD000DF91CF910895CF93DF93009709F450C02F
:100CE000EC0122971B821A82A0918800B0918900A2
:100CF000109709F140E050E0AC17BD0708F1BB8345
:100D0000AA83FE0121913191E20FF31FAE17BF07B5
:100D100079F48D919C911197280F391F2E5F3F4FC9
:100D20003983288312968D919C9113979B838A8394
:100D30004115510571F4D0938900C093880020C0FB
:100D400012968D919C911397AD01009711F0DC01E3
:100D5000D3CFFA01D383C28321913191E20FF31FE4
:100D6000CE17DF0769F488819981280F391F2E5F1C
:100D70003F4FFA01318320838A819B819383828351
:100D8000DF91CF91089597FB092E05260ED057FDD0
:100D900004D014D00AD0001C38F4509540953095FA
:100DA00021953F4F4F4F5F4F0895F6F790958095EF
:100DB000709561957F4F8F4F9F4F0895A1E21A2E36
:100DC000AA1BBB1BFD010DC0AA1FBB1FEE1FFF1FEF
:100DD000A217B307E407F50720F0A21BB30BE40B3F
:100DE000F50B661F771F881F991F1A9469F7609586
:100DF0007095809590959B01AC01BD01CF01089540
:100E0000EE0FFF1F0590F491E02D099410E0CAE861
:100E1000D0E004C0FE010E9402072296CC38D10720
:060E2000C9F7F894FFCFB2
:080E26000120008A0000000019
:00000001FF
