:100000000C942D000C9455000C9455000C94550044
:100010000C9455000C9455000C9455000C9455000C
:100020000C9455000C9455000C9455000C94D80376
:100030000C9455000C9455000C9455000C945500EC
:100040000C9444010C9455000C9455000C945500EC
:100050000C945500A50042029E0011241FBECFE55E
:10006000D8E0DEBFCDBF10E0A0E6B0E0EEE0FCE0FF
:1000700002C005900D92A836B107D9F710E0A8E6A6
:10008000B0E001C01D92AB38B107E1F710E0C8E560
:10009000D0E004C02297FE010E94E205C435D107DA
:1000A000C9F70E94D0000C94FA050C940000F89453
:1000B0000C940000089508950895DF93CF9300D025
:1000C00000D00F92CDB7DEB79E012F5F3F4FD90111
:1000D000EAE7F0E085E001900D928150E1F7AAE7B0
:1000E000B0E0EFE7F0E085E001900D928150E1F79C
:1000F000AFE7B0E0F90185E001900D928150E1F7A2
:100100000F900F900F900F900F90CF91DF91089567
:100110008130910531F0892B19F46F5F7F4F49F0E1
:1001200008956F5F7F4FE1F788E690E00E944902F3
:10013000089588E690E00E94DE0208956FEF7FEF59
:1001400080E090E00E94880008956FEF7FEF81E0EB
:1001500090E00E94880008950E94AF010E940F0263
:100160000E942F040E9477010E9423010E94A7038E
:100170000E9447040895809160000E94B701809119
:100180006000803831F090E0880F991F8093600004
:10019000089581E08093600008950E94BB00089557
:1001A000FF920F931F93DF93CF9300D000D000D026
:1001B000CDB7DEB70E94AC00C4988E010F5F1F4F11
:1001C00030E1F32E0E94BB000E943404882381F5A5
:1001D0008091680090916900892B01F162E370E0E1
:1001E00088E690E00E94E40229833A834B835C8393
:1001F0006D837E83ACE6B0E0F80186E001900D925D
:100200008150E1F760916C008AE790E00E94CF0195
:1002100060916E008FE790E00E94CF0182E390E052
:100220000E949D040E94BB000E943404882381F236
:1002300088B38F2588BB88EE93E00E949D04F894D4
:100240000C940000C5CF8AB3807C8ABB8BB3807CC2
:100250008BBB80E687B98DEC86B981E08093610025
:1002600078940895809174000895809175000895A0
:1002700080917600089580917700089580917800AC
:1002800008958091790008951F920F920FB60F92F2
:1002900011248F93EF93FF93E0916100F0E085B11B
:1002A000ED58FF4F808380916100809372008091B0
:1002B00072008630C9F080917200805A87B98091AF
:1002C00061008F5F8093610080916100873018F03A
:1002D00081E080936100369AFF91EF918F910F90AA
:1002E0000FBE0F901F90189510927200E4CFB8982F
:1002F000B998BA98BB98C098C198C298C398089505
:10030000B09915C092E0B19904C083E0989F902DF8
:100310001124B29904C085E0989F902D1124B399BF
:1003200004C087E0989F902D1124892F089591E0B3
:10033000EACF86B380958170089586B386958095BF
:100340008170089586B3869586958095817008950D
:1003500086B386958695869580958170089584B339
:100360008FEF84BB95B385BBBC9AC49A08958095E2
:1003700085BB0895FC01718360835383428324838A
:100380000895FC017183608353834283248308951D
:10039000FC010190F081E02D118210820895DC01B2
:1003A000862F992787FD909597FD24C0ED91FC91AC
:1003B0001197982F83330CF092E38AE09802C001E2
:1003C000112491838083161694F41296ED91FC917A
:1003D0001397208181E090E014960C9002C0880F62
:1003E000991F0A94E2F780958223808308956623FB
:1003F00029F40895909581959F4FD8CF1296ED914D
:10040000FC911397208181E090E014960C9002C03B
:10041000880F991F0A94E2F7282B208308958C9A5D
:100420008D9A8F9A8E9A83EA8FBD8FB580648FBD27
:100430008FB580618FBD1BBC1ABC19BC18BC1EBC1B
:100440008EB582608EBD22E330E09798969887E063
:1004500080937E0030937D0020937C008AE490E0BE
:1004600090937B0080937A0086E0809383003093A2
:1004700082002093810088E490E090938000809334
:100480007F0008950895FC01138212821182108268
:100490000895FC0113821282118210820895CF9276
:1004A000DF92EF92FF920F931F93DF93CF93CDB71D
:1004B000DEB72C970FB6F894DEBF0FBECDBF7C0120
:1004C000DC01ED91FC91309739F16E010894C11C6B
:1004D000D11C9601AF0186E0DA010D90AD01D90182
:1004E0000D929D018150C1F706811781CF010E94B5
:1004F0005705F70111830083DE011796F60186E0A8
:1005000001900D928150E1F72F81388549855A85F8
:100510006B857C8590E000C02C960FB6F894DEBF0A
:100520000FBECDBFCF91DF911F910F91FF90EF9044
:10053000DF90CF900895CF92DF92EF92FF920F93CA
:100540001F93DF93CF93CDB7DEB72C970FB6F894F8
:10055000DEBF0FBECDBF8C01FC0180819181892B54
:10056000F1F06E010894C11CD11C87E0E82EF12C3B
:10057000EC0EFD1EC8010E944F022F833887498769
:100580005A876B877C87D601F70186E001900D9230
:100590008150E1F7F80180819181892B59F72C96E0
:1005A0000FB6F894DEBF0FBECDBFCF91DF911F9184
:1005B0000F91FF90EF90DF90CF9008950E949B02E3
:1005C00008950E949B020895AF92BF92CF92DF924E
:1005D000EF92FF920F931F93DF93CF93CDB7DEB7C8
:1005E0002C970FB6F894DEBF0FBECDBF6C01DC01B7
:1005F000ED91FC913097A1F184819581861B970B39
:10060000958384835E010894A11CB11C9501AF0100
:1006100086E0DA010D90AD01D9010D929D01815066
:10062000C1F7ED80FE801E141F0444F0068117817F
:10063000CF010E945705F60111830083FE82ED82EF
:10064000DE011796F50186E001900D928150E1F7E9
:100650002F81388549855A856B857C8590E000C05F
:100660002C960FB6F894DEBF0FBECDBFCF91DF91B1
:100670001F910F91FF90EF90DF90CF90BF90AF90C0
:1006800008950F931F93DF93CF9300D000D000D035
:10069000CDB7DEB78C0129833A834B835C836D83AE
:1006A0007E8388E090E00E94AD04DC01F801808147
:1006B0009181892B29F1F80182819381FC01B78313
:1006C000A6839D01AE014F5F5F4F86E0FA01019066
:1006D000AF01F90101929F018150C1F717961C9259
:1006E0001E921697F801B383A28326960FB6F8944C
:1006F000DEBF0FBECDBFCF91DF911F910F91089547
:10070000B183A083DECFDF93CF9300D000D000D0A1
:10071000CDB7DEB7772767FD7095E62F7A836983BB
:10072000552747FD50955C834B83622F2D833E8375
:100730002E2F3A815C817E810E94410326960FB65E
:10074000F894DEBF0FBECDBFCF91DF91089581E059
:1007500089BF80EF82BF84E083BF7894D69AD79A0E
:10076000DE98DF9881E0809385008093860008956D
:1007700082E080938500089582E08093860008954A
:1007800083E080938500089583E080938600089538
:1007900081E080938500089581E08093860008952C
:1007A00084E080938500089584E080938600089516
:1007B0001F920F920FB60F9211248F9380EF82BF7A
:1007C000809184008232D9F180918400843269F171
:1007D000809184008532F9F080918400863289F01E
:1007E000809184008F5F80938400809184008832A0
:1007F00011F4109284008F910F900FBE0F901F90F4
:100800001895809185008111DE988091860088235B
:1008100039F3DF98E5CF809185008430F1F0809145
:1008200086008430C9F6DF98D7CF8091850082306A
:1008300091F080918600823059F6DF98C9CF80917F
:100840008500823008F0DE9A80918600823008F4BC
:10085000BBCFDF9AB9CFDE98ECCFDE98E0CF92988D
:10086000929A9398939A089580B3869586958095E9
:100870008170089580B38695869586958095817060
:1008800008958299FECF08958399FECF089588E157
:100890008AB986E880BD10BC8FE289B908955D9B56
:1008A000FECF8CB90895FC018081882339F05D9BCF
:1008B000FECF8CB9319680818823C9F70895FC0159
:1008C0008491882339F05D9BFECF8CB93196849159
:1008D0008823C9F708955F9902C080E008958CB11C
:1008E0000895CF93DF93DC01CB0140E157E2C0E0F4
:1008F000D0E0BE010E94AF058881882339F05D9B5E
:10090000FECF8CB9219688818823C9F7DF91CF91DA
:1009100008951816190684F460E070E040E058E489
:1009200020E0FA013197F1F72F5F2436D1F76F5F9E
:100930007F4F68177907A4F308951816190664F411
:1009400020E030E043E357E0FA013197F1F72F5F01
:100950003F4F28173907C4F30895CF93DF93BC01A5
:100960008230910510F462E070E0A0918900B091AE
:100970008A00ED01E0E0F0E040E050E021C0888135
:1009800099818617970769F48A819B81309719F0BE
:100990009383828304C090938A0080938900FE0130
:1009A00034C06817790738F44115510519F08417D8
:1009B000950708F4AC01FE018A819B819C01E90145
:1009C0002097E9F641155105A9F1CA01861B970B3D
:1009D000049708F4BA01E0E0F0E02AC08D919C9100
:1009E000119784179507F9F46417750781F4129627
:1009F0008D919C911397309719F09383828304C053
:100A000090938A0080938900FD0132964CC0CA0100
:100A1000861B970BFD01E80FF91F619371930297F5
:100A20008D939C9340C0FD01828193819C01D901EB
:100A30001097A1F68091870090918800892B41F44E
:100A40008091640090916500909388008093870066
:100A500040916600509167004115510541F44DB732
:100A60005EB78091620090916300481B590B209102
:100A7000870030918800CA01821B930B8617970765
:100A800080F0AB014E5F5F4F8417950750F0420F27
:100A9000531F5093880040938700F901619371932D
:100AA00002C0E0E0F0E0CF01DF91CF910895CF9355
:100AB000DF93009709F450C0EC0122971B821A8241
:100AC000A0918900B0918A00109709F140E050E0B0
:100AD000AC17BD0708F1BB83AA83FE0121913191B8
:100AE000E20FF31FAE17BF0779F48D919C91119718
:100AF000280F391F2E5F3F4F3983288312968D911F
:100B00009C9113979B838A834115510571F4D0936F
:100B10008A00C093890020C012968D919C911397F2
:100B2000AD01009711F0DC01D3CFFA01D383C2836A
:100B300021913191E20FF31FCE17DF0769F488810D
:100B40009981280F391F2E5F3F4FFA01318320838F
:100B50008A819B8193838283DF91CF910895FB01EA
:100B60009F01E8944230C4F04532B4F44A3029F48D
:100B700097FB1EF4909581959F4F642F77270E94D5
:100B8000E605805D8A330CF0895D8193CB01009787
:100B9000A1F716F45DE251931082C9010C94D005BF
:100BA000DC01FC01672F71917723E1F7329704C0D4
:100BB0007C916D9370836291AE17BF07C8F308955F
:100BC000EE0FFF1F0590F491E02D0994AA1BBB1BAB
:100BD00051E107C0AA1FBB1FA617B70710F0A61B3D
:100BE000B70B881F991F5A95A9F780959095BC015E
:100BF000CD01089510E0C8E5D0E004C0FE010E94D8
:0E0C0000E2052296CA35D107C9F7F894FFCF56
:080C0E00010120008B00000031
:00000001FF
