:100000000C943C000C9464000C9464000C94640008
:100010000C9464000C9464000C9464000C946400D0
:100020000C9464000C9464000C9464000C94EB0534
:100030000C9464000C9464000C9464000C946400B0
:100040000C9476020C9464000C9464000C9464008C
:100050000C946400343A353A003A00343A00323AAB
:10006000343A00323A333A00323A323A00323A31D4
:100070003A008300B5047C0011241FBECFE5D8E010
:10008000DEBFCDBF11E0A0E6B0E0E2E7FDE102C0D7
:1000900005900D92A037B107D9F711E0A0E7B1E0C4
:1000A00001C01D92A13CB107E1F710E0C6E7D0E026
:1000B00004C02297FE010E94A80EC237D107C9F7DB
:1000C0000E9499000C94AC0E0C94000081309105B4
:1000D00031F0892B19F46F5F7F4F49F008956F5FFE
:1000E0007F4FE1F780E791E00E94BF04089580E729
:1000F00091E00E94150508956FEF7FEF80E090E09A
:100100000E94660008956FEF7FEF81E090E00E940B
:10011000660008950E941C030E947B040E947006E2
:100120000E94A4020E9468010E9492050E94880613
:1001300008950E948A000E94E7030E94B90084E5A6
:1001400090E00E94A00684E00E94B40190E0A0E04C
:10015000B0E0BC01CD010E94AC068AE00E9490068E
:1001600084E690E00E945D07E8CFF8940C940000CC
:10017000089580917601883079F08F5F80937601C1
:1001800081E090E00090760102C0880F991F0A94E8
:10019000E2F70E942503089510927601F1CFCF92E5
:1001A000DF92EF92FF920F931F9321E0C22ED12C8A
:1001B000E12CF12C8601015010408BE590E00E946B
:1001C000A006C701B6010E94AC0689E590E00E9436
:1001D000A006C80163E070E00E940B0E9C01C801FC
:1001E00063E070E00E940B0EFB01EE0FFF1FE60FB5
:1001F000F71FE20FF31FEE0FFF1FE856FE4F60815F
:100200007181882777FD8095982F0E94AC068AE03F
:100210000E9490060894C11CD11CE11CF11C87E0CF
:10022000C816D104E104F10429F61F910F91FF9043
:10023000EF90DF90CF9008958DE690E00E94A006A9
:100240000E94AF02882389F182E30E9490068AE02F
:100250000E94900688E690E00E94A0060E94B302E9
:10026000882359F182E30E9490068AE00E9490065A
:1002700083E690E00E94A0060E94B8028823C9F09D
:1002800082E30E9490068AE00E9490068EE590E04C
:100290000E94A0060E94BE02882399F481E30E9476
:1002A00090068AE00E949006089581E30E949006DD
:1002B000CECF81E30E949006E6CF81E30E949006B4
:1002C000D4CF82E30E9490068AE00E9490060895AF
:1002D000CF92DF92EF92FF920F931F93CF93DF9312
:1002E0008AB31ABA8BB31BBA80E687B98DEC86B98C
:1002F00010927701789400E811E0C0E0D0E00F2E72
:10030000F0E0CF2EF0E0DF2EF0E8EF2EFFE3FF2E3F
:10031000F02DF801C192D192E192F1928F01CE01BC
:1003200063E070E00E940B0E9C01CE0163E070E080
:100330000E940B0EFB01EE0FFF1FE60FF71FE20FEF
:10034000F31FEE0FFF1FE856FE4F11821082219619
:10035000C630D105F1F6DF91CF911F910F91FF903B
:10036000EF90DF90CF900895E82FFF27E7FDF095FD
:10037000E858FE4F808108952F923F924F925F92EE
:100380006F927F928F929F92AF92BF92CF92DF92A5
:10039000EF92FF920F931F93DF93CF93CDB7DEB70A
:1003A00028970FB6F894DEBF0FBECDBF80E891E06E
:1003B0009A83898318861F82EF81F885E858FE4F5B
:1003C000C08022E539E44DE959E3E981FA81608191
:1003D0007181828193810E94EA081B012C012DEC1E
:1003E0003CEC4CE45DE30E94EA089B01AC01C201D5
:1003F000B1010E94110A6B837C838D839E838F8160
:10040000988563E070E00E940B0EFB018F81988558
:1004100063E070E00E940B0E8F01000F111F0E0FA2
:100420001F1F080F191F000F111F08561E4FF8013C
:10043000A080B180B501882777FD8095982F0E9414
:10044000BB0A3B014C01DD24CA18DB08EE24D7FCB3
:10045000E094FE2CC701B6010E94BB0A2B813C81AF
:100460004D815E810E9417099B01AC01C401B3015B
:100470000E94EA080E94190BF801718360832B81A6
:100480003C814D815E8160E070E080E89FE30E94E6
:10049000B908A20191010E941709E981FA816193CB
:1004A000719381939193FA83E9838F819885019663
:1004B00098878F83069709F07FCF28960FB6F89418
:1004C000DEBF0FBECDBFCF91DF911F910F91FF9087
:1004D000EF90DF90CF90BF90AF909F908F907F90E4
:1004E0006F905F904F903F902F9008951F920F92C2
:1004F0000FB60F9211248F93EF93FF93E091770142
:10050000F0E085B1E858FE4F808380917701873015
:10051000C1F0809177018F5987B9809177018F5F02
:100520008093770180917701883010F010927701E5
:10053000369AFF91EF918F910F900FBE0F901F9001
:10054000189580E687B9E9CFB898B998BA98BB985A
:10055000C098C198C298C3988F9A979A089586B305
:1005600080958170089586B38695809581700895F1
:1005700086B38695869580958170089586B3869515
:1005800086958695809581700895DF93CF930F921D
:10059000CDB7DEB76091A4017091A5018091600094
:1005A000909161006817790709F442C0472F5527D9
:1005B00020E030E040FF20C0AF9A198289818A3064
:1005C00030F489818F5F898389818A30D0F3AE9A34
:1005D000198289818A3030F489818F5F898389818A
:1005E0008A30D0F3AE982F5F3F4F2031310531F084
:1005F0005695479540FDE0CFAF98DFCF19828981AE
:100600008A3030F489818F5F898389818A30D0F381
:10061000C49A198289818A3030F489818F5F8983F5
:1006200089818A30D0F3C498709361006093600030
:100630000F90CF91DF910895A79AAF98A69AAE98A0
:10064000BC9AC4980E94C50208951092A401809398
:10065000A5010E94C5020895DF93CF930F92CDB7F5
:10066000DEB7198289818A3030F489818F5F89836E
:1006700089818A30D0F30F90CF91DF9108958091D6
:10068000A4019091A50182609093A5018093A4019B
:100690000E94C50208958091A4019091A5018D7FCB
:1006A0009093A5018093A4010E94C50208958091B2
:1006B000A4019091A50184609093A5018093A40169
:1006C0000E94C50208958091A4019091A5018B7F9D
:1006D0009093A5018093A4010E94C5020895809182
:1006E000A4019091A50188609093A5018093A40135
:1006F0000E94C50208958091A4019091A501877F71
:100700009093A5018093A4010E94C5020895809151
:10071000A4019091A50180619093A5018093A4010B
:100720000E94C50208958091A4019091A5018F7E39
:100730009093A5018093A4010E94C5020895809121
:10074000A4019091A50180629093A5018093A401DA
:100750000E94C50208958091A4019091A5018F7D0A
:100760009093A5018093A4010E94C50208958091F1
:10077000A4019091A50180649093A5018093A401A8
:100780000E94C50208958091A4019091A5018F7BDC
:100790009093A5018093A4010E94C50208958091C1
:1007A000A4019091A50180689093A5018093A40174
:1007B0000E94C50208958091A4019091A5018F77B0
:1007C0009093A5018093A4010E94C5020895809191
:1007D000A4019091A50191609093A5018093A4013B
:1007E0000E94C50208958091A4019091A5019E7F69
:1007F0009093A5018093A4010E94C5020895FC0175
:100800007283618354834383258310821682089503
:10081000FC01728361835483438325831082168293
:100820000895DC011196ED91FC91129711821082CE
:1008300016961C920895DC018C918823C1F1619574
:1008400016968C9116978195681781F116966C9380
:100850001697862F992787FD909597FD3FC0119693
:10086000ED91FC911297982F83332CF58AE0980232
:10087000C001112491838083161694F41396ED9190
:10088000FC911497208181E090E015960C9002C0B5
:10089000880F991F0A94E2F7809582238083089538
:1008A000662359F41182108216961C9208951696AA
:1008B0008C911697C9CF92E3D9CF1396ED91FC9105
:1008C0001497208181E090E015960C9002C0880F6B
:1008D000991F0A94E2F7282B20830895909581951B
:1008E0009F4FBDCFFC018081882311F4868108953C
:1008F0008681819508958C9A8D9AA09AA19A83EA0F
:100900008FBD8FB580648FBD8FB580618FBD1BBCDF
:100910001ABC19BC18BC1EBC8EB582608EBD25E306
:1009200030E0A898A9981092AC011092A6011092FC
:10093000AB013093AA012093A9018AE490E090933F
:10094000A8018093A7011092B3011092AD0181E03C
:100950008093B2013093B1012093B00188E490E01C
:100960009093AF018093AE01089508951092B7015E
:100970001092B6011092B5011092B4010895109230
:10098000B7011092B6011092B5011092B40108950A
:1009900020E08091B4019091B501892B09F421E008
:1009A000822F08958091B4019091B50108950F931D
:1009B0001F93E091B401F091B501309749F00581A2
:1009C0001681CF010E94B30D1093B5010093B401BD
:1009D0001F910F9108959C01E091B401F091B50130
:1009E000309749F083819481861B970B948383838E
:1009F000181619060CF40895C9010E94D704089529
:100A0000CF93DF93EC018091B4019091B501892BD4
:100A100049F0CE010E94D7048091B4019091B501B4
:100A2000892BB9F7DF91CF9108950E9400050895B1
:100A30000E9400050895DF93CF9300D000D00F925D
:100A4000CDB7DEB729833A834B835C836D8387E020
:100A500090E00E94090DDC018091B4019091B501F4
:100A6000892B19F1E091B601F091B701B683A58306
:100A70009D01AE014F5F5F4F85E0FA010190AF012C
:100A8000F90101929F018150C1F716961C921E92A6
:100A90001597B093B701A093B6010F900F900F90E8
:100AA0000F900F90CF91DF910895B093B501A0936F
:100AB000B401DECF0F93DF93CF9300D000D00F921D
:100AC000CDB7DEB7742F402F69837A83522F2C83E2
:100AD0003D830B839B016D810E941B050F900F903E
:100AE0000F900F900F90CF91DF910F910895DF93AA
:100AF000CF9300D000D00F92CDB7DEB769834A8381
:100B0000522F2C833D831B82262F342F40E06D8192
:100B10000E941B050F900F900F900F900F90CF9198
:100B2000DF91089581E089BF80EF82BF84E083BFB9
:100B30007894A29AA39AA49AA59AAA98AB98AC98EA
:100B4000AD9881E08093B9018093BA018093BB0195
:100B50008093BC01089582E08093B901089582E0FA
:100B60008093BA01089582E08093BB01089582E0EA
:100B70008093BC01089583E08093B901089583E0D8
:100B80008093BA01089583E08093BB01089583E0C8
:100B90008093BC01089581E08093B901089581E0BC
:100BA0008093BA01089581E08093BB01089581E0AC
:100BB0008093BC01089584E08093B901089584E096
:100BC0008093BA01089584E08093BB01089584E086
:100BD0008093BC0108951F920F920FB60F921124BB
:100BE0008F9380EF82BF8091B801823209F456C0A2
:100BF0008091B801843209F43EC08091B8018532F9
:100C000039F18091B801863289F08091B8018F5F07
:100C10008093B8018091B801883211F41092B80124
:100C20008F910F900FBE0F901F9018958091B90172
:100C30008111AA988091BA018111AB988091BB0172
:100C40008111AC988091BC018823F9F2AD98DDCF79
:100C50008091B901843009F441C08091BA01843097
:100C6000D9F18091BB018430A9F18091BC0184301D
:100C700041F6AC98C6CF8091B901823039F18091AC
:100C8000BA01823009F18091BB01823009F1809173
:100C9000BC01823009F0B1CFAD98AFCF8091B901DE
:100CA000823008F0AA9A8091BA01823008F0AB9A9B
:100CB0008091BB01823008F0AC9A8091BC018230F7
:100CC00008F496CFAD9A94CFAB98DDCFAA98D7CF42
:100CD000AC98DDCFAD98C9CFAB98C3CFAA98BDCFA4
:100CE0009298929A9398939A089580B38695869550
:100CF00080958170089580B38695869586958095B8
:100D0000817008958299FECF08958399FECF08954A
:100D100088E18AB986E880BD10BC8FE589B908955D
:100D20005D9BFECF8CB90895FC018081882339F04A
:100D30005D9BFECF8CB9319680818823C9F70895D9
:100D4000FC018491882339F05D9BFECF8CB93196EC
:100D500084918823C9F708955F926F927F928F9252
:100D60009F92AF92BF92CF92DF92EF92FF920F933A
:100D70001F933B014C0197FD63C05524A12C9AECB5
:100D8000B92E9AE9C92E9BE3D92E8FEFE82E89EC74
:100D9000F82E8AE9082F8BE3182F1FC089E0581618
:100DA00009F153948AE05816E9F1C601B5012AE029
:100DB00030E040E050E00E941E0EC901DA015C0103
:100DC0006D01C801B7012AE030E040E050E00E9428
:100DD0001E0EC901DA017C018D01E614F704080535
:100DE0001905E4F6C401B301A60195010E941E0E87
:100DF000CA01B9012AE030E040E050E00E941E0E36
:100E00006530E9F1663018F56230D9F1633028F5C4
:100E10006130D9F080E35D9BFECF8CB953948AE0BA
:100E2000581619F61F910F91FF90EF90DF90CF9019
:100E3000BF90AF909F908F907F906F905F9008953C
:100E40005D9BFECF8DE28CB998CF81E3E4CF673014
:100E5000A1F0673040F486E3DECF633061F06430A8
:100E6000C9F684E3D8CF683021F0693099F689E378
:100E7000D2CF88E3D0CF83E3CECF87E3CCCF85E357
:100E8000CACF82E3C8CF5F9902C080E008958CB1D9
:100E900008951816190684F460E070E040E058E404
:100EA00020E0FA013197F1F72F5F2436D1F76F5F19
:100EB0007F4F68177907A4F308951816190664F48C
:100EC00020E030E043E357E0FA013197F1F72F5F7C
:100ED0003F4F28173907C4F30895A0E0B0E0E3E7D7
:100EE000F7E00C946F0EDC012B01FA019C9192301B
:100EF00008F439C1EB018881823008F433C19430A1
:100F000069F4843009F02FC111969C911197898161
:100F1000981709F428C1A2E6B0E025C1843009F48D
:100F200021C18230A9F4923009F01DC19A01AD01AE
:100F300088E0EA010990AE01E90109929E01815021
:100F4000C1F7E201898111969C918923818308C1AF
:100F5000923009F407C112962D903C901397EB0143
:100F60008A819B811496AD90BD90CD90DC901797AF
:100F7000EC80FD800E811F819101281B390BB90186
:100F800037FF04C066277727621B730B6032710539
:100F90000CF061C0121613066CF537014801062EDD
:100FA00004C096948794779467940A94D2F721E0CA
:100FB00030E040E050E004C0220F331F441F551FB3
:100FC0006A95D2F721503040404050402E213F21B9
:100FD00040235123211531054105510521F021E020
:100FE00030E040E050E079018A01E628F72808293E
:100FF00019293CC0232BD1F1260E371E350146019D
:10100000062E04C096948794779467940A94D2F736
:1010100021E030E040E050E004C0220F331F441FC5
:10102000551F6A95D2F721503040404050402A2148
:101030003B214C215D21211531054105510521F050
:1010400021E030E040E050E059016A01A628B728CD
:10105000C828D9280BC0821593052CF01C01AA249E
:10106000BB24650103C0EE24FF24870111969C91E7
:10107000D20111968C91981709F445C0992339F043
:10108000A80197012A193B094C095D0906C0A60170
:1010900095012E193F09400B510B57FD08C01182D5
:1010A0003382228224833583468357831DC081E0A7
:1010B00081833382228288279927DC01821B930B4C
:1010C000A40BB50B84839583A683B7830DC0220F31
:1010D000331F441F551F24833583468357838281E2
:1010E000938101979383828324813581468157813F
:1010F000DA01C9010197A109B1098F5F9F4FAF4F75
:10110000BF4328F30BC0918333822282EA0CFB1C7D
:101110000C1D1D1DE482F5820683178383E0808306
:10112000248135814681578157FF1AC0C901AA27FA
:1011300097FDA095BA2F81709070A070B0705695F1
:10114000479537952795822B932BA42BB52B84831A
:101150009583A683B783828193810196938382834B
:10116000DF0101C0D201CD01CDB7DEB7E2E10C94C1
:101170008B0EA0E2B0E0EFEBF8E00C947B0E6983FD
:101180007A838B839C832D833E834F835887E9E04A
:10119000EE2EF12CEC0EFD1EB701CE0101960E9441
:1011A000910C8E010F5E1F4FB801CE0105960E9473
:1011B000910C8A8991E089278A8BAE01475E5F4F47
:1011C000B801C7010E946D070E94BC0BA096E6E023
:1011D0000C94970EA0E2B0E0E0EFF8E00C947B0EE8
:1011E00069837A838B839C832D833E834F835887C7
:1011F000F9E0EF2EF12CEC0EFD1EB701CE010196A9
:101200000E94910C8E010F5E1F4FB801CE01059612
:101210000E94910CAE01475E5F4FB801C7010E946A
:101220006D070E94BC0BA096E6E00C94970EA0E21E
:10123000B0E0EDE1F9E00C946F0E69837A838B8363
:101240009C832D833E834F835887BE01675F7F4F0A
:10125000CE0101960E94910CBE016F5E7F4FCE01C0
:1012600005960E94910C9985923088F08989823088
:10127000C8F0943019F4823051F404C0843029F459
:10128000923081F482E690E0C6C0923049F420E0CA
:101290009A858A89981321E02A87CE010996BBC0D6
:1012A000823049F420E09A858A89981321E02A8BBC
:1012B000CE014196B0C02D843E844F8458886D88FD
:1012C0007E888F88988CEE24FF248701AA24BB2473
:1012D000650140E050E060E070E0E0E0F0E0C10176
:1012E00081709070892BE9F0E60CF71C081D191D20
:1012F0009A01AB012A0D3B1D4C1D5D1D80E090E065
:10130000A0E0B0E0E614F7040805190520F481E038
:1013100090E0A0E0B0E0BA01A901480F591F6A1F90
:101320007B1FAA0CBB1CCC1CDD1C97FE08C081E0F7
:1013300090E0A0E0B0E0A82AB92ACA2ADB2A3196B8
:10134000E032F10549F0660C771C881C991C569414
:10135000479437942794C3CFFA85EA892B893C892F
:101360008B859C85280F391F2E5F3F4F17C0CA0100
:1013700081709070892B61F016950795F794E7942A
:1013800080E090E0A0E0B0E8E82AF92A0A2B1B2BC5
:1013900076956795579547952F5F3F4F77FDE7CF38
:1013A0000CC0440F551F661F771F17FD4160EE0CE0
:1013B000FF1C001F111F21503040403090E05907A2
:1013C00090E0690790E4790760F32B8F3C8FDB0195
:1013D000CA018F779070A070B07080349105A1051C
:1013E000B10561F447FD0AC0E114F10401051105DE
:1013F00029F0405C5F4F6F4F7F4F40781A8EFE1789
:1014000011F081E08A8F4D8F5E8F6F8F78A383E01C
:10141000898FCE0149960E94BC0BA096E2E10C9404
:101420008B0EA8E1B0E0E7E1FAE00C94770E698357
:101430007A838B839C832D833E834F835887B9E0C7
:10144000EB2EF12CEC0EFD1EB701CE0101960E9491
:10145000910C8E010F5E1F4FB801CE0105960E94C0
:10146000910C2985223008F47CC03989323010F47F
:10147000B8017AC08A859A8989278A87243011F031
:10148000223031F4231709F06CC062E670E06CC0C2
:10149000343039F41D861E861F86188A1C861B86EA
:1014A00004C0323021F484E08987B7015DC02B8508
:1014B0003C858B899C89281B390B3C872B87ED84C5
:1014C000FE840F851889AD88BE88CF88D88CEA1431
:1014D000FB040C051D0540F4EE0CFF1C001F111F42
:1014E000215030403C872B8720E030E040E050E046
:1014F00080E090E0A0E0B0E46FE170E0EA14FB046B
:101500000C051D0540F0282B392B4A2B5B2BEA18C4
:10151000FB080C091D09B695A79597958795EE0CC4
:10152000FF1C001F111F6150704041F7DA01C90113
:101530008F779070A070B07080349105A105B105CF
:1015400061F427FD0AC0E114F1040105110529F039
:10155000205C3F4F4F4F5F4F20782D873E874F874E
:10156000588BBE01675F7F4FCB010E94BC0B689612
:10157000EAE00C94930EA8E0B0E0E1ECFAE00C9401
:10158000780E9B01AC0183E08983DA01C9018827C9
:10159000B7FD83959927AA27BB27B82E21153105BA
:1015A0004105510519F482E089833AC08823A9F0E6
:1015B000203080E0380780E0480780E8580729F4A9
:1015C00060E070E080E09FEC30C0EE24FF248701F3
:1015D000E21AF30A040B150B02C079018A018EE1AD
:1015E000C82ED12CDC82CB82ED82FE820F8318873D
:1015F000C801B7010E946D0B01971816190684F4F3
:10160000082E04C0EE0CFF1C001F111F0A94D2F715
:10161000ED82FE820F831887C81AD90ADC82CB823A
:10162000BA82CE0101960E94BC0B2896E9E00C9488
:10163000940EACE0B0E0EFE1FBE00C947F0E698328
:101640007A838B839C83BE016B5F7F4FCE010196B3
:101650000E94910C8D81823061F1823050F1843092
:1016600021F48E81882351F12EC02F81388537FDDA
:1016700020C06E812F3131051CF06623F9F023C0A4
:101680008EE190E0821B930B29853A854B855C8522
:1016900004C056954795379527958A95D2F76623C6
:1016A000B1F050954095309521953F4F4F4F5F4F8A
:1016B0000EC020E030E040E050E009C02FEF3FEFE7
:1016C0004FEF5FE704C020E030E040E050E8B901B0
:1016D000CA012C96E2E00C949B0EEF92FF920F93BE
:1016E0001F937B018C0180E0E81680E0F80681E022
:1016F000080780E0180788F48FEFE816F104010569
:10170000110531F028F088E090E0A0E0B0E017C0CB
:1017100080E090E0A0E0B0E012C080E0E81680E059
:10172000F80680E0080781E0180728F088E190E0DB
:10173000A0E0B0E004C080E190E0A0E0B0E020E2F2
:1017400030E040E050E0281B390B4A0B5B0B04C033
:1017500016950795F794E7948A95D2F7F701E6591D
:10176000FF4F8081281B310941095109C9011F918F
:101770000F91FF90EF900895DF92EF92FF920F93F9
:101780001F93FC01E480F58006811781D180808160
:10179000823048F480E090E0A0E1B0E0E82AF92A45
:1017A0000A2B1B2BA5C0843009F49FC0823021F482
:1017B000EE24FF24870105C0E114F10401051105A1
:1017C00019F4E0E0F0E096C0628173819FEF623827
:1017D00079070CF05BC022E83FEF261B370B2A315C
:1017E00031052CF020E030E040E050E02AC0B801A4
:1017F000A701022E04C076956795579547950A94E0
:10180000D2F781E090E0A0E0B0E004C0880F991F1B
:10181000AA1FBB1F2A95D2F70197A109B1098E21F2
:101820009F21A023B1230097A105B10521F081E0FC
:1018300090E0A0E0B0E09A01AB01282B392B4A2BB5
:101840005B2BDA01C9018F779070A070B070803483
:101850009105A105B10539F427FF09C0205C3F4F70
:101860004F4F5F4F04C0215C3F4F4F4F5F4FE0E051
:10187000F0E02030A0E03A07A0E04A07A0E45A07D1
:1018800010F0E1E0F0E079018A0127C060387105CD
:1018900064F5FB01E158FF4FD801C7018F779070C5
:1018A000A070B07080349105A105B10539F4E7FE50
:1018B0000DC080E490E0A0E0B0E004C08FE390E0D1
:1018C000A0E0B0E0E80EF91E0A1F1B1F17FF05C0BD
:1018D00016950795F794E794319687E01695079546
:1018E000F794E7948A95D1F705C0EE24FF24870189
:1018F000EFEFF0E06E2F679566276795902F9F7743
:10190000D794DD24D7948E2F8695492F462B582FB8
:101910005D29B701CA011F910F91FF90EF90DF90F1
:101920000895FC01DB01408151812281622F6F7794
:1019300070E0221F2227221F9381892F880F822B7C
:10194000282F30E0991F9927991F11969C93119782
:1019500021153105A9F5411551056105710511F4F0
:1019600082E037C082E89FEF13969C938E93129784
:101970009A01AB0167E0220F331F441F551F6A9580
:10198000D1F783E08C930DC0220F331F441F551FE6
:1019900012968D919C911397019713969C938E9319
:1019A0001297203080E0380780E0480780E458072D
:1019B00058F314962D933D934D935C931797089588
:1019C0002F3F310579F4411551056105710519F471
:1019D00084E08C93089564FF03C081E08C9312C06F
:1019E0001C9210C02F57304013963C932E931297A1
:1019F00083E08C9387E0440F551F661F771F8A95FD
:101A0000D1F7706414964D935D936D937C93179703
:101A10000895CF93DF93BC018230910510F462E00A
:101A200070E0A091BF01B091C001ED01E0E0F0E0F5
:101A300040E050E021C0888199818617970769F4BA
:101A40008A819B81309719F09383828304C090939D
:101A5000C0018093BF01FE0134C06817790738F4D4
:101A60004115510519F08417950708F4AC01FE01E2
:101A70008A819B819C01E9012097E9F64115510576
:101A8000A9F1CA01861B970B049708F4BA01E0E09C
:101A9000F0E02AC08D919C91119784179507F9F475
:101AA0006417750781F412968D919C911397309766
:101AB00019F09383828304C09093C0018093BF0187
:101AC000FD0132964CC0CA01861B970BFD01E80F41
:101AD000F91F6193719302978D939C9340C0FD0110
:101AE000828193819C01D9011097A1F68091BD015B
:101AF0009091BE01892B41F480916C0190916D0110
:101B00009093BE018093BD0140916E0150916F0191
:101B10004115510541F44DB75EB780916A0190912E
:101B20006B01481B590B2091BD013091BE01CA01C8
:101B3000821B930B8617970780F0AB014E5F5F4FB8
:101B40008417950750F0420F531F5093BE014093E6
:101B5000BD01F9016193719302C0E0E0F0E0CF01B3
:101B6000DF91CF910895CF93DF93009709F450C090
:101B7000EC0122971B821A82A091BF01B091C00193
:101B8000109709F140E050E0AC17BD0708F1BB83A6
:101B9000AA83FE0121913191E20FF31FAE17BF0717
:101BA00079F48D919C911197280F391F2E5F3F4F2B
:101BB0003983288312968D919C9113979B838A83F6
:101BC0004115510571F4D093C001C093BF0120C0ED
:101BD00012968D919C911397AD01009711F0DC0145
:101BE000D3CFFA01D383C28321913191E20FF31F46
:101BF000CE17DF0769F488819981280F391F2E5F7E
:101C00003F4FFA01318320838A819B8193838283B2
:101C1000DF91CF91089597FB092E07260AD077FD13
:101C200004D027D006D000201AF4709561957F4F1C
:101C30000895F6F7909581959F4F089597FB092E8B
:101C400005260ED057FD04D028D00AD0001C38F449
:101C500050954095309521953F4F4F4F5F4F0895D8
:101C6000F6F790958095709561957F4F8F4F9F4FB8
:101C70000895AA1BBB1B51E107C0AA1FBB1FA617D3
:101C8000B70710F0A61BB70B881F991F5A95A9F725
:101C900080959095BC01CD010895A1E21A2EAA1B52
:101CA000BB1BFD010DC0AA1FBB1FEE1FFF1FA2170C
:101CB000B307E407F50720F0A21BB30BE40BF50B09
:101CC000661F771F881F991F1A9469F76095709592
:101CD000809590959B01AC01BD01CF0108952F9295
:101CE0003F924F925F926F927F928F929F92AF92AC
:101CF000BF92CF92DF92EF92FF920F931F93CF93F9
:101D0000DF93CDB7DEB7CA1BDB0B0FB6F894DEBF8F
:101D10000FBECDBF09942A88398848885F846E84B5
:101D20007D848C849B84AA84B984C884DF80EE80FF
:101D3000FD800C811B81AA81B981CE0FD11D0FB608
:101D4000F894DEBF0FBECDBFED010895EE0FFF1F6B
:101D50000590F491E02D099410E0C6E7D0E004C0AE
:101D6000FE010E94A80E2296C837D107C9F7F89441
:021D7000FFCFA3
:101D7200FF00000000000000000000010202030357
:101D8200030304040404040404040505050505050D
:101D920005050505050505050505060606060606EB
:101DA20006060606060606060606060606060606D1
:101DB20006060606060606060606070707070707BB
:101DC20007070707070707070707070707070707A1
:101DD2000707070707070707070707070707070791
:101DE2000707070707070707070707070707070781
:101DF200070707070707070707070808080808086B
:101E02000808080808080808080808080808080850
:101E12000808080808080808080808080808080840
:101E22000808080808080808080808080808080830
:101E32000808080808080808080808080808080820
:101E42000808080808080808080808080808080810
:101E52000808080808080808080808080808080800
:101E620008080808080808080808080808080808F0
:101E7200080808080808080808082000C10100002E
:00000001FF
