:100000000C944B000C9473000C9473000C947300CC
:100010000C9473000C9473000C9473000C94730094
:100020000C9473000C9473000C9473000C942005D2
:100030000C9473000C9473000C9473000C94730074
:100040000C9478020C9473000C9473000C9473005D
:100050000C947300426F6E6A6F75720A00343A3600
:100060003A00343A353A00343A343A00343A333AC2
:1000700000343A323A00343A313A00323A343A00F3
:10008000323A333A00323A323A00323A313A0000E8
:100090009E008303970011241FBECFE5D8E0DEBF8A
:1000A000CDBF11E0A0E6B0E0ECE9FCE102C00590B4
:1000B0000D92A037B107D9F711E0A0E7B1E001C078
:1000C0001D92AE3AB107E1F710E0C4E9D0E004C0F8
:1000D0002297FE010E943D0EC039D107C9F70E9448
:1000E000CB000C94410E0C9400008091710191E0C2
:1000F0008927809371018091600089278093600037
:1001000008958130910531F0892B19F46F5F7F4F8D
:1001100049F008956F5F7F4FE1F780E791E00E941B
:100120008D03089580E791E00E94720408956FEFB7
:100130007FEF80E090E00E94810008956FEF7FEFF5
:1001400081E090E00E94810008950E94AD010E942C
:100150004A068A3209F008950E94E30008950E9439
:100160004A06813211F080E0089584E590E00E9413
:10017000A70581E008950E94F0020E9450030E94AA
:1001800077050E94B8020E94C1010E94EF040E94FC
:100190008F05C49808950E94BB0004C082E390E0DC
:1001A0000E9464060E94AF008823C1F30E94A5004C
:1001B00082E390E00E9464060E94A50082E390E042
:1001C0000E946406F3CFF8940C9400000895A89858
:1001D000809161000E94F80280916100803831F0C6
:1001E00090E0880F991F80936100089581E08093CB
:1001F0006100089586E790E00E94A70580E00E94D4
:10020000D00190E0A0E0B0E0BC01CD010E94B305B8
:100210008AE00E94970581E790E00E94A70581E0AF
:100220000E94D00190E0A0E0B0E0BC01CD010E94AE
:10023000B3058AE00E9497058CE690E00E94A7052E
:1002400082E00E94D00190E0A0E0B0E0BC01CD01CE
:100250000E94B3058AE00E94970587E690E00E941D
:10026000A70583E00E94D00190E0A0E0B0E0BC01CF
:10027000CD010E94B3058AE00E94970582E690E0D6
:100280000E94A70584E00E94D00190E0A0E0B0E0C9
:10029000BC01CD010E94B3058AE00E9497058DE55F
:1002A00090E00E94A70585E00E94D00190E0A0E0C8
:1002B000B0E0BC01CD010E94B3058AE00E94970521
:1002C00008958AE890E00E94A7050E94DA02882338
:1002D00089F182E30E9497058AE00E94970585E8EC
:1002E00090E00E94A7050E94DE02882359F182E374
:1002F0000E9497058AE00E94970580E890E00E949E
:10030000A7050E94E3028823C9F082E30E949705B3
:100310008AE00E9497058BE790E00E94A7050E9463
:10032000E902882399F481E30E9497058AE00E94FC
:100330009705089581E30E949705CECF81E30E943F
:100340009705E6CF81E30E949705D4CF82E30E9410
:1003500097058AE00E94970508950E94E7000E9491
:1003600061010E94FA000E944A06882349F08A32FD
:10037000D1F7F8940C9400000E944A068823B9F73C
:1003800008958AB3807C8ABB8BB3807C8BBB80E66C
:1003900087B98DEC86B981E08093740178940895D3
:1003A000E82FFF27E7FDF095EB58FE4F8081089579
:1003B0002F923F924F925F926F927F928F929F9275
:1003C000AF92BF92CF92DF92EF92FF920F931F9363
:1003D000DF93CF9300D000D000D0CDB7DEB77C0143
:1003E0002B019B01220F331F220F331F2F573E4F2C
:1003F0003E832D83F901608171818281938122E5A1
:1004000039E44DE959E30E941D085B016C012DECB4
:100410003CEC4CE45DE30E941D089B01AC01C6016D
:10042000B5010E94440969837A838B839C838BE79F
:10043000282E81E0382E240C351CF10160811081BA
:1004400070E0882777FD8095982F0E941E0A3B0157
:100450004C01E11AF1080027F7FC0095102FC801A4
:10046000B7010E941E0A29813A814B815C810E945A
:100470004A089B01AC01C401B3010E941D080E94FF
:10048000740625E731E0420E531EF2016083298194
:100490003A814B815C8160E070E080E89FE30E94DC
:1004A000EC07A60195010E944A08ED81FE81608358
:1004B000718382839383F2018081F1018083269688
:1004C0000FB6F894DEBF0FBECDBFCF91DF911F9165
:1004D0000F91FF90EF90DF90CF90BF90AF909F90E3
:1004E0008F907F906F905F904F903F902F900895E6
:1004F0001F920F920FB60F9211242F933F934F9399
:100500005F936F937F938F939F93AF93BF93EF937B
:10051000FF936091740185B170E090E00E94D80172
:1005200080917401853009F1809174018F5987B9E8
:10053000809174018F5F8093740180917401863083
:1005400010F010927401369AFF91EF91BF91AF9124
:100550009F918F917F916F915F914F913F912F91DB
:100560000F900FBE0F901F90189580E687B9E0CFCF
:10057000B898B998BA98BB98C098C198C298C398CF
:100580000895B09915C092E0B19904C083E0989F96
:10059000902D1124B29904C085E0989F902D1124CC
:1005A000B39904C087E0989F902D1124892F089556
:1005B00091E0EACF86B380958170089586B38695E1
:1005C00080958170089586B3869586958095817013
:1005D000089586B386958695869580958170089551
:1005E00084B38FEF84BB95B385BBBC9AC49A08953E
:1005F000809585BB0895FC0171836083538342839A
:1006000024830895FC017183608353834283248390
:100610000895FC010190F081E02D1182108208956F
:10062000DC01862F992787FD909597FD24C0ED91D9
:10063000FC911197982F83330CF092E38AE0980293
:10064000C001112491838083161694F41296ED91C3
:10065000FC911397208181E090E014960C9002C0E9
:10066000880F991F0A94E2F780958223808308956A
:10067000662329F40895909581959F4FD8CF1296BF
:10068000ED91FC911397208181E090E014960C90FD
:1006900002C0880F991F0A94E2F7282B208308953F
:1006A0008C9A8D9A8F9A8E9A83EA8FBD8FB58064CB
:1006B0008FBD8FB580618FBD1BBC1ABC19BC18BC27
:1006C0001EBC8EB582608EBD22E330E0979896986E
:1006D00087E080939D0130939C0120939B018AE4E5
:1006E00090E090939A018093990186E08093A20113
:1006F0003093A1012093A00188E490E090939F01A2
:1007000080939E01089508951092A6011092A5016C
:100710001092A4011092A30108951092A6011092C4
:10072000A5011092A4011092A30108952091A301A4
:100730003091A4012115310511F0C90108950895E2
:10074000EF92FF920F931F93DF93CF93CDB7DEB756
:100750002A970FB6F894DEBF0FBECDBFE091A3017C
:10076000F091A401309741F17E010894E11CF11C45
:100770009701AF0185E0DA010D90AD01D9010D922D
:100780009D018150C1F705811681CF010E946F0D37
:100790001093A4010093A301DE011696F70185E0F2
:1007A00001900D928150E1F72E813F814885598556
:1007B0006A8570E090E000C02A960FB6F894DEBF1C
:1007C0000FBECDBFCF91DF911F910F91FF90EF90A2
:1007D0000895DF93CF93CDB7DEB72A970FB6F8947D
:1007E000DEBF0FBECDBF9C01E091A301F091A4013B
:1007F000309799F183819481861B970B948383832F
:1008000018161906C4F4DE01119685E001900D92C8
:100810008150E1F729813A814B815C816D8170E0E3
:1008200080E090E02A960FB6F894DEBF0FBECDBFF1
:10083000CF91DF910895C9010E94A0032E833F83C9
:10084000488759876A87DE011196FE01369685E052
:1008500001900D928150E1F7DDCFE4CFCF92DF928E
:10086000EF92FF920F931F93DF93CF93CDB7DEB735
:100870002A970FB6F894DEBF0FBECDBF8C018091D2
:10088000A3019091A401892BF1F06E010894C11C81
:10089000D11C86E0E82EF12CEC0EFD1EC8010E9452
:1008A000A0032E833F83488759876A87D601F701C3
:1008B00085E001900D928150E1F78091A301909124
:1008C000A401892B59F72A960FB6F894DEBF0FBE04
:1008D000CDBFCF91DF911F910F91FF90EF90DF90EF
:1008E000CF9008950E942E0408950E942E0408952A
:1008F000DF93CF9300D000D00F92CDB7DEB729831E
:100900003A834B835C836D8387E090E00E94C50C43
:10091000DC018091A3019091A401892B19F1E09150
:10092000A501F091A601B683A5839D01AE014F5F9D
:100930005F4F85E0FA010190AF01F90101929F013B
:100940008150C1F716961C921E921597B093A6017E
:10095000A093A5010F900F900F900F900F90CF9143
:10096000DF910895B093A401A093A301DECF0F936C
:10097000DF93CF9300D000D00F92CDB7DEB7742FA6
:10098000402F69837A83522F2C833D830B839B01F5
:100990006D810E9478040F900F900F900F900F9030
:1009A000CF91DF910F910895DF93CF9300D000D0C6
:1009B0000F92CDB7DEB769834A83522F2C833D83D4
:1009C0001B82262F342F40E06D810E9478040F9007
:1009D0000F900F900F900F90CF91DF91089581E0CD
:1009E00089BF80EF82BF84E083BF7894D69AD79A7C
:1009F000DE98DF9881E08093A8018093A901089593
:100A000082E08093A801089582E08093A90108956F
:100A100083E08093A801089583E08093A90108955D
:100A200081E08093A801089581E08093A901089551
:100A300084E08093A801089584E08093A90108953B
:100A40001F920F920FB60F9211248F9380EF82BFE7
:100A50008091A7018232D9F18091A701843269F196
:100A60008091A7018532F9F08091A701863289F043
:100A70008091A7018F5F8093A7018091A7018832A1
:100A800011F41092A7018F910F900FBE0F901F903D
:100A900018958091A8018111DE988091A901882381
:100AA00039F3DF98E5CF8091A8018430F1F080918F
:100AB000A9018430C9F6DF98D7CF8091A801823090
:100AC00091F08091A901823059F6DF98C9CF8091C9
:100AD000A801823008F0DE9A8091A901823008F4E2
:100AE000BBCFDF9AB9CFDE98ECCFDE98E0CF9298FB
:100AF000929A9398939A089580B386958695809557
:100B00008170089580B386958695869580958170CD
:100B100008958299FECF08958399FECF089588E1C4
:100B20008AB986E880BD10BC8FE289B908955D9BC3
:100B3000FECF8CB90895FC018081882339F05D9B3C
:100B4000FECF8CB9319680818823C9F70895FC01C6
:100B50008491882339F05D9BFECF8CB931968491C6
:100B60008823C9F708955F926F927F928F929F9228
:100B7000AF92BF92CF92DF92EF92FF920F931F93AB
:100B80003B014C0197FD63C05524A12C9AECB92E72
:100B90009AE9C92E9BE3D92E8FEFE82E89ECF82E27
:100BA0008AE9082F8BE3182F1FC089E0581609F136
:100BB00053948AE05816E9F1C601B5012AE030E005
:100BC00040E050E00E94C70DC901DA015C016D01EF
:100BD000C801B7012AE030E040E050E00E94C70DB4
:100BE000C901DA017C018D01E614F7040805190535
:100BF000E4F6C401B301A60195010E94C70DCA0124
:100C0000B9012AE030E040E050E00E94C70D6530B5
:100C1000E9F1663018F56230D9F1633028F56130BA
:100C2000D9F080E35D9BFECF8CB953948AE05816CF
:100C300019F61F910F91FF90EF90DF90CF90BF902A
:100C4000AF909F908F907F906F905F9008955D9B85
:100C5000FECF8DE28CB998CF81E3E4CF6730A1F06D
:100C6000673040F486E3DECF633061F06430C9F66C
:100C700084E3D8CF683021F0693099F689E3D2CF88
:100C800088E3D0CF83E3CECF87E3CCCF85E3CACF51
:100C900082E3C8CF5F9902C080E008958CB10895C7
:100CA0001816190684F460E070E040E058E420E093
:100CB000FA013197F1F72F5F2436D1F76F5F7F4F3D
:100CC00068177907A4F308951816190664F420E04C
:100CD00030E043E357E0FA013197F1F72F5F3F4FE0
:100CE00028173907C4F30895EF92FF920F931F93CB
:100CF0007B018C0120E030E040E05FE40E94EE09DF
:100D000088238CF020E030E040E05FE4C801B701C8
:100D10000E94EC070E947C0A9B01AC0120503040ED
:100D20004040504806C0C801B7010E947C0A9B01A0
:100D3000AC01B901CA011F910F91FF90EF90089586
:100D4000A0E0B0E0E6EAF6E00C94040EDC012B0132
:100D5000FA019C91923008F439C1EB01888182300C
:100D600008F433C1943069F4843009F02FC111962E
:100D70009C9111978981981709F428C1A2E6B0E0E7
:100D800025C1843009F421C18230A9F4923009F0E0
:100D90001DC19A01AD0188E0EA010990AE01E901A7
:100DA00009929E018150C1F7E201898111969C91BF
:100DB0008923818308C1923009F407C112962D90CE
:100DC0003C901397EB018A819B811496AD90BD9066
:100DD000CD90DC901797EC80FD800E811F819101F2
:100DE000281B390BB90137FF04C066277727621B20
:100DF000730B603271050CF061C0121613066CF5AE
:100E000037014801062E04C096948794779467941E
:100E10000A94D2F721E030E040E050E004C0220F15
:100E2000331F441F551F6A95D2F721503040404070
:100E300050402E213F2140235123211531054105EA
:100E4000510521F021E030E040E050E079018A01D5
:100E5000E628F728082919293CC0232BD1F1260EB2
:100E6000371E35014601062E04C096948794779468
:100E700067940A94D2F721E030E040E050E004C0EB
:100E8000220F331F441F551F6A95D2F7215030405F
:100E9000404050402A213B214C215D212115310544
:100EA0004105510521F021E030E040E050E05901DA
:100EB0006A01A628B728C828D9280BC0821593052F
:100EC0002CF01C01AA24BB24650103C0EE24FF24DE
:100ED000870111969C91D20111968C91981709F473
:100EE00045C0992339F0A80197012A193B094C09FB
:100EF0005D0906C0A60195012E193F09400B510B53
:100F000057FD08C0118233822282248335834683B1
:100F100057831DC081E081833382228288279927ED
:100F2000DC01821B930BA40BB50B84839583A683F2
:100F3000B7830DC0220F331F441F551F24833583F1
:100F4000468357838281938101979383828324818F
:100F5000358146815781DA01C9010197A109B1099B
:100F60008F5F9F4FAF4FBF4328F30BC091833382F6
:100F70002282EA0CFB1C0C1D1D1DE482F5820683F7
:100F8000178383E08083248135814681578157FF11
:100F90001AC0C901AA2797FDA095BA2F8170907039
:100FA000A070B0705695479537952795822B932B57
:100FB000A42BB52B84839583A683B78382819381E9
:100FC000019693838283DF0101C0D201CD01CDB7A9
:100FD000DEB7E2E10C94200EA0E2B0E0E2EFF7E031
:100FE0000C94100E69837A838B839C832D833E83BC
:100FF0004F835887E9E0EE2EF12CEC0EFD1EB70171
:10100000CE0101960E94F40B8E010F5E1F4FB801B6
:10101000CE0105960E94F40B8A8991E089278A8B7C
:10102000AE01475E5F4FB801C7010E94A0060E9453
:101030001F0BA096E6E00C942C0EA0E2B0E0E3E2D9
:10104000F8E00C94100E69837A838B839C832D8344
:101050003E834F835887F9E0EF2EF12CEC0EFD1EF6
:10106000B701CE0101960E94F40B8E010F5E1F4F57
:10107000B801CE0105960E94F40BAE01475E5F4FAA
:10108000B801C7010E94A0060E941F0BA096E6E0CF
:101090000C942C0EA0E2B0E0E0E5F8E00C94040E15
:1010A00069837A838B839C832D833E834F83588708
:1010B000BE01675F7F4FCE0101960E94F40BBE0117
:1010C0006F5E7F4FCE0105960E94F40B998592309A
:1010D00088F089898230C8F0943019F4823051F454
:1010E00004C0843029F4923081F482E690E0C6C0D6
:1010F000923049F420E09A858A89981321E02A8762
:10110000CE010996BBC0823049F420E09A858A89D5
:10111000981321E02A8BCE014196B0C02D843E84E5
:101120004F8458886D887E888F88988CEE24FF24A1
:101130008701AA24BB24650140E050E060E070E034
:10114000E0E0F0E0C10181709070892BE9F0E60CDD
:10115000F71C081D191D9A01AB012A0D3B1D4C1DE2
:101160005D1D80E090E0A0E0B0E0E614F704080523
:10117000190520F481E090E0A0E0B0E0BA01A901F7
:10118000480F591F6A1F7B1FAA0CBB1CCC1CDD1CFF
:1011900097FE08C081E090E0A0E0B0E0A82AB92A5C
:1011A000CA2ADB2A3196E032F10549F0660C771C39
:1011B000881C991C5694479437942794C3CFFA857A
:1011C000EA892B893C898B859C85280F391F2E5FE6
:1011D0003F4F17C0CA0181709070892B61F016953E
:1011E0000795F794E79480E090E0A0E0B0E8E82A63
:1011F000F92A0A2B1B2B76956795579547952F5FF4
:101200003F4F77FDE7CF0CC0440F551F661F771F78
:1012100017FD4160EE0CFF1C001F111F21503040D4
:10122000403090E0590790E0690790E4790760F357
:101230002B8F3C8FDB01CA018F779070A070B0704C
:1012400080349105A105B10561F447FD0AC0E114A0
:10125000F1040105110529F0405C5F4F6F4F7F4F8E
:1012600040781A8EFE1711F081E08A8F4D8F5E8FC5
:101270006F8F78A383E0898FCE0149960E941F0B60
:10128000A096E2E10C94200EA8E1B0E0EAE4F9E0D7
:101290000C940C0E69837A838B839C832D833E830D
:1012A0004F835887B9E0EB2EF12CEC0EFD1EB701F1
:1012B000CE0101960E94F40B8E010F5E1F4FB80104
:1012C000CE0105960E94F40B2985223008F47CC0DB
:1012D0003989323010F4B8017AC08A859A89892711
:1012E0008A87243011F0223031F4231709F06CC0C2
:1012F00062E670E06CC0343039F41D861E861F86AD
:10130000188A1C861B8604C0323021F484E0898749
:10131000B7015DC02B853C858B899C89281B390BC7
:101320003C872B87ED84FE840F851889AD88BE88A5
:10133000CF88D88CEA14FB040C051D0540F4EE0C94
:10134000FF1C001F111F215030403C872B8720E0DD
:1013500030E040E050E080E090E0A0E0B0E46FE1F9
:1013600070E0EA14FB040C051D0540F0282B392B16
:101370004A2B5B2BEA18FB080C091D09B695A795AB
:1013800097958795EE0CFF1C001F111F6150704050
:1013900041F7DA01C9018F779070A070B070803486
:1013A0009105A105B10561F427FD0AC0E114F1041E
:1013B0000105110529F0205C3F4F4F4F5F4F20780A
:1013C0002D873E874F87588BBE01675F7F4FCB01CC
:1013D0000E941F0B6896EAE00C94280EA8E1B0E08A
:1013E000E4EFF9E00C94100E69837A838B839C837D
:1013F0002D833E834F83588789E0E82EF12CEC0E35
:10140000FD1EB701CE0101960E94F40B8E010F5E06
:101410001F4FB801CE0105960E94F40B89858230DA
:1014200040F08989823028F0B801C7010E946C0C15
:1014300001C08FEF6896E6E00C942C0EA8E0B0E0B7
:10144000E4E2FAE00C940D0E9B01AC0183E0898389
:10145000DA01C9018827B7FD83959927AA27BB27F9
:10146000B82E211531054105510519F482E0898313
:101470003AC08823A9F0203080E0380780E0480790
:1014800080E8580729F460E070E080E09FEC30C00D
:10149000EE24FF248701E21AF30A040B150B02C0A5
:1014A00079018A018EE1C82ED12CDC82CB82ED82BB
:1014B000FE820F831887C801B7010E94D00A0197E6
:1014C0001816190684F4082E04C0EE0CFF1C001F29
:1014D000111F0A94D2F7ED82FE820F831887C81A73
:1014E000D90ADC82CB82BA82CE0101960E941F0B00
:1014F0002896E9E00C94290EACE0B0E0E2E8FAE0CE
:101500000C94140E69837A838B839C83BE016B5F7A
:101510007F4FCE0101960E94F40B8D81823061F1E4
:10152000823050F1843021F48E81882351F12EC015
:101530002F81388537FD20C06E812F3131051CF099
:101540006623F9F023C08EE190E0821B930B29857E
:101550003A854B855C8504C0569547953795279508
:101560008A95D2F76623B1F0509540953095219534
:101570003F4F4F4F5F4F0EC020E030E040E050E063
:1015800009C02FEF3FEF4FEF5FE704C020E030E0EE
:1015900040E050E8B901CA012C96E2E00C94300E0C
:1015A000EF92FF920F931F937B018C0180E0E8166E
:1015B00080E0F80681E0080780E0180788F48FEFE4
:1015C000E816F1040105110531F028F088E090E0FB
:1015D000A0E0B0E017C080E090E0A0E0B0E012C072
:1015E00080E0E81680E0F80680E0080781E0180750
:1015F00028F088E190E0A0E0B0E004C080E190E055
:10160000A0E0B0E020E230E040E050E0281B390BE1
:101610004A0B5B0B04C016950795F794E7948A95DF
:10162000D2F7F701E659FF4F8081281B31094109A4
:101630005109C9011F910F91FF90EF900895DF921A
:10164000EF92FF920F931F93FC01E480F5800681D7
:101650001781D1808081823048F480E090E0A0E161
:10166000B0E0E82AF92A0A2B1B2BA5C0843009F424
:101670009FC0823021F4EE24FF24870105C0E114CD
:10168000F1040105110519F4E0E0F0E096C0628173
:1016900073819FEF623879070CF05BC022E83FEF5F
:1016A000261B370B2A3131052CF020E030E040E0DA
:1016B00050E02AC0B801A701022E04C076956795B4
:1016C000579547950A94D2F781E090E0A0E0B0E00A
:1016D00004C0880F991FAA1FBB1F2A95D2F7019734
:1016E000A109B1098E219F21A023B1230097A10553
:1016F000B10521F081E090E0A0E0B0E09A01AB01FB
:10170000282B392B4A2B5B2BDA01C9018F7790707C
:10171000A070B07080349105A105B10539F427FFA0
:1017200009C0205C3F4F4F4F5F4F04C0215C3F4FCB
:101730004F4F5F4FE0E0F0E02030A0E03A07A0E03C
:101740004A07A0E45A0710F0E1E0F0E079018A01CD
:1017500027C06038710564F5FB01E158FF4FD801DF
:10176000C7018F779070A070B07080349105A1058B
:10177000B10539F4E7FE0DC080E490E0A0E0B0E0F0
:1017800004C08FE390E0A0E0B0E0E80EF91E0A1F6D
:101790001B1F17FF05C016950795F794E794319620
:1017A00087E016950795F794E7948A95D1F705C0D9
:1017B000EE24FF248701EFEFF0E06E2F6795662798
:1017C0006795902F9F77D794DD24D7948E2F869599
:1017D000492F462B582F5D29B701CA011F910F9140
:1017E000FF90EF90DF900895FC01DB014081518173
:1017F0002281622F6F7770E0221F2227221F9381A0
:10180000892F880F822B282F30E0991F9927991F45
:1018100011969C93119721153105A9F54115510594
:101820006105710511F482E037C082E89FEF1396DD
:101830009C938E9312979A01AB0167E0220F331F9E
:10184000441F551F6A95D1F783E08C930DC0220F7A
:10185000331F441F551F12968D919C91139701972A
:1018600013969C938E931297203080E0380780E087
:10187000480780E4580758F314962D933D934D93F1
:101880005C93179708952F3F310579F44115510561
:101890006105710519F484E08C93089564FF03C019
:1018A00081E08C9312C01C9210C02F5730401396C9
:1018B0003C932E93129783E08C9387E0440F551F3F
:1018C000661F771F8A95D1F7706414964D935D93C8
:1018D0006D937C93179708951F93DC01FB019C91F6
:1018E000923008F447C08081823008F443C09430BD
:1018F00051F411961C91843099F58181682F70E024
:10190000611B71093FC0843021F0923031F4823084
:10191000B9F18181882389F12DC011961C9111970D
:101920008230F1F081811817D9F412962D913C91F3
:101930001397828193818217930794F028173907B0
:10194000BCF014968D919D910D90BC91A02D248199
:10195000358146815781281739074A075B0718F4F4
:10196000112341F00AC082179307A407B50740F47A
:10197000112319F061E070E005C06FEF7FEF02C046
:1019800060E070E0CB011F910895CF93DF93BC011D
:101990008230910510F462E070E0A091AC01B0914A
:1019A000AD01ED01E0E0F0E040E050E021C08881D1
:1019B00099818617970769F48A819B81309719F07E
:1019C0009383828304C09093AD018093AC01FE01A8
:1019D00034C06817790738F44115510519F0841798
:1019E000950708F4AC01FE018A819B819C01E90105
:1019F0002097E9F641155105A9F1CA01861B970BFD
:101A0000049708F4BA01E0E0F0E02AC08D919C91BF
:101A1000119784179507F9F46417750781F41296E6
:101A20008D919C911397309719F09383828304C012
:101A30009093AD018093AC01FD0132964CC0CA0178
:101A4000861B970BFD01E80FF91F619371930297B5
:101A50008D939C9340C0FD01828193819C01D901AB
:101A60001097A1F68091AA019091AB01892B41F4C6
:101A700080916C0190916D019093AB018093AA01CC
:101A800040916E0150916F014115510541F44DB7E0
:101A90005EB780916A0190916B01481B590B2091B0
:101AA000AA013091AB01CA01821B930B86179707DD
:101AB00080F0AB014E5F5F4F8417950750F0420FE7
:101AC000531F5093AB014093AA01F90161937193A5
:101AD00002C0E0E0F0E0CF01DF91CF910895CF9315
:101AE000DF93009709F450C0EC0122971B821A8201
:101AF000A091AC01B091AD01109709F140E050E028
:101B0000AC17BD0708F1BB83AA83FE012191319177
:101B1000E20FF31FAE17BF0779F48D919C911197D7
:101B2000280F391F2E5F3F4F3983288312968D91DE
:101B30009C9113979B838A834115510571F4D0932F
:101B4000AD01C093AC0120C012968D919C9113976A
:101B5000AD01009711F0DC01D3CFFA01D383C2832A
:101B600021913191E20FF31FCE17DF0769F48881CD
:101B70009981280F391F2E5F3F4FFA01318320834F
:101B80008A819B8193838283DF91CF91089597FB14
:101B9000092E05260ED057FD04D014D00AD0001C03
:101BA00038F450954095309521953F4F4F4F5F4FFA
:101BB0000895F6F790958095709561957F4F8F4FBA
:101BC0009F4F0895A1E21A2EAA1BBB1BFD010DC059
:101BD000AA1FBB1FEE1FFF1FA217B307E407F507DD
:101BE00020F0A21BB30BE40BF50B661F771F881FB9
:101BF000991F1A9469F760957095809590959B014F
:101C0000AC01BD01CF0108952F923F924F925F9298
:101C10006F927F928F929F92AF92BF92CF92DF92FC
:101C2000EF92FF920F931F93CF93DF93CDB7DEB761
:101C3000CA1BDB0B0FB6F894DEBF0FBECDBF0994F5
:101C40002A88398848885F846E847D848C849B844C
:101C5000AA84B984C884DF80EE80FD800C811B815A
:101C6000AA81B981CE0FD11D0FB6F894DEBF0FBE89
:101C7000CDBFED010895EE0FFF1F0590F491E02D0B
:101C8000099410E0C4E9D0E004C0FE010E943D0EBA
:0C1C90002296C639D107C9F7F894FFCF9F
:101C9C00010100000000000000000001020203032B
:101CAC0003030404040404040404050505050505E4
:101CBC0005050505050505050505060606060606C2
:101CCC0006060606060606060606060606060606A8
:101CDC000606060606060606060607070707070792
:101CEC000707070707070707070707070707070778
:101CFC000707070707070707070707070707070768
:101D0C000707070707070707070707070707070757
:101D1C000707070707070707070708080808080841
:101D2C000808080808080808080808080808080827
:101D3C000808080808080808080808080808080817
:101D4C000808080808080808080808080808080807
:101D5C0008080808080808080808080808080808F7
:101D6C0008080808080808080808080808080808E7
:101D7C0008080808080808080808080808080808D7
:101D8C0008080808080808080808080808080808C7
:101D9C00080808080808080808082000AE01000018
:00000001FF
