:100000000C9496010C94B3010C94B3010C94B301BD
:100010000C94B3010C94B3010C94B3010C94B30190
:100020000C94B3010C94B3010C94B3010C947D07B0
:100030000C94B3010C94B3010C94B3010C94B30170
:100040000C94C1060C94B3010C94B3010C94B3014D
:100050000C94B3014F42524F5420572050524157F5
:100060004F0A004F42524F542057204C45574F0AD9
:100070000D00434F46414E494520572050524157AD
:100080004F0A0D00434F46414E49452057204C45ED
:10009000574F0A0D00534B524554205720505241A0
:1000A000574F0A0D00534B5245542057204C45578B
:1000B0004F0A0D004A415A444120444F2054594CA4
:1000C000550A0D004A415A444120444F2050525A8B
:1000D0004F44550A0D0053544F500A0D00525543DA
:1000E000483A20004C4F534F57414E4945205255F6
:1000F0004348550A0D004E414D4945525A414E491B
:10010000452050525A454349574E494B41205A20A9
:1001100054594C550A0D004E414D4945525A414ED5
:1001200049452050525A454349574E494B4120506A
:100130004F2050524157454A0A0D004E414D494506
:10014000525A414E49452050525A454349574E490B
:100150004B4120504F204C4557454A0A0D00415411
:10016000414B414B4F57414E49452050525A454310
:1001700049574E494B41204E41205750524F5354FE
:100180000A0D0055434945435A4B41204F44204CEA
:10019000494E4949205A2054594C5520504F20501F
:1001A000524157454A0A0D0055434945435A4B4170
:1001B000204F44204C494E4949205A2054594C550F
:1001C00020504F204C4557454A0A0D00554349459C
:1001D000435A4B41204F44204C494E4949205A2014
:1001E00050525A4F445520504F2050524157454A83
:1001F0000A0D0055434945435A4B41204F44204C7A
:10020000494E4949205A2050525A4F445520504F88
:10021000204C4557454A0A0D0055434945435A4B22
:1002200041204F44204C494E4949205A2054594CB2
:10023000550A0D0055434945435A4B41204F442030
:100240004C494E4949205A2050525A4F44550A0DA4
:10025000000A0D002044495354333A2000204449F9
:100260005354323A200044495354313A2000475203
:1002700044343A302000475244343A312000475247
:1002800044333A302000475244333A312000475239
:1002900044323A302000475244323A31200047522B
:1002A00044313A302000475244313A312000524F15
:1002B0005A504F435A454349452057414C4B490AF0
:1002C0000D00310A0D00320A0D00330A0D00340A08
:1002D0000D00350A0D00524F5A504F435A454349BD
:1002E00045204F444C49435A414E49410A0D004F65
:1002F000435A454B4957414E4945204E41204E41B6
:100300004349534E49454349452050525A59434960
:10031000534B550A0D005A4153494C414E49452013
:10032000574C41435A4F4E450A0D000011241FBE41
:10033000CFE5D8E0DEBFCDBF10E0A0E6B0E0E4EE50
:10034000F3E102C005900D92A436B107D9F710E091
:10035000A4E6B0E001C01D92AA37B107E1F70E9400
:1003600086040C94F0090C9400008093650060935F
:100370006600089580916600882391F410926500CC
:100380000E945D070E9461070E9449080E944C0874
:1003900080916600882319F081508093660008954B
:1003A000909165009430B9F19530D8F0973009F408
:1003B00076C0983008F084C09530F1F1963051F74E
:1003C0000E945D070E94410782E30E94230882E3A6
:1003D0000E9436080E9449080E944F0880916600DA
:1003E000D9CF913009F44AC0913050F29230A9F13E
:1003F000933081F60E943D070E94610782E30E94CC
:10040000230882E30E9436080E9485080E944C0857
:1004100080916600BFCF0E944D070E94610782E372
:100420000E94230882E30E9436080E9461080E940D
:100430004C0880916600AECF0E945D070E94510774
:1004400082E30E94230882E30E9436080E94490842
:100450000E947308809166009DCF0E944D070E9404
:10046000410782E30E94230882E30E9436080E942B
:1004700061080E944F08809166008CCF0E943D0762
:100480000E94510782E30E94230882E30E943608FB
:100490000E9485080E947308809166007BCF0E94AD
:1004A0003D070E94410782E30E94230882E30E94E5
:1004B00036080E9485080E944F08809166006ACF26
:1004C0009830A1F0993009F065CF0E943D070E9455
:1004D00051078CE30E9423088CE30E9436080E9497
:1004E00085080E9473088091660054CF0E944D07D2
:1004F0000E94510782E30E94230882E30E9436088B
:100500000E9461080E9473088091660043CF8DEDC0
:1005100090E00E94AF08809165008430D9F1853069
:1005200048F0863041F1863090F0873049F18830CC
:10053000C1F00895813049F1813070F08230B1F01E
:100540008330B9F785E990E00E94AF08089585EA05
:1005500090E00E94AF08089586ED90E00E94AF08F9
:10056000089583E690E00E94AF08089584EB90E040
:100570000E94AF08089584E890E00E94AF080895B3
:1005800084E590E00E94AF08089584EC90E00E941A
:10059000AF08089582E790E00E94AF0808951F9386
:1005A0000E948606882321F40E948A068823D9F1B6
:1005B0000E948606882329F00E948A06882309F073
:1005C00066C00E948F06882329F00E949506882322
:1005D00009F069C00E9486068823C9F40E948A0631
:1005E000882309F077C00E948F06882309F067C02E
:1005F0000E9495068823A9F085E0809365008AE033
:100600008093660083E891E00E94AF080AC084E00E
:10061000809365008AE08093660083EF91E00E94FA
:10062000AF081F9108950E948F06882309F60E9443
:100630009506882309F0BCCF0E94A906843228F4CD
:100640000E94AC06843208F467C00E94A906843276
:1006500028F00E94AC06843208F07AC00E94A906F5
:10066000843208F043C00E94AC06843208F049C0CE
:100670000E94AF068E32A8F287E08093650086E480
:100680008093660086EF90E00E94AF08CACF82E0B8
:100690008093650088EC8093660084E392E00E947A
:1006A000AF081F91089581E08093650088EC8093E6
:1006B000660089E192E00E94AF081F91089583E0EF
:1006C000809365008AE08093660088EA91E00E944A
:1006D000AF08A7CF86E0809365008AE0809366002C
:1006E0008CEC91E00E94AF081F91089585E0809303
:1006F00065008EE1809366008BE391E00E94AF0875
:1007000090CF83E0809365008EE18093660087E15F
:1007100091E00E94AF0885CF0E94AF068E3208F0AC
:1007200094CF80916500882309F07BCF88E00E94F8
:100730007F09182F88E20E947F091F5F10936500D0
:10074000865F8093660084EE90E00E94AF0869CFD8
:1007500089E0809365008AE0809366008EE591E0F1
:100760000E94AF085ECF0E948606882309F44BC022
:1007700086EA92E00E94AF080E948A06882309F464
:100780004BC086E992E00E94AF080E948F06882342
:1007900009F44BC086E892E00E94AF080E949506DB
:1007A000882309F04BC08EE692E00E94AF0886E6EF
:1007B00092E00E94AF080E94A90690E0A0E0B0E09D
:1007C000BC01CD010E94BB088DE592E00E94AF08FC
:1007D0000E94AC0690E0A0E0B0E0BC01CD010E9418
:1007E000BB0884E592E00E94AF080E94AF0690E04B
:1007F000A0E0B0E0BC01CD010E94BB0881E592E021
:100800000E94AF0808958EE992E00E94AF080E940E
:100810008A06882309F0B5CF8EE892E00E94AF08DF
:100820000E948F06882309F0B5CF8EE792E00E94E0
:10083000AF080E949506882309F4B5CF86E792E0B9
:100840000E94AF08B4CF0E948606882339F10E9427
:1008500038060E948A06882339F10E9420060E94E9
:100860008F06882339F10E9408060E949506882386
:1008700039F10E94F0050E94A906833238F10E94E6
:10088000D8050E94AC06833238F10E94C0050E9450
:10089000AF068D3238F50E94B40508950E944406D3
:1008A0000E948A068823C9F60E942C060E948F06A1
:1008B0008823C9F60E9414060E9495068823C9F66B
:1008C0000E94FC050E94A9068332C8F60E94E40536
:1008D0000E94AC068332C8F60E94CC050E94AF0687
:1008E0008D32C8F20E94A80508950E947C090E94DA
:1008F00080050E9463060E9497080E947B060E9462
:100900009C060E9424070E94020808950E94750414
:100910000E94750786E193E00E94AF088FEE92E097
:100920000E94AF0807C08F5F8093640082E390E06D
:100930000E946C090E946806882389F40E946E0652
:10094000882369F40E942304809164008A3058F35C
:10095000109264000E94B30380916400E4CF86ED9E
:1009600092E00E94AF0880E090E00E9489050E941A
:10097000380682ED92E00E94AF0881E090E00E948C
:1009800058090E9420068EEC92E00E94AF0881E098
:1009900090E00E9458090E9408068AEC92E00E94AA
:1009A000AF0881E090E00E9458090E94F00586ECB3
:1009B00092E00E94AF0881E090E00E9458090E94F6
:1009C000D80582EC92E00E94AF0881E090E00E949E
:1009D000580980E090E00E9489050E9490058EEA07
:1009E00092E00E94AF0807C08F5F8093640082E3AB
:1009F00090E00E946C090E94CF020E94BA010E94FE
:100A00002304809164008A3078F3109264000E947D
:100A1000B3030E94870280916400E6CF84B38F63A2
:100A200084BB85B38F6385BB089584B38FEF84BB8C
:100A300095B385BB0895BC9AC49A089584B38FEF8B
:100A400084BB95B385BBBC9AC49A0895809585BB39
:100A50000895DF93CF930F92CDB7DEB76091670013
:100A6000709168008091600090916100681779072B
:100A700009F442C0472F552720E030E040FF20C056
:100A8000AF9A198289818A3030F489818F5F898396
:100A900089818A30D0F3AE9A198289818A3030F404
:100AA00089818F5F898389818A30D0F3AE982F5FE7
:100AB0003F4F2031310531F05695479540FDE0CF4D
:100AC000AF98DFCF198289818A3030F489818F5FB6
:100AD000898389818A30D0F3C49A198289818A30C6
:100AE00030F489818F5F898389818A30D0F3C498FB
:100AF00070936100609360000F90CF91DF91089533
:100B0000A79AAF98A69AAE98BC9AC4980E94290555
:100B1000089510926700809368000E942905089547
:100B20008091670090916800916090936800809335
:100B300067000E94290508958091670090916800E0
:100B40009E7F90936800809367000E942905089516
:100B50008091670090916800926090936800809304
:100B600067000E94290508958091670090916800B0
:100B70009D7F90936800809367000E9429050895E7
:100B800080916700909168009460909368008093D2
:100B900067000E9429050895809167009091680080
:100BA0009B7F90936800809367000E9429050895B9
:100BB000809167009091680098609093680080939E
:100BC00067000E9429050895809167009091680050
:100BD000977F90936800809367000E94290508958D
:100BE0008091670090916800906190936800809375
:100BF00067000E9429050895809167009091680020
:100C00009F7E90936800809367000E942905089555
:100C10008091670090916800906290936800809343
:100C200067000E94290508958091670090916800EF
:100C30009F7D90936800809367000E942905089526
:100C40008091670090916800906490936800809311
:100C500067000E94290508958091670090916800BF
:100C60009F7B90936800809367000E9429050895F8
:100C700080916700909168009068909368008093DD
:100C800067000E942905089580916700909168008F
:100C90009F7790936800809367000E9429050895CC
:100CA000DF93CF930F92CDB7DEB7198289818A3057
:100CB00030F489818F5F898389818A30D0F30F90E6
:100CC000CF91DF9108959298929A9398939A08956C
:100CD00080B38695869580958170089580B38695BA
:100CE000869586958095817008958299FECF0895A6
:100CF0008399FECF0895B898B998BA98BB98C098D0
:100D0000C198C298C3988F9A979A089586B3809590
:100D10008170089586B3869580958170089586B315
:100D20008695869580958170089586B3869586957B
:100D300086958095817008958AB31ABA8BB31BBAD1
:100D400080E687B98DEC86B981E080936200789463
:100D5000089580916900089580916A0008958091B6
:100D60006B00089580916C00089580916D00089546
:100D700080916E00089580916F00089580917000B9
:100D800008951F920F920FB60F9211248F938091A6
:100D90006200843009F446C0853000F18630B1F13C
:100DA000863070F1873009F449C0883009F440C0BA
:100DB00088E080936200809162008F5F8093620080
:100DC00080916200893018F081E080936200369A49
:100DD0008F910F900FBE0F901F9018958230E1F009
:100DE000833030F085B180936B0083E687B9E3CF21
:100DF0008130F1F685B18093690081E687B9DBCF58
:100E000085B180936D0085E687B9D5CF85B1809394
:100E10006E0086E687B9CFCF85B180936A0082E6FF
:100E200087B9C9CF85B180936C0084E687B9C3CFF9
:100E300085B18093700080E687B9BDCF85B180937E
:100E40006F0087E687B9B7CF81E089BF80EF82BFA7
:100E500084E083BF7894A39AA29AA59AA49AAB98A7
:100E6000AA98AD98AC9881E080937200809373004B
:100E70008093740080937500089582E080937200DF
:100E8000089582E080937300089582E08093740057
:100E9000089582E080937500089583E08093720046
:100EA000089583E080937300089583E08093740035
:100EB000089583E080937500089581E08093720027
:100EC000089581E080937300089581E08093740019
:100ED000089581E080937500089584E08093720006
:100EE000089584E080937300089584E080937400F3
:100EF000089584E08093750008951F920F920FB6B5
:100F00000F9211248F9380EF82BF80917100823203
:100F100009F456C080917100843209F43EC080917A
:100F20007100853239F180917100863289F08091AB
:100F300071008F5F8093710080917100883211F48D
:100F4000109271008F910F900FBE0F901F90189507
:100F5000809172008111AB98809173008111AA98E1
:100F6000809174008111AD98809175008823F9F209
:100F7000AC98DDCF80917200843009F441C080913B
:100F800073008430D9F1809174008430A9F180918C
:100F90007500843041F6AC98C6CF809172008230E3
:100FA00039F180917300823009F1809174008230B0
:100FB00009F180917500823009F0B1CFAC98AFCFC4
:100FC00080917200823008F0AB9A80917300823079
:100FD00008F0AA9A80917400823008F0AD9A80914E
:100FE0007500823008F496CFAC9A94CFAA98DDCFE2
:100FF000AB98D7CFAD98DDCFAD98C9CFAA98C3CF66
:10100000AB98BDCF8D9A8C9AA19AA09A83EA8FBD96
:101010008FB580648FBD8FB580618FBD1BBC1ABC3E
:1010200019BC18BC1EBC8EB582608EBDA998A8984C
:101030008CE291E090937700809376009093790012
:10104000809378000895982F843638F088EE93E0E6
:10105000909377008093760008958AE0989FC0016E
:10106000112490937700809376000895982F84360A
:1010700038F088EE93E0909379008093780008959B
:101080008AE0989FC00111249093790080937800A2
:10109000089519BC18BC08951BBC1ABC08951BBC4C
:1010A0001ABC82E090E00E946C09A89A82E090E06D
:1010B0000E946C0980917800909179009BBD8ABD57
:1010C000089519BC18BC82E090E00E946C09A99AAE
:1010D00082E090E00E946C09809176009091770008
:1010E00099BD88BD08951BBC1ABC82E090E00E94A7
:1010F0006C09A89882E090E00E946C0980917800C9
:10110000909179009BBD8ABD089519BC18BC82E0FE
:1011100090E00E946C09A99882E090E00E946C091E
:10112000809176009091770099BD88BD089588E1FF
:101130008AB986E880BD10BC8FE289B908955D9BAD
:10114000FECF8CB90895FC018081882339F05D9B26
:10115000FECF8CB9319680818823C9F70895FC01B0
:101160008491882339F05D9BFECF8CB931968491B0
:101170008823C9F708955F926F927F928F929F9212
:10118000AF92BF92CF92DF92EF92FF920F931F9395
:101190003B014C0197FD63C0A12C9AECB92E9AE952
:1011A000C92E9BE3D92E8FEFE82E89ECF82E8AE921
:1011B000082F8BE3182F55241FC089E0581609F11A
:1011C00053948AE05816E9F1C601B5012AE030E0EF
:1011D00040E050E00E949F09C901DA015C016D0105
:1011E000C801B7012AE030E040E050E00E949F09CA
:1011F000C901DA017C018D01E614F704080519051F
:10120000E4F6C401B301A60195010E949F09CA0139
:10121000B9012AE030E040E050E00E949F096530CB
:10122000E9F1663018F56230D9F1633028F56130A4
:10123000D9F080E35D9BFECF8CB953948AE05816B9
:1012400019F61F910F91FF90EF90DF90CF90BF9014
:10125000AF909F908F907F906F905F9008955D9B6F
:10126000FECF8DE28CB998CF81E3E4CF6730A1F057
:10127000673040F486E3DECF633061F06430C9F656
:1012800084E3D8CF683021F0693099F689E3D2CF72
:1012900088E3D0CF83E3CECF87E3CCCF85E3CACF3B
:1012A00082E3C8CF5F9902C080E008958CB10895B1
:1012B0001816190684F460E070E040E058E420E07D
:1012C000FA013197F1F72F5F2436D1F76F5F7F4F27
:1012D00068177907A4F308951816190664F420E036
:1012E00030E043E357E0FA013197F1F72F5F3F4FCA
:1012F00028173907C4F3089581E085BD0895682F44
:10130000181644F484B5772767FD709590E00E9425
:101310008C09089584B5089597FB092E07260AD0F5
:1013200077FD04D027D006D000201AF4709561957F
:101330007F4F0895F6F7909581959F4F089597FBFD
:10134000092E05260ED057FD04D028D00AD0001C47
:1013500038F450954095309521953F4F4F4F5F4F52
:101360000895F6F790958095709561957F4F8F4F12
:101370009F4F0895AA1BBB1B51E107C0AA1FBB1FAB
:10138000A617B70710F0A61BB70B881F991F5A9511
:10139000A9F780959095BC01CD010895A1E21A2E80
:1013A000AA1BBB1BFD010DC0AA1FBB1FEE1FFF1F09
:1013B000A217B307E407F50720F0A21BB30BE40B59
:1013C000F50B661F771F881F991F1A9469F76095A0
:1013D0007095809590959B01AC01BD01CF0108955A
:0413E000F894FFCFAF
:0413E400FF00010005
:00000001FF
